:100000000C9435000C945D000C945D000C947D0400
:100010000C945D000C9439040C945D000C945D000C
:100020000C945D000C945D000C945D000C945D00DC
:100030000C945D000C945F000C945D000C945D00CA
:100040000C94F6000C945D000C94ED010C942D02C0
:100050000C945D000C946C010C945D000C945D009C
:100060000C945B020C945D00491411241FBECFEF69
:10007000D4E0DEBFCDBF11E0A0E0B1E0E2EFF9E2F5
:1000800002C005900D92A237B107D9F713E0A2E79D
:10009000B1E001C01D92A233B107E1F710E0CAE65A
:1000A000D0E004C02297FE010E94F314C836D107A5
:1000B000C9F70E9484130C94F7140C9400001F924B
:1000C0000F920FB60F9211248F939F93AF93BF930C
:1000D0008091720190917301A0917401B0917501AA
:1000E00080509044AF4FBF4F809372019093730143
:1000F000A0937401B0937501BF91AF919F918F91BF
:100100000F900FBE0F901F901895AF92BF92CF9295
:10011000DF92EF92FF920F931F937B018C0122E0FD
:10012000EE0CFF1C001F111F2A95D1F7E60EF71EDB
:10013000081F191F16950795F794E79420918400DE
:1001400040918500F894A0907201B0907301C09026
:100150007401D0907501789480918400809185001D
:10016000841760F3942F80E030E0822B932BA0E083
:10017000B0E022273327A901281B390B4A0B5B0B60
:100180002A193B094C095D0990918400E091850092
:10019000F894A0907201B0907301C0907401D09057
:1001A0007501789480918400809185008E1760F3AA
:1001B0007E2F60E0892F90E0862B972BA0E0B0E0A7
:1001C0008A0D9B1DAC1DBD1D820F931FA41FB51F63
:1001D0008E159F05A007B107B8F21F910F91FF90F0
:1001E000EF90DF90CF90BF90AF9008951F920F9245
:1001F0000FB60F9211248F939F93809131038F5FDD
:1002000080933103833009F049C0109231039091FB
:10021000760180913003891701F1891714F48F5FFB
:1002200001C081508093300390913003992319F4D9
:100230001092B30010C097FF0AC01092B3008EEF67
:100240009802C00111248F5F8093B40006C0990FFB
:100250009F5F9093B3001092B400909177018091CA
:100260002F038917D9F0891714F48F5F01C08150CB
:1002700080932F0390912F03992311F417BC0DC085
:1002800019162CF417BC990F9F5F98BD07C08EEF0D
:100290009802C00111248F5F87BD18BC9F918F9178
:1002A0000F900FBE0F901F90189581E080938801EA
:1002B00080918A01882379F480912B03803218F48D
:1002C0005F9A579A02C057985F9890E001968F7393
:1002D000907080932B0308951F920F920FB60F9288
:1002E00011240F931F932F933F934F935F936F931B
:1002F0007F938F939F93AF93BF93EF93FF9300915F
:100300002D03002309F44DC030917800209179002D
:10031000922F80E0232F30E0282B392B10912E03D1
:10032000E12FF0E0E759FE4FE081F0E0EE0FFF1F14
:10033000E858FE4F31832083163051F52C5B324054
:1003400018F40E94550124C01092880180918A01FE
:100350008823F1F480918901882371F080918801CC
:10036000882331F480918A01882311F45F9A579A87
:1003700081E0809389010CC080918801882331F449
:1003800080918A01882311F457985F9A109289010D
:10039000912F9F5F977090932E0388B1887F982B41
:1003A00098B981E0082700932D0380917A0080643A
:1003B00080937A00FF91EF91BF91AF919F918F91C0
:1003C0007F916F915F914F913F912F911F910F916D
:1003D0000F900FBE0F901F9018951F920F920FB69F
:1003E0000F9211242F938F939F93EF93FF9320915C
:1003F000C60090912C03E92FF0E0EB59FE4F80816D
:10040000281771F4892F8F5F80932C03843051F467
:10041000F89488E18093600088E080936000FFCFCB
:1004200010922C03E091AC019E2F9F5F903209F453
:1004300090E08091AB01981731F0F0E0E557FE4F66
:1004400020839093AC01FF91EF919F918F912F9119
:100450000F900FBE0F901F9018951F920F920FB61E
:100460000F9211248F939F93EF93FF9390910D021E
:1004700080910E02981789F0E0910D02F0E0E557A7
:10048000FE4F92A180910D028F5F803609F480E0CB
:1004900080930D029093C60005C08091C1008F7DAE
:1004A0008093C100FF91EF919F918F910F900FBEAC
:1004B0000F901F9018951F920F920FB60F92112454
:1004C0002F933F934F935F936F937F938F939F935C
:1004D000AF93BF93EF93FF93DF93CF93CDB7DEB787
:1004E0002997DEBFCDBF2091B900287F283209F4BB
:1004F00059C0293278F4203101F1213120F428301B
:1005000009F0F1C01AC0283109F44CC0203209F0BA
:10051000EAC048C0283409F4B8C0293438F420337C
:1005200009F440C0203409F0DEC089C0203509F448
:100530006DC0283509F0D7C08FC09091C30280915B
:10054000C402981709F4CFC08091C30290E0FC0167
:10055000EE0FFF1FE80FF91FDE011496ED56FD4F59
:1005600083E001900D928150E1F7DE011196FE01CA
:10057000349683E001900D928150E1F7ACEFB2E048
:10058000FE01319683E001900D928150E1F7809158
:10059000C3028F5F803109F480E08093C3028091B1
:1005A000FC0237C19091FE028091FD029817B9F4C8
:1005B00038C18091F502281709F48DC0892F90E089
:1005C000FC01EE0FFF1FE80FF91FEB53FD4FDE019B
:1005D000179683E00D9001928150E1F77AC0E09187
:1005E0004F02F0E0E15FFD4F80818093BB0085EC1E
:1005F0008093BC0080914F028F5F803409F480E0CB
:1006000080934F029F5F9093FE021DC12091BB001B
:10061000E09192029E2F9F5F903409F490E08091C8
:100620009102981709F4F9C0F0E0EF5AFD4F2083CA
:10063000909392028091FE028F5F8093FE02209140
:10064000FE0230E02F5F3F4F8091FD0290E02817BF
:1006500039070CF09DC0DFC02091BB00E0919202F1
:100660009E2F9F5F903409F490E08091910298173B
:1006700009F4D3C0F0E0EF5AFD4F2083909392022B
:100680008091FE028F5F8093FE02DE011796ECEFF1
:10069000F2E083E001900D928150E1F79091F60233
:1006A000292F2F5F203109F420E08091F5022817CF
:1006B00091F0892F90E0FC01EE0FFF1FE80FF91F6A
:1006C000EB53FD4FDE01179683E00D9001928150B0
:1006D000E1F72093F6029091C3028091C40298172B
:1006E00009F084C09AC0203979F1213970F420379B
:1006F000F1F0213720F4203609F08FC018C02038DF
:1007000019F1283809F089C045C0283A09F470C0A9
:10071000293A30F42839F1F1203A09F07EC03AC084
:10072000283B09F465C0203C09F077C059C081E03E
:100730008093FC028091FB028093FD021092FE02E6
:10074000882309F068C024C02091BB00E091920288
:100750009E2F9F5F903409F490E08091910298174A
:1007600061F0F0E0EF5AFD4F208390939202809168
:10077000FE028F5F8093FE0204C08091FE02809390
:10078000FD029091FE028091FD02981709F043C08E
:1007900085E844C0DE011796ECEFF2E083E00190BB
:1007A0000D928150E1F79091F602292F2F5F2031B1
:1007B00009F420E08091F502281791F0892F90E04C
:1007C000FC01EE0FFF1FE80FF91FEB53FD4FDE0199
:1007D000179683E00D9001928150E1F72093F60285
:1007E0009091C3028091C4029817A9F085EE16C0BB
:1007F0008091F7029091F802892B11F48FEF09C0D4
:10080000E091F702F091F8028091F9029091FA02DA
:1008100009958093BB0085EC01C085ED8093BC00F9
:1008200012C0DE011796ECEFF2E083E001900D922A
:100830008150E1F79091F602292F2F5F203109F0C6
:10084000B8CE20E0B6CE2996DEBFCDBFCF91DF91E6
:10085000FF91EF91BF91AF919F918F917F916F9198
:100860005F914F913F912F910F900FBE0F901F906E
:1008700018951F920F920FB60F9211242F933F934A
:100880008F939F93AF93BF9389B190E09C01A4E0B5
:1008900036952795AA95E1F796958795969587952C
:1008A000822780FD0CC08091FF0290910003A091EF
:1008B0000103B09102030197A109B1090BC0809116
:1008C000FF0290910003A0910103B09102030196F1
:1008D000A11DB11D8093FF0290930003A09301031B
:1008E000B0930203BF91AF919F918F913F912F9150
:1008F0000F900FBE0F901F9018951F920F920FB67A
:100900000F9211242F933F938F939F93AF93BF9395
:1009100083B190E09C01A4E036952795AA95E1F774
:10092000B5E096958795BA95E1F7822780FD0CC0D2
:100930008091030390910403A0910503B0910603F5
:100940000197A109B1090BC08091030390910403A1
:10095000A0910503B09106030196A11DB11D8093DE
:10096000030390930403A0930503B0930603BF9180
:10097000AF919F918F913F912F910F900FBE0F904C
:100980001F901895F8942091FF0230910003409138
:100990000103509102037894B901CA010895F894B3
:1009A0002091030330910403409105035091060305
:1009B0007894B901CA010895EDE6F0E08081846081
:1009C0008083EBE6F0E080818062808385E08BBBF2
:1009D00080936800089508951092680010926D0049
:1009E00010926B000895DC0180912A03680F711D3D
:1009F0009B012D5F3F4FFD01CB0150E04081F999F4
:100A0000FECF92BD81BD40BDFA9AF99A4381F99912
:100A1000FECF32BD21BD40BDFA9AF99A5F5F2F5FCC
:100A20003F4F01963196523049F76E5F7F4F1296D5
:100A30008C91F999FECF72BD61BD80BDFA9AF99A89
:100A40000895DC0180912A03680F711DF999FECF8A
:100A5000AB014D5F5F4FFD019B0190E0F999FECF27
:100A600032BD21BDF89A80B58083F999FECF52BD81
:100A700041BDF89A80B583839F5F4F5F5F4F2F5FC3
:100A80003F4F3196923051F76E5F7F4FF999FECF0D
:100A900072BD61BDF89A80B512968C9308950F933C
:100AA0001F93DF93CF93CDB7DEB7AA970FB6F89415
:100AB000DEBF0FBECDBF082F182F1E7FE091500262
:100AC0009E2F9F5F903409F490E080914F02981719
:100AD00011F490E01BC0F0E0E15FFD4F10829093B5
:100AE0005002E09150029E2F9F5F903409F490E0F5
:100AF00080914F02981711F491E008C0F0E0E15F97
:100B0000FD4F81E580839093500292E0FE01B596FF
:100B100083E0DF011D928A95E9F79EA31DA3DE0104
:100B2000989683E001900D928150E1F79091C40274
:100B3000292F2F5F203109F420E08091C30228176C
:100B400091F0892F90E0FC01EE0FFF1FE80FF91FD5
:100B5000ED56FD4FDE01989683E00D900192815095
:100B6000E1F72093C40285EE8093BC009091F502DA
:100B70008091F6029817D1F38091F50290E0FC0184
:100B8000EE0FFF1FE80FF91FDE011D96EB53FD4F1F
:100B900083E001900D928150E1F7DE011A96FE018B
:100BA0003D9683E001900D928150E1F7DE01989629
:100BB000FE013A9683E001900D928150E1F7809119
:100BC000F5028F5F803109F480E08093F502DE0149
:100BD0005096FE01B89683E001900D928150E1F7A6
:100BE000DE011196FE01709683E001900D92815016
:100BF000E1F78B81823009F0EEC160E771E181E0BD
:100C000090E00E948500E09150029E2F9F5F9034FB
:100C100009F490E080914F02981711F490E008C019
:100C2000F0E0E15FFD4F82E080839093500291E01D
:100C3000FE01B89683E0DF011D928A95E9F718A7B7
:100C400099A7DE01959683E001900D928150E1F71E
:100C50009091C402292F2F5F203109F420E0809168
:100C6000C302281791F0892F90E0FC01EE0FFF1FBF
:100C7000E80FF91FED56FD4FDE01959683E00D90CC
:100C800001928150E1F72093C40285EE8093BC006D
:100C90009091F5028091F6029817D1F38091F502B8
:100CA00090E0FC01EE0FFF1FE80FF91FDE015696E2
:100CB000EB53FD4F83E001900D928150E1F7DE018F
:100CC0005396FE01769683E001900D928150E1F7F4
:100CD000DE019596FE01739683E001900D9281509E
:100CE000E1F78091F5028F5F803109F480E0809315
:100CF000F502DE015996FE01B59683E001900D9252
:100D00008150E1F7DE011496FE01799683E00190AF
:100D10000D928150E1F79E81913009F05CC1FE0196
:100D2000B59683E0DF011D928A95E9F7302F316097
:100D30009EA33DA3DE01989683E001900D92815021
:100D4000E1F79091C402292F2F5F203109F420E0B0
:100D50008091C302281791F0892F90E0FC01EE0FDB
:100D6000FF1FE80FF91FED56FD4FDE01989683E057
:100D70000D9001928150E1F72093C40285EE80939B
:100D8000BC009091F5028091F6029817D1F3809102
:100D9000F5028091F5028F5F803109F480E0809345
:100DA000F5025091BB00E09150029E2F9F5F90345E
:100DB00009F490E080914F02981711F490E008C078
:100DC000F0E0E15FFD4F83E080839093500291E07B
:100DD000FE01B89683E0DF011D928A95E9F718A716
:100DE00099A7DE01959683E001900D928150E1F77D
:100DF0009091C402292F2F5F203109F420E08091C7
:100E0000C302281791F0892F90E0FC01EE0FFF1F1D
:100E1000E80FF91FED56FD4FDE01959683E00D902A
:100E200001928150E1F72093C40285EE8093BC00CB
:100E30009091F5028091F6029817D1F38091F50216
:100E400090E0FC01EE0FFF1FE80FF91FDE015F9637
:100E5000EB53FD4F83E001900D928150E1F7DE01ED
:100E60005C96FE017F9683E001900D928150E1F740
:100E7000DE019596FE017C9683E001900D928150F3
:100E8000E1F78091F5028F5F803109F480E0809373
:100E9000F502DE019296FE01B59683E001900D9277
:100EA0008150E1F7DE011796FE01B29683E00190D2
:100EB0000D928150E1F79985913009F08CC0FE01C7
:100EC000B59683E0DF011D928A95E9F79EA33DA3C5
:100ED000DE01989683E001900D928150E1F79091A8
:100EE000C402292F2F5F203109F420E08091C30232
:100EF000281791F0892F90E0FC01EE0FFF1FE80FFB
:100F0000F91FED56FD4FDE01989683E00D9001929A
:100F10008150E1F72093C40285EE8093BC0090914C
:100F2000F5028091F6029817D1F38091F502809135
:100F3000F5028F5F803109F480E08093F5024091E3
:100F4000BB001092BC0008C080914F028F5F8034BC
:100F500009F480E080934F0290914F0280915002FB
:100F6000981791F708C0809191028F5F803409F43F
:100F700080E0809391029091910280919202981763
:100F800091F708C08091F5028F5F803109F480E00D
:100F90008093F5029091F5028091F602981791F7EF
:100FA00008C08091C3028F5F803109F480E0809394
:100FB000C3029091C3028091C402981791F728E070
:100FC00030E002C0220F331F5A95E2F7842F90E0E1
:100FD000282B392B02C020E030E0C901AA960FB6B9
:100FE000F894DEBF0FBECDBFCF91DF911F910F915F
:100FF00008958091070390E080FFBBC082FF07C087
:1010000080910803885280937601885D07C083FF32
:1010100008C08091080380937601885280937701FD
:1010200093C080910D03882309F5F8948091FF0205
:1010300090910003A0910103B09102037894209154
:10104000090330910A0340910B0350910C03821B5A
:10105000930BA40BB50B8093090390930A03A09301
:101060000B03B0930C0381E080930D038091120376
:10107000882309F5F8948091030390910403A091CB
:101080000503B0910603789420910E0330910F036D
:101090004091100350911103821B930BA40BB50BCD
:1010A00080930E0390930F03A0931003B09311034A
:1010B00081E08093120380910D03882399F0F894C6
:1010C0008091FF0290910003A0910103B09102036F
:1010D00078948093090390930A03A0930B03B09331
:1010E0000C0308C01092090310920A0310920B031C
:1010F00010920C0380911203882399F0F894809148
:10110000030390910403A0910503B0910603789422
:1011100080930E0390930F03A0931003B0931103D9
:1011200008C010920E0310920F0310921003109239
:101130001103809108038093760180937701809159
:101140001D038F7E80931D0320918400E091850014
:10115000F894409172015091730160917401709103
:101160007501789480918400809185008E1760F3DA
:10117000FEC09C012470307081FFBDC0232B31F074
:101180009091080388E2891B919507C083FF0AC0EC
:101190008091080398E2981B819580937601909343
:1011A000770194C080911D038F7E80931D038091F1
:1011B0000D03882309F5F8948091FF0290910003B4
:1011C000A0910103B091020378942091090330911A
:1011D0000A0340910B0350910C03821B930BA40B49
:1011E000B50B8093090390930A03A0930B03B0936C
:1011F0000C0381E080930D0380911203882309F58D
:10120000F8948091030390910403A0910503B09199
:101210000603789420910E0330910F034091100340
:1012200050911103821B930BA40BB50B80930E03FB
:1012300090930F03A0931003B093110381E0809368
:10124000120380910D03882399F0F8948091FF0296
:1012500090910003A0910103B091020378948093D0
:10126000090390930A03A0930B03B0930C0308C0E7
:101270001092090310920A0310920B0310920C03B0
:1012800080911203882399F0F89480910303909140
:101290000403A0910503B0910603789480930E0394
:1012A00090930F03A0931003B093110308C0109202
:1012B0000E0310920F0310921003109211038091ED
:1012C00008038195809376018093770120918400B3
:1012D000E0918500F8944091720150917301609102
:1012E00074017091750178948091840080918500DB
:1012F0008E1760F33CC0232BE9F090910803892FEF
:101300008195809376019093770120918400E091FC
:101310008500F894409172015091730160917401BD
:1013200070917501789480918400809185008E176A
:1013300060F31DC083FF2FC0809108038093760166
:1013400081958093770120918400E0918500F89445
:101350004091720150917301609174017091750117
:10136000789480918400809185008E1760F39E2F81
:1013700080E030E0822B932BA0E0B0E0840F951F3B
:10138000A61FB71F8093260390932703A0932803DB
:10139000B0932903089520918400E0918500F8948A
:1013A00040917201509173016091740170917501C7
:1013B000789480918400809185008E1760F39E2F31
:1013C00080E030E0822B932BA0E0B0E0840F951FEB
:1013D000A61FB71F8093260390932703A09328038B
:1013E000B0932903109276011092770180910D033A
:1013F000882301F1F8948091FF0290910003A0915D
:101400000103B091020378942091090330910A03FB
:1014100040910B0350910C03821B930BA40BB50B53
:101420008093090390930A03A0930B03B0930C03DA
:1014300010920D0380911203882301F1F89480919A
:10144000030390910403A0910503B09106037894DF
:1014500020910E0330910F0340911003509111031E
:10146000821B930BA40BB50B80930E0390930F0379
:10147000A0931003B09311031092120380911D03E7
:101480008F7E80931D030895CF92DF92EF92FF929B
:101490000F931F93DF93CF93CDB7DEB7E0970FB6CF
:1014A000F894DEBF0FBECDBFDE011196E5E3F1E09B
:1014B00080E301900D928150E1F713E0E12EF12CD1
:1014C000EC0EFD1E00E010E06E010894C11CD11C62
:1014D000C801880F991F800F911F8C0D9D1D0E94C0
:1014E0009D0AF701608170E080E090E020EA36E834
:1014F00041E050E00E94BE140E9485000F5F1F4F24
:1015000083E090E0E80EF91E0031110509F710EEB6
:10151000812F0E944F051E5F1C3ED1F7E0960FB64B
:10152000F894DEBF0FBECDBFCF91DF911F910F9119
:10153000FF90EF90DF90CF9008951F93CF93DF93AC
:10154000EC0110E09981943609F0CEC011E0888159
:101550008035E1F0813550F48B3409F4C3C08F3409
:1015600009F4B5C0893409F0BFC0ACC0823639F087
:10157000833641F0813609F0B7C082E304C090930E
:101580000803B2C08FE780930803AEC080910D03BB
:10159000882301F1F8948091FF0290910003A091BB
:1015A0000103B091020378942091090330910A035A
:1015B00040910B0350910C03821B930BA40BB50BB2
:1015C0008093090390930A03A0930B03B0930C0339
:1015D00010920D0380911203882301F1F8948091F9
:1015E000030390910403A0910503B091060378943E
:1015F00020910E0330910F0340911003509111037D
:10160000821B930BA40BB50B80930E0390930F03D7
:10161000A0931003B09311031092120310920703CA
:10162000109276011092770120911D032F7D209357
:101630001D0322FF03C0A0E0B1E038C0A3E1B1E088
:1016400012C0E0910E029E2F9F5F903609F490E049
:1016500080910D02981731F0F0E0E557FE4F32A36C
:1016600090930E0211963C91332359F78091C1005B
:1016700080628093C1001092200310921F03109289
:101680001E0324602D7F1BC0E0910E029E2F9F5FE2
:10169000903609F490E080910D02981731F0F0E057
:1016A000E557FE4F32A390930E0211963C913323DF
:1016B00059F78091C10080628093C1002B7F2093F5
:1016C0001D0312C09CEA9093890083E604C096EB48
:1016D0009093890089E58093880090938B00809394
:1016E0008A0002C00E94440A8881843449F185340A
:1016F00018F4813429F41AC0833571F0873511F05C
:1017000011E02AC08091070381FD25C0112311F04B
:1017100081601FC08E7F1DC08091070380FD1BC0AC
:10172000112311F0826015C08D7F13C080910703D3
:1017300083FD11C0112311F084600BC08B7F09C0A1
:101740008091070382FD07C0112311F0886001C05A
:10175000877F8093070310E00E94F907812FDF91B4
:10176000CF911F910895FF920F931F93109107033C
:1017700080910803113021F4F82FE82FE15004C0C4
:10178000F82FF195E1E0E81BF0901203FF20B9F08B
:10179000F894209103033091040340910503509184
:1017A0000603789480910E0390910F03A09110038B
:1017B000B0911103281B390B4A0B5B0B08C0209119
:1017C0000E0330910F034091100350911103B901A2
:1017D00000910D030023B9F0F8942091FF0230919D
:1017E0000003409101035091020378948091090312
:1017F00090910A03A0910B03B0910C03281B390BA5
:101800004A0B5B0B08C02091090330910A034091F9
:101810000B0350910C0340911D03CB01821B930BD2
:1018200044FD1EC097FF03C0909581959F4F05977B
:101830000CF45FC0621773071CF4113059F405C033
:10184000261737073CF4123029F4E0937601F09321
:10185000770104C0F0937601E093770140610DC0F9
:1018600097FF03C0909581959F4F05970CF441C059
:10187000F0937601F09377014F7E40931D03FF2094
:1018800099F0F8948091030390910403A0910503CB
:10189000B0910603789480930E0390930F03A09366
:1018A0001003B093110308C010920E0310920F039F
:1018B0001092100310921103002399F0F894809174
:1018C000FF0290910003A0910103B091020378946C
:1018D0008093090390930A03A0930B03B0930C0326
:1018E00008C01092090310920A0310920B03109281
:1018F0000C031F910F91FF900895CF92DF92EF920A
:10190000FF920F931F93CF93DF937C01EB01909194
:101910000703892F8150823008F096C0913011F072
:1019200086EE01C080EE182F082F0A5F812F0E94DB
:101930004F0520E04F9708F421E01E5F101719F0C3
:101940002223A1F303C0222309F447C080911D0381
:1019500085FD41C0806280931D0380912303813007
:10196000A9F5488159816A817B81F701C080D180C6
:10197000E280F380F0918400E0918500F89400917A
:101980007201109173012091740130917501789466
:1019900080918400809185008E1760F34C0D5D1D51
:1019A0006E1D7F1D401B510B620B730B9E2F80E041
:1019B0002F2F30E0822B932BA0E0B0E0481B590B77
:1019C0006A0B7B0B488359836A837B831092760171
:1019D0001092770139C02223B9F580911D0385FF4C
:1019E00033C08F7D80931D0360E075E38CE090E051
:1019F0000E9485000E94F90780912303813021F520
:101A000020918400E0918500F894409172015091FA
:101A100073016091740170917501789480918400D4
:101A2000809185008E1760F39E2F80E030E0822B3E
:101A3000932BA0E0B0E0840F951FA61FB71FF701FE
:101A400080839183A283B383DF91CF911F910F9104
:101A5000FF90EF90DF90CF9008952F923F924F929A
:101A60005F926F927F928F929F92AF92BF92CF922E
:101A7000DF92EF92FF920F931F93DF93CF93CDB737
:101A8000DEB76A970FB6F894DEBF0FBECDBF1A82DD
:101A900010920703109220038FE7809308031B82A4
:101AA0001C821D821E821F82188619861A8681E07A
:101AB00080931D0380911703882301F1F89480918E
:101AC000FF0290910003A0910103B091020378946A
:101AD0002091130330911403409115035091160384
:101AE000821B930BA40BB50B8093130390931403E9
:101AF000A0931503B09316031092170380911C0353
:101B0000882301F1F8948091030390910403A0913C
:101B10000503B091060378942091180330911903BE
:101B200040911A0350911B03821B930BA40BB50B1E
:101B30008093180390931903A0931A03B0931B0387
:101B400010921C0310922603109227031092280370
:101B5000109229036091840050918500F894E090E0
:101B60007201F090730100917401109175017894E5
:101B70008091840080918500851760F3F89403C0FC
:101B800078940000F89480918001909181018050B8
:101B90009440B1F32091800130918101789400004C
:101BA0008091330190913401281B390B2F5F314014
:101BB00011F040E001C04FEF952F80E0262F30E07C
:101BC000822B932B4C01AA24BB248E0C9F1CA01E9D
:101BD000B11E40932A0396EB909389008FE4809383
:101BE000880090938B0080938A00DD24CC24C394DA
:101BF00080911D0383FD87C580FF07C08091070387
:101C00008150823010F40E94B30B80911D0382FF3B
:101C100055C09091840060918500F89420917201E4
:101C200030917301409174015091750178948091C5
:101C3000840080918500861760F3281939094A09C4
:101C40005B096C871B86892F90E06B857C85862BD2
:101C5000972BA0E0B0E0280F391F4A1F5B1F205BC5
:101C600031474B40504050F1909184006091850085
:101C7000F894209172013091730140917401509158
:101C8000750178948091840080918500861760F3B7
:101C90006E871D86892F90E0ED85FE858E2B9F2B0C
:101CA0004C01AA24BB24820E931EA41EB51ECE0195
:101CB0000796BE016D5F7F4F0E947D0C80911D03D2
:101CC00082FFADC385FDABC380911E0390911F03BE
:101CD000892B09F4F1C180912303863078F4843094
:101CE00008F0F9C08130A1F0813008F4E5C18230FC
:101CF00009F441C0833009F092C394C0873009F4DD
:101D000067C1873008F401C1883009F088C395C1E4
:101D10007091840060918500F89420917201309157
:101D20007301409174015091750178948091840001
:101D300080918500861760F38F819885A985BA8583
:101D4000281B390B4A0B5B0B562E4424872F90E03F
:101D500084299529A0E0B0E0280F391F4A1F5B1F96
:101D60008B819C81AD81BE81281739074A075B07AB
:101D700008F455C3A1C120912403283009F0A1C45F
:101D800080918801882309F49CC4F0918400E0913B
:101D90008500F89440917201509173016091740133
:101DA00070917501789480918400809185008E17E0
:101DB00060F38091260390912703A0912803B091AE
:101DC0002903481B590B6A0B7B0B3E2E22248F2FB5
:101DD00090E082299329A0E0B0E0480F591F6A1FC4
:101DE0007B1F405A55426642704008F46AC464C181
:101DF00078940000F8948081918180509440C1F3E0
:101E000020813181789400008091330190913401D8
:101E1000281B390B8091250390E0281739070CF413
:101E2000FEC24AC120912403283009F052C4809197
:101E30008801882309F04DC4F0918400E091850069
:101E4000F894409172015091730160917401709106
:101E50007501789480918400809185008E1760F3DD
:101E60008091260390912703A0912803B091290324
:101E7000481B590B6A0B7B0BE88B1F868F2F90E05A
:101E8000EF85F8898E2B9F2BA0E0B0E0480F591FFB
:101E90006A1F7B1F405A55426642704008F419C4BD
:101EA0000BC178940000F894808191818050944017
:101EB000C1F32081318178940000809133019091A9
:101EC0003401281B390B8091250390E0821793077A
:101ED0000CF4A5C2F1C0843061F4809124030E9407
:101EE0004F052091250330E08217930708F497C22D
:101EF000E3C0809124030E944F052091250330E028
:101F00002817390708F48BC2D7C080911C03882397
:101F1000B9F0F894E0900303F090040300910503F6
:101F20001091060378948091180390911903A09161
:101F30001A03B0911B03E81AF90A0A0B1B0B08C01D
:101F4000E0901803F090190300911A0310911B03FD
:101F5000809117038823B9F0F8942091FF02309103
:101F60000003409101035091020378948091130380
:101F700090911403A0911503B0911603281B390BFF
:101F80004A0B5B0B08C0209113033091140340915E
:101F9000150350911603B701A90137FF03C05095EF
:101FA00041955F4F9B0177FF03C0309521953F4FCF
:101FB000420F531F55954795609124036A8B198AE8
:101FC0002091250330E089899A89282B392B69C013
:101FD000809117038823B9F0F8942091FF02309183
:101FE0000003409101035091020378948091130300
:101FF00090911403A0911503B0911603281B390B7F
:102000004A0B5B0B08C020911303309114034091DD
:10201000150350911603A90137FF03C05095419550
:102020005F4F909124039C8B1B8A2091250330E005
:10203000EB89FC892E2B3F2B34C080911C03882315
:10204000B9F0F89420910303309104034091050303
:102050005091060378948091180390911903A091F0
:102060001A03B0911B03281B390B4A0B5B0B08C0EA
:10207000209118033091190340911A0350911B03CA
:10208000A90137FF03C0509541955F4FF09124039C
:10209000FE8B1D8A2091250330E06D897E89262BD9
:1020A000372BC901880F991F880F991F820F931F23
:1020B0004817590708F4B3C180911703882301F129
:1020C000F8948091FF0290910003A0910103B091D8
:1020D0000203789420911303309114034091150367
:1020E00050911603821B930BA40BB50B8093130323
:1020F00090931403A0931503B09316031092170343
:1021000080911C03882301F1F8948091030390913E
:102110000403A0910503B09106037894209118035D
:102120003091190340911A0350911B03821B930BAA
:10213000A40BB50B8093180390931903A0931A0373
:10214000B0931B0310921C0360911E0370911F0338
:1021500081E293E00E94210520911E0330911F032C
:102160002B5F3F4F30931F0320931E038091210369
:10217000882389F480912203882369F470912403D1
:10218000788F1F8A8091250390E0EF89F88D8E2B40
:102190009F2B892B29F02F3F310509F008F4A1C2AC
:1021A00080911D038B7F80931D03AFE1B1E012C0CE
:1021B000E0910E029E2F9F5F903609F490E080918F
:1021C0000D02981731F0F0E0E557FE4F22A39093EF
:1021D0000E0211962C91222359F78091C100806242
:1021E0008093C100109276011092770180910D03C7
:1021F000882301F1F8948091FF0290910003A0914F
:102200000103B091020378942091090330910A03ED
:1022100040910B0350910C03821B930BA40BB50B45
:102220008093090390930A03A0930B03B0930C03CC
:1022300010920D0380911203882301F1F89480918C
:10224000030390910403A0910503B09106037894D1
:1022500020910E0330910F03409110035091110310
:10226000821B930BA40BB50B80930E0390930F036B
:10227000A0931003B093110310921203109207035E
:10228000B7CC9091840060918500F8942091720100
:10229000309173014091740150917501789480914F
:1022A000840080918500861760F36A8F198E892FCC
:1022B00090E0698D7A8D862B972BA0E0B0E0820F9D
:1022C000931FA41FB51F8F839887A987BA87709023
:1022D000240366246091250370E06629772980E055
:1022E00090E020E533EC40E050E00E94BE1496956B
:1022F0008795779567956B837C838D839E838AC052
:102300008650833008F086C080911C03882399F0A2
:10231000F8948091030390910403A0910503B09178
:10232000060378948093180390931903A0931A03DB
:10233000B0931B0308C01092180310921903109257
:102340001A0310921B0380911703882399F0F894C5
:102350008091FF0290910003A0910103B0910203CC
:1023600078948093130390931403A0931503B09370
:10237000160308C010921303109214031092150351
:102380001092160380911703882301F5F894809129
:10239000FF0290910003A0910103B0910203789491
:1023A00020911303309114034091150350911603AB
:1023B000821B930BA40BB50B809313039093140310
:1023C000A0931503B0931603C092170380911C03CA
:1023D000882301F5F8948091030390910403A09160
:1023E0000503B091060378942091180330911903E6
:1023F00040911A0350911B03821B930BA40BB50B46
:102400008093180390931903A0931A03B0931B03AE
:10241000C0921C03809120038F5F809320039091D2
:10242000AB018091AC01981709F4E2CBE091AB01CC
:10243000F0E0E557FE4F90818091AB018F5F8032D5
:1024400009F480E08093AB01E1E0F0E0EC0FFD1FC8
:10245000ED0DF11D9083D39471E07D1528F4CE012C
:1024600001960E949D0A2BC19C3109F0AFC0D39404
:10247000E1E0F0E0EC0FFD1FED0DF11D80E3808346
:1024800092E0D916A1F780E090E0F999FECF92BDD5
:1024900081BD10BCFA9AF99A0196E2E080309E075D
:1024A000A1F7E0910E029E2F9F5F903609F490E015
:1024B00080910D02981739F0F0E0E557FE4F2DE1BD
:1024C00022A390930E028091C10080628093C1008C
:1024D00010921F0310921E039091AB018091AC01EA
:1024E0009817D1F3E091AB01F0E0E557FE4FE081A2
:1024F0008091AB018F5F803209F480E08093AB0163
:10250000EE3179F420911E0330911F03C90165E07B
:1025100070E00E94DD14892B09F4CDC0232B39F51E
:10252000CAC0E63121F520911E0330911F03C90175
:1025300065E070E00E94DD14892B11F0232BB9F4C3
:102540004FEF50E050931F0340931E03E0910E02A3
:102550009E2F9F5F903609F490E080910D029817AE
:1025600079F1F0E0E557FE4F5FE152A327C080917B
:102570001E0390911F03F999FECF92BD81BDE0BD6E
:10258000FA9AF99A019690931F0380931E0365E0CF
:1025900070E00E94DD14892B09F09ECFE0910E02BD
:1025A0009E2F9F5F903609F490E080910D0298175E
:1025B00039F0F0E0E557FE4F6FE162A390930E0211
:1025C0008091C10080628093C10086CF963109F06E
:1025D0000FCBD394E1E0F0E0EC0FFD1FED0DF11D0A
:1025E00070E3708382E0D816A1F7E0910E029E2F6F
:1025F0009F5F903609F490E080910D02981739F0B2
:10260000F0E0E557FE4F27E122A390930E02809160
:10261000C10080628093C10010921F0310921E03BC
:102620002BC090910D0280910E029817D1F7F99965
:10263000FECF32BD21BDF89A20B5E0910E029E2F4B
:102640009F5F903609F490E080910D02981731F069
:10265000F0E0E557FE4F22A390930E028091C10057
:1026600080628093C10080911E0390911F030196A8
:1026700090931F0380931E0320911E0330911F032C
:1026800042E02030340768F2E0910E029E2F9F5FF7
:10269000903609F490E080910D02981739F0F0E03F
:1026A000E557FE4F58E152A390930E028091C1006E
:1026B00080628093C10010921F0310921E03DD24DC
:1026C00097CAF894E22FF0E0EE0FFF1FE858FE4F94
:1026D00092CBF894E22FF0E0EE0FFF1FE858FE4F88
:1026E000E3CB81E293E00E949D0A1B821C821D8243
:1026F0001E821F82188619861A86809123038130D4
:1027000009F0FECDBECDFFCF84B1866084B91092B2
:102710008500109284009FEB909387008FEF809349
:102720008600909389008093880090938B0080931B
:102730008A0082EF809380008AE18093810081E0AB
:1027400080936F0017BC18BC80936E0081EF84BD2E
:102750001092B3001092B400109270001092B60064
:102760008093B00022E025BD2093B10083E883BDB3
:1027700016BC1092B20083E083BD239A8AB18866AA
:102780008AB988E080937E0083E480937C00109275
:102790007B008FED80937A0087B1876087B93B9883
:1027A00080E094E0909379018093780190937B018D
:1027B00080937A0190937D0180937C0190937F01B7
:1027C00080937E0190938101809380019093830197
:1027D0008093820190938501809384019093870177
:1027E0008093860157985F982093C00086E080937D
:1027F000C2001092C50080E48093C40088E98093F1
:10280000C10081E18093B8001092B9001092BD0020
:102810001092BA0085EC8093BC00289AEDE6F0E0B7
:10282000808184608083EBE6F0E080818062808339
:1028300085E08BBB8093680078940E942D0DF894FE
:102840001092680010926D0010926B002898109200
:10285000BC001092C1001092C0001092C2005798A4
:102860005F9810927A0087B1807F87B914BC15BC3D
:102870001092B0001092B10010928100109280006E
:1028800084B1897F84B9FFE1E1E8099480E090E0B8
:1028900008951092AB011092AC0110920D021092AB
:1028A0000E0210924F02109250021092910210925A
:1028B00092021092C3021092C4021092F50210927A
:1028C000F6021092F8021092F7021092FB02109298
:1028D000FD02F8948091FF0290910003A091010302
:1028E000B091020378948093090390930A03A09314
:1028F0000B03B0930C0381E080930D03F894809157
:10290000030390910403A0910503B091060378940A
:1029100080930E0390930F03A0931003B0931103C1
:1029200081E080931203F8948091FF02909100035C
:10293000A0910103B09102037894809313039093C4
:102940001403A0931503B093160381E0809317033B
:10295000F8948091030390910403A0910503B09132
:10296000060378948093180390931903A0931A0395
:10297000B0931B0381E080931C030895629FD001F4
:10298000739FF001829FE00DF11D649FE00DF11D2A
:10299000929FF00D839FF00D749FF00D659FF00DD9
:1029A0009927729FB00DE11DF91F639FB00DE11DC6
:1029B000F91FBD01CF0111240895AA1BBB1B51E1D2
:1029C00007C0AA1FBB1FA617B70710F0A61BB70B9F
:1029D000881F991F5A95A9F780959095BC01CD0144
:1029E0000895EE0FFF1F0590F491E02D0994F894DF
:0229F000FFCF17
:1029F200506C61796261636B2073746F707065648F
:102A02000D0A00506C6179696E672E2E0D0A005016
:102A12006C61796261636B2066696E697368656473
:102A22000D0A0000025764004464055775005364A0
:102A32000A537500576405447500416405577500D3
:102A420053640A5375005764054175005775004970
:102A520064054F6400747E7A3305040001020306A4
:022A620007006B
:00000001FF
