:100000000C9435000C945D000C945D000C9440043D
:100010000C945D000C94FC030C945D000C945D004A
:100020000C945D000C945D000C945D000C945D00DC
:100030000C945D000C945F000C945D000C945D00CA
:100040000C9485000C945D000C947C010C94BC0114
:100050000C945D000C94FB000C945D000C945D000E
:100060000C94EA010C945D003F1911241FBECFEFE0
:10007000D4E0DEBFCDBF12E0A0E0B1E0E4ECF4E3F9
:1000800002C005900D92AA32B107D9F713E0AAE297
:10009000B2E001C01D92AF3EB107E1F710E0CAE641
:1000A000D0E004C02297FE010E945C1AC836D10736
:1000B000C9F70E947A180C94601A0C9400001F92E1
:1000C0000F920FB60F9211248F939F93AF93BF930C
:1000D00080912A0290912B02A0912C02B0912D02C6
:1000E00080509044AF4FBF4F80932A0290932B02D1
:1000F000A0932C02B0932D02BF91AF919F918F914D
:100100000F900FBE0F901F9018951F920F920FB671
:100110000F9211248F939F938091EE038F5F8093B2
:10012000EE03833009F049C01092EE0390912E0245
:100130008091ED03891701F1891714F48F5F01C0D5
:1001400081508093ED039091ED03992319F410925F
:10015000B30010C097FF0AC01092B3008EEF980250
:10016000C00111248F5F8093B40006C0990F9F5F78
:100170009093B3001092B40090912F028091EC0301
:100180008917D9F0891714F48F5F01C081508093CB
:10019000EC039091EC03992311F417BC0DC01916D0
:1001A0002CF417BC990F9F5F98BD07C08EEF980283
:1001B000C00111248F5F87BD18BC9F918F910F9054
:1001C0000FBE0F901F90189581E0809340028091A0
:1001D0004202882379F48091E803803218F45F9A10
:1001E000579A02C057985F9890E001968F7390706D
:1001F0008093E80308951F920F920FB60F92112477
:100200000F931F932F933F934F935F936F937F931E
:100210008F939F93AF93BF93EF93FF930091EA0364
:10022000002309F44DC03091780020917900922F7D
:1002300080E0232F30E0282B392B1091EB03E12FA6
:10024000F0E0EF5DFD4FE081F0E0EE0FFF1FE05DBD
:10025000FD4F31832083163051F52C5B324018F46A
:100260000E94E40024C01092400280914202882340
:10027000F1F480914102882371F08091400288233B
:1002800031F480914202882311F45F9A579A81E0F9
:10029000809341020CC080914002882331F4809108
:1002A0004202882311F457985F9A10924102912FCD
:1002B0009F5F97709093EB0388B1887F982B98B9D4
:1002C00081E008270093EA0380917A00806480939C
:1002D0007A00FF91EF91BF91AF919F918F917F91A4
:1002E0006F915F914F913F912F911F910F910F90BF
:1002F0000FBE0F901F9018951F920F920FB60F927E
:1003000011242F938F939F93EF93FF932091C60017
:100310009091E903E92FF0E0E35EFD4F808128171B
:1003200071F4892F8F5F8093E903843051F4F8943E
:1003300088E18093600088E080936000FFCF109296
:10034000E903E09164029E2F9F5F903209F490E0F0
:1003500080916302981731F0F0E0ED5BFD4F208350
:1003600090936402FF91EF919F918F912F910F9045
:100370000FBE0F901F9018951F920F920FB60F92FD
:1003800011248F939F93EF93FF939091C5028091D7
:10039000C602981789F0E091C502F0E0ED5BFD4FD1
:1003A00092A18091C5028F5F803609F480E080932E
:1003B000C5029093C60005C08091C1008F7D8093D7
:1003C000C100FF91EF919F918F910F900FBE0F9001
:1003D0001F9018951F920F920FB60F9211242F9312
:1003E0003F934F935F936F937F938F939F93AF93BD
:1003F000BF93EF93FF93DF93CF93CDB7DEB72997EA
:10040000DEBFCDBF2091B900287F283209F459C042
:10041000293278F4203101F1213120F4283009F01B
:10042000F1C01AC0283109F44CC0203209F0EAC0EA
:1004300048C0283409F4B8C0293438F4203309F40A
:1004400040C0203409F0DEC089C0203509F46DC0F9
:10045000283509F0D7C08FC090917B0380917C0331
:10046000981709F4CFC080917B0390E0FC01EE0F58
:10047000FF1FE80FF91FDE011496E55BFC4F83E0D8
:1004800001900D928150E1F7DE011196FE01349644
:1004900083E001900D928150E1F7A4EBB3E0FE01FF
:1004A000319683E001900D928150E1F780917B03BA
:1004B0008F5F803109F480E080937B038091B403E7
:1004C00037C19091B6038091B5039817B9F438C13C
:1004D0008091AD03281709F48DC0892F90E0FC01AD
:1004E000EE0FFF1FE80FF91FE358FC4FDE011796D0
:1004F00083E00D9001928150E1F77AC0E09107030B
:10050000F0E0E953FD4F80818093BB0085EC809340
:10051000BC00809107038F5F803409F480E08093F2
:1005200007039F5F9093B6031DC12091BB00E0912C
:100530004A039E2F9F5F903409F490E08091490315
:10054000981709F4F9C0F0E0E75FFC4F208390931F
:100550004A038091B6038F5F8093B6032091B60360
:1005600030E02F5F3F4F8091B50390E028173907A7
:100570000CF09DC0DFC02091BB00E0914A039E2F8C
:100580009F5F903409F490E080914903981709F433
:10059000D3C0F0E0E75FFC4F208390934A03809143
:1005A000B6038F5F8093B603DE011796E4EBF3E0AA
:1005B00083E001900D928150E1F79091AE03292FD5
:1005C0002F5F203109F420E08091AD03281791F0CE
:1005D000892F90E0FC01EE0FFF1FE80FF91FE35891
:1005E000FC4FDE01179683E00D9001928150E1F7F8
:1005F0002093AE0390917B0380917C03981709F0C0
:1006000084C09AC0203979F1213970F42037F1F093
:10061000213720F4203609F08FC018C0203819F196
:10062000283809F089C045C0283A09F470C0293A31
:1006300030F42839F1F1203A09F07EC03AC0283B65
:1006400009F465C0203C09F077C059C081E080936F
:10065000B4038091B3038093B5031092B60388234B
:1006600009F068C024C02091BB00E0914A039E2F8E
:100670009F5F903409F490E080914903981761F0EE
:10068000F0E0E75FFC4F208390934A038091B6032C
:100690008F5F8093B60304C08091B6038093B50347
:1006A0009091B6038091B503981709F043C085E88F
:1006B00044C0DE011796E4EBF3E083E001900D9275
:1006C0008150E1F79091AE03292F2F5F203109F47B
:1006D00020E08091AD03281791F0892F90E0FC0174
:1006E000EE0FFF1FE80FF91FE358FC4FDE011796CE
:1006F00083E00D9001928150E1F72093AE03909139
:100700007B0380917C039817A9F085EE16C0809139
:10071000AF039091B003892B11F48FEF09C0E091E2
:10072000AF03F091B0038091B1039091B2030995AA
:100730008093BB0085EC01C085ED8093BC0012C0A6
:10074000DE011796E4EBF3E083E001900D92815017
:10075000E1F79091AE03292F2F5F203109F0B8CE39
:1007600020E0B6CE2996DEBFCDBFCF91DF91FF91BD
:10077000EF91BF91AF919F918F917F916F915F9119
:100780004F913F912F910F900FBE0F901F90189592
:10079000EF92FF920F931F93209184009091850018
:1007A000F894E0902A02F0902B0200912C02109114
:1007B0002D0278948091840080918500891760F3E0
:1007C000792F60E030E0622B732B80E090E06E0DBB
:1007D0007F1D801F911F660F771F881F991F25E0BF
:1007E00030E040E050E00E941D1ACA01B9011F919B
:1007F0000F91FF90EF9008951F920F920FB60F92F6
:1008000011242F933F938F939F93AF93BF9389B1FD
:1008100090E09C01B4E036952795BA95E1F796955E
:10082000879596958795822780FD0CC08091B703A8
:100830009091B803A091B903B091BA030197A109AF
:10084000B1090BC08091B7039091B803A091B9038F
:10085000B091BA030196A11DB11D8093B703909387
:10086000B803A093B903B093BA03BF91AF919F911E
:100870008F913F912F910F900FBE0F901F90189561
:100880001F920F920FB60F9211242F933F938F93C5
:100890009F93AF93BF9383B190E09C01A4E0369502
:1008A0002795AA95E1F735E0969587953A95E1F772
:1008B000822780FD0CC08091BB039091BC03A09166
:1008C000BD03B091BE030197A109B1090BC080918E
:1008D000BB039091BC03A091BD03B091BE030196F0
:1008E000A11DB11D8093BB039093BC03A093BD03D6
:1008F000B093BE03BF91AF919F918F913F912F9184
:100900000F900FBE0F901F901895F8942091B70389
:100910003091B8034091B9035091BA037894B9016A
:10092000CA010895F8942091BB033091BC03409113
:10093000BD035091BE037894B901CA010895EDE654
:10094000F0E0808184608083EBE6F0E0808180626B
:10095000808385E08BBB8093680008950895109292
:10096000680010926D0010926B000895DC019B01ED
:1009700080E090E0FD01E80FF91FE081F999FECFDA
:1009800032BD21BDE0BDFA9AF99A01962F5F3F4F23
:100990008230910579F7CB01029612962C9112972D
:1009A000F999FECF92BD81BD20BDFA9AF99ACB018B
:1009B000039613962C911397F999FECF92BD81BDA2
:1009C00020BDFA9AF99A6C5F7F4F14968C91F99931
:1009D000FECF72BD61BD80BDFA9AF99A0895DC011F
:1009E000F999FECFAB0120E030E0F999FECF52BD7E
:1009F00041BDF89A80B5FD01E20FF31F80832F5FA0
:100A00003F4F4F5F5F4F2230310579F7CB010296A0
:100A1000F999FECF92BD81BDF89A80B512968C935C
:100A20001297CB010396F999FECF92BD81BDF89A3A
:100A300080B513968C9313976C5F7F4FF999FECF17
:100A400072BD61BDF89A80B514968C930895CF92CB
:100A5000DF92EF92FF920F931F93DF93CF93CDB767
:100A6000DEB7AC970FB6F894DEBF0FBECDBFC82E71
:100A70001A821982BEEFDB2ED8222981E091080369
:100A80009E2F9F5F903409F490E0809107039817A0
:100A900011F490E01AC0F0E0E953FD4F20839093E9
:100AA0000803E09108039E2F9F5F903409F490E0C3
:100AB00080910703981711F491E007C0F0E0E95323
:100AC000FD4F60839093080392E0FE01B79683E0A8
:100AD000DF011D928A95E9F798A7DFA2DE019A96B9
:100AE00083E001900D928150E1F790917C03292FD2
:100AF0002F5F203109F420E080917B03281791F0CB
:100B0000892F90E0FC01EE0FFF1FE80FF91FE55B56
:100B1000FC4FDE019A9683E00D9001928150E1F73F
:100B200020937C0385EE8093BC009091AD0380916F
:100B3000AE039817D1F38091AD0390E0FC01EE0F66
:100B4000FF1FE80FF91FDE011F96E358FC4F83E0FB
:100B500001900D928150E1F7DE011C96FE013F9657
:100B600083E001900D928150E1F7DE019A96FE013B
:100B70003C9683E001900D928150E1F78091AD03A6
:100B80008F5F803109F480E08093AD03DE015296DF
:100B9000FE01BA9683E001900D928150E1F7DE01EB
:100BA0001396FE01729683E001900D928150E1F759
:100BB0008D81823009F037C22091840040918500F8
:100BC000F894E0902A02F0902B0200912C021091F0
:100BD0002D0278948091840080918500841760F3C1
:100BE000942F80E030E0822B932BA0E0B0E022270E
:100BF0003327A901281B390B4A0B5B0B2E193F0920
:100C0000400B510B90918400E0918500F894E090A6
:100C10002A02F0902B0200912C0210912D02789460
:100C200080918400809185008E1760F37E2F60E0B4
:100C3000892F90E0862B972BA0E0B0E08E0D9F1DB2
:100C4000A01FB11F820F931FA41FB51F885A914682
:100C5000A040B040B8F2E09108039E2F9F5F90340F
:100C600009F490E080910703981711F490E008C010
:100C7000F0E0E953FD4F82E080839093080391E018
:100C8000FE01BA9683E0DF011D928A95E9F7DAA6A4
:100C90009BA7DE01979683E001900D928150E1F7CA
:100CA00090917C03292F2F5F203109F420E080915F
:100CB0007B03281791F0892F90E0FC01EE0FFF1FB6
:100CC000E80FF91FE55BFC4FDE01979683E00D907E
:100CD00001928150E1F720937C0385EE8093BC0064
:100CE0009091AD038091AE039817D1F38091AD033D
:100CF00090E0FC01EE0FFF1FE80FF91FDE01589690
:100D0000E358FC4F83E001900D928150E1F7DE0142
:100D10005596FE01789683E001900D928150E1F79F
:100D2000DE019796FE01759683E001900D92815049
:100D3000E1F78091AD038F5F803109F480E080930B
:100D4000AD03DE015B96FE01B79683E001900D9244
:100D50008150E1F7DE011696FE017B9683E001905B
:100D60000D928150E1F79885913009F05CC1FE0148
:100D7000B79683E0DF011D928A95E9F73C2D31603B
:100D800098A73FA3DE019A9683E001900D928150CF
:100D9000E1F790917C03292F2F5F203109F420E0A7
:100DA00080917B03281791F0892F90E0FC01EE0FD2
:100DB000FF1FE80FF91FE55BFC4FDE019A9683E009
:100DC0000D9001928150E1F720937C0385EE809392
:100DD000BC009091AD038091AE039817D1F3809140
:100DE000AD038091AD038F5F803109F480E0809383
:100DF000AD035091BB00E09108039E2F9F5F90349C
:100E000009F490E080910703981711F490E008C06E
:100E1000F0E0E953FD4F83E080839093080391E075
:100E2000FE01BA9683E0DF011D928A95E9F7DAA602
:100E30009BA7DE01979683E001900D928150E1F728
:100E400090917C03292F2F5F203109F420E08091BD
:100E50007B03281791F0892F90E0FC01EE0FFF1F14
:100E6000E80FF91FE55BFC4FDE01979683E00D90DC
:100E700001928150E1F720937C0385EE8093BC00C2
:100E80009091AD038091AE039817D1F38091AD039B
:100E900090E0FC01EE0FFF1FE80FF91FDE019196B5
:100EA000E358FC4F83E001900D928150E1F7DE01A1
:100EB0005E96FE01B19683E001900D928150E1F7BC
:100EC000DE019796FE017E9683E001900D9281509F
:100ED000E1F78091AD038F5F803109F480E080936A
:100EE000AD03DE019496FE01B79683E001900D926A
:100EF0008150E1F7DE011996FE01B49683E001907E
:100F00000D928150E1F79B85913009F08CC0FE0174
:100F1000B79683E0DF011D928A95E9F798A73FA372
:100F2000DE019A9683E001900D928150E1F7909155
:100F30007C03292F2F5F203109F420E080917B036F
:100F4000281791F0892F90E0FC01EE0FFF1FE80FAA
:100F5000F91FE55BFC4FDE019A9683E00D9001924C
:100F60008150E1F720937C0385EE8093BC00909143
:100F7000AD038091AE039817D1F38091AD038091BA
:100F8000AD038F5F803109F480E08093AD03409121
:100F9000BB001092BC0008C0809107038F5F8034B3
:100FA00009F480E080930703909107038091080380
:100FB000981791F708C0809149038F5F803409F436
:100FC00080E0809349039091490380914A039817E8
:100FD00091F708C08091AD038F5F803109F480E004
:100FE0008093AD039091AD038091AE03981791F774
:100FF00008C080917B038F5F803109F480E080938B
:101000007B0390917B0380917C03981791F728E0F4
:1010100030E002C0220F331F5A95E2F7842F90E090
:10102000282B392B02C020E030E0C901AC960FB666
:10103000F894DEBF0FBECDBFCF91DF911F910F910E
:10104000FF90EF90DF90CF900895FF920F931F9342
:101050001091BF038091C003113021F4F82FE82FC5
:10106000E15004C0F82FF195E1E0E81BF090D403C3
:10107000FF20B9F0F8942091BB033091BC0340915C
:10108000BD035091BE0378948091D0039091D10319
:10109000A091D203B091D303281B390B4A0B5B0BF1
:1010A00008C02091D0033091D1034091D2035091D8
:1010B000D303B9010091CF030023B9F0F894209134
:1010C000B7033091B8034091B9035091BA037894B3
:1010D0008091CB039091CC03A091CD03B091CE032E
:1010E000281B390B4A0B5B0B08C02091CB033091B6
:1010F000CC034091CD035091CE034091DA03CB0154
:10110000821B930B44FD1EC097FF03C090958195F1
:101110009F4F0A970CF45FC0621773071CF41130DD
:1011200059F405C0261737073CF4123029F4E09330
:101130002E02F0932F0204C0F0932E02E0932F02B0
:1011400040610DC097FF03C0909581959F4F0A970E
:101150000CF441C0F0932E02F0932F024F7E409387
:10116000DA03FF2099F0F8948091BB039091BC03BF
:10117000A091BD03B091BE0378948093D003909367
:10118000D103A093D203B093D30308C01092D0032D
:101190001092D1031092D2031092D303002399F03E
:1011A000F8948091B7039091B803A091B903B091DE
:1011B000BA0378948093CB039093CC03A093CD0390
:1011C000B093CE0308C01092CB031092CC031092C0
:1011D000CD031092CE031F910F91FF9008956F924F
:1011E0007F928F929F92AF92BF92CF92DF92EF92B7
:1011F000FF920F931F93DF93CF93CDB7DEB7A097E6
:101200000FB6F894DEBF0FBECDBF5C017B01C42ECC
:101210006115710591F18B0177FF04C0002711273B
:10122000061B170BDD243E010894611C711C86EF20
:10123000882E8FEF982E15C0C8016AE070E00E94DA
:101240000A1AF301ED0DF11D402F405D689DC001AC
:10125000699D900D789D900D1124480F4083D39483
:101260008B011016110644F3F7FE1DC0FE01ED0DB3
:10127000F11D8DE28183D39416C080E38983DD2440
:10128000D39411C02C91922F9F5F903609F490E077
:10129000FA018081981729F0F501E20FF11D32A3C0
:1012A0009C93CA9407C0D501AD57BF4FA5014E57B7
:1012B0005F4F30E2DC1430F315C0FE01ED0DF11D7F
:1012C00030812C91922F9F5F903609F490E0FA01C3
:1012D0008081981729F0F501E20FF11D32A39C934C
:1012E000DA9406C0D501AD57BF4FA5014E575F4FE9
:1012F000DD2019F78091C10080628093C100A09623
:101300000FB6F894DEBF0FBECDBFCF91DF911F9116
:101310000F91FF90EF90DF90CF90BF90AF909F9094
:101320008F907F906F9008952F923F924F925F928F
:101330006F927F928F929F92AF92BF92CF92DF92E5
:10134000EF92FF920F931F93DF93CF93CDB7DEB74A
:10135000A3970FB6F894DEBF0FBECDBF9AA389A3A3
:101360001A012B012BA3411551056105710509F4E3
:1013700046C03A014B0177FF07C06624772443013A
:10138000641A750A860A970A00E02BC0C401B301EB
:101390002AE030E040E050E00E943F1AA22ED32E17
:1013A000C42EB52E91E0E92EF12CEC0EFD1EE00EC0
:1013B000F11C162D105D622F732F842F952F26EFB1
:1013C0003FEF4FEF5FEF0E94D719160FF701108321
:1013D0000F5F2A2D3D2D4C2D5B2DC901DA013C01FB
:1013E0004D01161417041804190484F257FE1FC087
:1013F000FE01E00FF11D8DE281830F5F18C080E3D5
:10140000898301E014C02C91922F9F5F903609F4DC
:1014100090E0FA018081981731F0E9A1FAA1E20F7A
:10142000F11D32A39C93FBA1F150FBA309C0A9A11C
:10143000BAA1AD57BF4F49A15AA14E575F4F30E2F5
:101440008BA1081700F316C0FE01E00FF11D3081DB
:101450002C91922F9F5F903609F490E0FA018081E1
:10146000981731F0E9A1FAA1E20FF11D32A39C9384
:10147000015008C0A9A1BAA1AD57BF4F49A15AA1B7
:101480004E575F4F002301F78091C1008062809327
:10149000C100A3960FB6F894DEBF0FBECDBFCF91AB
:1014A000DF911F910F91FF90EF90DF90CF90BF9051
:1014B000AF909F908F907F906F905F904F903F90F4
:1014C0002F900895AF92BF92DF92EF92FF920F9309
:1014D0001F93DF93CF93CDB7DEB7A0970FB6F894E5
:1014E000DEBF0FBECDBF7C01D42E6115710519F191
:1014F000162F00E05E010894A11CB11C812F972FCC
:101500006AE070E00E94F6199B01F501E00FF11D01
:10151000105DCB01880F991FAB0163E0440F551F8D
:101520006A95E1F7840F951F181B10830F5F122F28
:10153000232B21F715C080E3898301E011C02C9192
:10154000922F9F5F903609F490E0FA0180819817FE
:1015500029F0F701E20FF11D32A39C93DA9407C042
:10156000D701AD57BF4FA7014E575F4F30E20D1562
:1015700030F315C0FE01E00FF11D30812C91922F48
:101580009F5F903609F490E0FA018081981729F066
:10159000F701E20FF11D32A39C93015006C0D70161
:1015A000AD57BF4FA7014E575F4F002319F78091EA
:1015B000C10080628093C100A0960FB6F894DEBF90
:1015C0000FBECDBFCF91DF911F910F91FF90EF9094
:1015D000DF90BF90AF900895CF92DF92EF92FF928D
:1015E0000F931F93DF93CF9300D000D00F92CDB70E
:1015F000DEB76C0100E0FC019181943609F0C7C3AD
:1016000001E080818135D1F0823550F48F3409F4C6
:1016100008C3803508F03FC2833409F0B8C3AFC0B7
:10162000813679F0823620F4823509F0B0C312C0D9
:10163000823649F0833609F0AAC308C0A0E0B1E0C1
:101640005AC082E304C09093C003A1C38FE7809384
:10165000C0039DC38091CA03882399F0F8948091B8
:10166000BB039091BC03A091BD03B091BE037894DD
:101670008093C6039093C703A093C803B093C90394
:1016800008C01092C6031092C7031092C8031092AC
:10169000C9038091C503882399F0F8948091B7031A
:1016A0009091B803A091B903B091BA037894809354
:1016B000C1039093C203A093C303B093C40367C351
:1016C0001092C1031092C2031092C3031092C4037C
:1016D0005EC3E091C6029E2F9F5F903609F490E0B2
:1016E0008091C502981731F0F0E0ED5BFD4F22A329
:1016F0009093C60211962C91222359F78091C10034
:1017000080628093C1008091DA0380FF1CC08E7FCD
:101710008093DA03A6E1B1E012C0E091C6029E2FE9
:101720009F5F903609F490E08091C502981731F0E0
:10173000F0E0ED5BFD4F22A39093C60211962C9131
:10174000222359F7A2C181608093DA03A2E2B1E0BB
:1017500012C0E091C6029E2F9F5F903609F490E080
:101760008091C502981731F0F0E0ED5BFD4F22A3A8
:101770009093C60211962C91222359F786C190911D
:10178000C5028091C6029817D1F710922E021092CE
:101790002F028091CF03882301F1F8948091B70341
:1017A0009091B803A091B903B091BA0378942091B5
:1017B000CB033091CC034091CD035091CE03821BDB
:1017C000930BA40BB50B8093CB039093CC03A09306
:1017D000CD03B093CE031092CF038091D40388231E
:1017E00001F1F8948091BB039091BC03A091BD03DB
:1017F000B091BE0378942091D0033091D1034091F1
:10180000D2035091D303821B930BA40BB50B80938F
:10181000D0039093D103A093D203B093D30310923B
:10182000D4031092BF038091DA0381FD70C08260FF
:101830008093DA031092DD031092DC031092DB0335
:10184000ADE2B1E012C0E091C6029E2F9F5F9036DC
:1018500009F490E08091C502981731F0F0E0ED5B5B
:10186000FD4F22A39093C60211962C91222359F783
:101870008091C10080628093C1008091DA0388600A
:101880008093DA031C821D8219821A8210E07E0185
:101890000894E11CF11C6091DB037091DC03C7012B
:1018A0000E94B6048091DB039091DC03059690932F
:1018B000DC038093DB031F5F163669F78091DA0340
:1018C000877F8093DA03AFE3B1E012C0E091C602F4
:1018D0009E2F9F5F903609F490E08091C502981783
:1018E00031F0F0E0ED5BFD4F22A39093C60211961C
:1018F0002C91222359F78091C10080628093C1000E
:101900001092DC031092DB03A6E4B1E081C081E019
:101910008093E5038091E203882389F00E94C80345
:101920009B01AC018091DE039091DF03A091E00365
:10193000B091E103281B390B4A0B5B0B08C02091C7
:10194000DE033091DF034091E0035091E103CA01CF
:10195000B90120E137E240E050E00E943F1A3093A5
:10196000E6032093E7036091DB037091DC0383EED1
:1019700093E00E94B6048091E2038823C1F00E94A4
:10198000C8032091DE033091DF034091E0035091C2
:10199000E103621B730B840B950B6093DE03709362
:1019A000DF038093E0039093E1031092E2038091C0
:1019B000E203882359F00E94C8036093DE0370930A
:1019C000DF038093E0039093E10308C01092DE03ED
:1019D0001092DF031092E0031092E1031092DD03F6
:1019E0008091DA038D7F8093DA038ECFE091C60277
:1019F0009E2F9F5F903609F490E08091C502981762
:101A000031F0F0E0ED5BFD4F22A39093C6021196FA
:101A10002C91222359F78091C10080628093C100EC
:101A20008091DA0381FD03C0A6E1B1E02BC0A2E200
:101A3000B1E012C0E091C6029E2F9F5F903609F47C
:101A400090E08091C502981731F0F0E0ED5BFD4F1A
:101A500022A39093C60211962C91222359F715C008
:101A6000E091C6029E2F9F5F903609F490E080912E
:101A7000C502981731F0F0E0ED5BFD4F22A3909383
:101A8000C60211962C91222359F78091C1008062E1
:101A90008093C1007CC18091CF03882301F1F89429
:101AA0008091B7039091B803A091B903B091BA03A4
:101AB00078942091CB033091CC034091CD03509189
:101AC000CE03821B930BA40BB50B8093CB03909397
:101AD000CC03A093CD03B093CE031092CF0380919B
:101AE000D403882301F1F8948091BB039091BC0347
:101AF000A091BD03B091BE0378942091D0033091A2
:101B0000D1034091D2035091D303821B930BA40BBA
:101B1000B50B8093D0039093D103A093D203B093DD
:101B2000D3031092D4031092BF0310922E0210928E
:101B30002F028091DA0382FF03C0AAE5B1E06DC0F5
:101B40008091E2038823C1F00E94C8032091DE0344
:101B50003091DF034091E0035091E103621B730B6E
:101B6000840B950B6093DE037093DF038093E00397
:101B70009093E1031092E2038091E203882359F0ED
:101B80000E94C8036093DE037093DF038093E00339
:101B90009093E10308C01092DE031092DF031092CD
:101BA000E0031092E103ADE6B1E012C0E091C6029D
:101BB0009E2F9F5F903609F490E08091C5029817A0
:101BC00031F0F0E0ED5BFD4F22A39093C602119639
:101BD0002C91222359F78091C10080628093C1002B
:101BE0001092DD031092DC031092DB038091DA0384
:101BF00084608D7FCAC0E091C6029E2F9F5F9036A1
:101C000009F490E08091C502981731F0F0E0ED5BA7
:101C1000FD4F22A39093C60211962C91222359F7CF
:101C20003DC08091DA0381FDB2C0A9E7B1E012C0E6
:101C3000E091C6029E2F9F5F903609F490E080915C
:101C4000C502981731F0F0E0ED5BFD4F22A39093B1
:101C5000C60211962C91222359F78091C10080620F
:101C60008093C1008091DA0382FF21C0A3E8B1E034
:101C700012C0E091C6029E2F9F5F903609F490E05B
:101C80008091C502981731F0F0E0ED5BFD4F22A383
:101C90009093C60211962C91222359F78091C1008E
:101CA00080628093C1008091DA038B7F6EC01092B6
:101CB0002E0210922F028091CF03882301F1F89415
:101CC0008091B7039091B803A091B903B091BA0382
:101CD00078942091CB033091CC034091CD03509167
:101CE000CE03821B930BA40BB50B8093CB03909375
:101CF000CC03A093CD03B093CE031092CF03809179
:101D0000D403882301F1F8948091BB039091BC0324
:101D1000A091BD03B091BE0378942091D00330917F
:101D2000D1034091D2035091D303821B930BA40B98
:101D3000B50B8093D0039093D103A093D203B093BB
:101D4000D3031092D4031092BF03AEE8B1E012C0E7
:101D5000E091C6029E2F9F5F903609F490E080913B
:101D6000C502981731F0F0E0ED5BFD4F22A3909390
:101D7000C60211962C91222359F78091C1008062EE
:101D80008093C1008091DA0384608093DA03F601C6
:101D90008081843449F1853418F4813429F41AC0DF
:101DA000833571F0873511F011E02AC08091BF03AF
:101DB00081FD25C0002311F081601FC08E7F1DC0F2
:101DC0008091BF0380FD1BC0002311F0826015C00D
:101DD0008D7F13C08091BF0383FD11C0002311F0DC
:101DE00084600BC08B7F09C08091BF0382FD07C058
:101DF000002311F0886001C0877F8093BF0310E04B
:101E0000F6018081803209F093C2002309F490C268
:101E10009091C5028091C6029817D1F7A7E9B1E069
:101E200012C0E091C6029E2F9F5F903609F490E0A9
:101E30008091C502981731F0F0E0ED5BFD4F22A3D1
:101E40009093C60211962C91222359F78091C100DC
:101E500080628093C100F89403C078940000F894E5
:101E6000809130029091310280509440B1F36091A2
:101E70003002709131027894000080911B029091A1
:101E80001C02681B790B83E492E040E00E94EF089B
:101E9000A5EAB1E012C0E091C6029E2F9F5F903686
:101EA00009F490E08091C502981731F0F0E0ED5B05
:101EB000FD4F22A39093C60211962C91222359F72D
:101EC0008091C10080628093C100F89403C078942F
:101ED0000000F8948091380290913902805094402B
:101EE000B1F36091380270913902789400008091CA
:101EF0001B0290911C02681B790B83E492E040E086
:101F00000E94EF08A5EAB1E012C0E091C6029E2F40
:101F10009F5F903609F490E08091C502981731F0E8
:101F2000F0E0ED5BFD4F22A39093C60211962C9139
:101F3000222359F78091C10080628093C100F894F8
:101F400003C078940000F89480913A0290913B028B
:101F500080509440B1F360913A0270913B027894C2
:101F6000000080911B0290911C02681B790B83E496
:101F700092E040E00E94EF08A5EAB1E012C0E091D3
:101F8000C6029E2F9F5F903609F490E08091C502B3
:101F9000981731F0F0E0ED5BFD4F22A39093C6025D
:101FA00011962C91222359F78091C1008062809371
:101FB000C100F89403C078940000F8948091320234
:101FC0009091330280509440B1F36091320270914D
:101FD00033027894000080911B0290911C02681BD0
:101FE000790B83E492E040E00E94EF089091C502F3
:101FF0008091C6029817D1F7A8EAB1E012C0E0912B
:10200000C6029E2F9F5F903609F490E08091C50232
:10201000981731F0F0E0ED5BFD4F22A39093C602DC
:1020200011962C91222359F78091C10080628093F0
:10203000C100F89403C078940000F89480913402B1
:102040009091350280509440B1F3609134027091C8
:1020500035027894000080911B0290911C02681B4D
:10206000790B83E492E040E00E94EF08ABEAB1E034
:1020700012C0E091C6029E2F9F5F903609F490E057
:102080008091C502981731F0F0E0ED5BFD4F22A37F
:102090009093C60211962C91222359F78091C1008A
:1020A00080628093C100F89403C078940000F89493
:1020B000809136029091370280509440B1F3609144
:1020C0003602709137027894000080911B02909143
:1020D0001C02681B790B83E492E040E00E94EF0849
:1020E0009091C5028091C6029817D1F7A0ECB1E09B
:1020F00012C0E091C6029E2F9F5F903609F490E0D7
:102100008091C502981731F0F0E0ED5BFD4F22A3FE
:102110009093C60211962C91222359F78091C10009
:1021200080628093C1008091C5038823B9F0F89440
:102130004091B7035091B8036091B9037091BA030D
:1021400078948091C1039091C203A091C303B09190
:10215000C403481B590B6A0B7B0B08C04091C10399
:102160005091C2036091C3037091C40383E492E071
:1021700020E00E949409A3EDB1E012C0E091C602F4
:102180009E2F9F5F903609F490E08091C5029817CA
:1021900031F0F0E0ED5BFD4F22A39093C602119663
:1021A0002C91222359F78091C10080628093C10055
:1021B0008091CA038823B9F0F8944091BB035091F1
:1021C000BC036091BD037091BE0378948091C603F7
:1021D0009091C703A091C803B091C903481B590B44
:1021E0006A0B7B0B08C04091C6035091C7036091F6
:1021F000C8037091C90383E492E020E00E9494092F
:10220000A8EDB1E012C0E091C6029E2F9F5F90360C
:1022100009F490E08091C502981731F0F0E0ED5B91
:10222000FD4F22A39093C60211962C91222359F7B9
:102230008091C10080628093C1009091C50280911D
:10224000C6029817D1F782EE61E50E942705BC010E
:1022500083E492E040E00E94620AA6EEB1E012C080
:10226000E091C6029E2F9F5F903609F490E0809126
:10227000C502981731F0F0E0ED5BFD4F22A390937B
:10228000C60211962C91222359F78091C1008062D9
:102290008093C10080EE61E50E942705BC0183E4C4
:1022A00092E040E00E94620AADEEB1E012C0E0911F
:1022B000C6029E2F9F5F903609F490E08091C50280
:1022C000981731F0F0E0ED5BFD4F22A39093C6022A
:1022D00011962C91222359F78091C100806280933E
:1022E000C10084EE61E50E942705BC0183E492E011
:1022F00040E00E94620AA4EFB1E012C0E091C60281
:102300009E2F9F5F903609F490E08091C502981748
:1023100031F0F0E0ED5BFD4F22A39093C6021196E1
:102320002C91222359F78091C10080628093C100D3
:102330008091BF0390E080FFA0C082FF07C0809122
:10234000C003885280932E02885D3DC183FF06C082
:102350008091C00380932E02885235C18091CF03B3
:10236000882309F5F8948091B7039091B803A09160
:10237000B903B091BA0378942091CB033091CC0388
:102380004091CD035091CE03821B930BA40BB50B50
:102390008093CB039093CC03A093CD03B093CE0353
:1023A00081E08093CF038091D403882309F5F894CA
:1023B0008091BB039091BC03A091BD03B091BE037B
:1023C00078942091D0033091D1034091D203509161
:1023D000D303821B930BA40BB50B8093D003909374
:1023E000D103A093D203B093D30381E08093D403AD
:1023F0008091CF03882399F0F8948091B70390914E
:10240000B803A091B903B091BA0378948093CB0339
:102410009093CC03A093CD03B093CE0308C0109249
:10242000CB031092CC031092CD031092CE03809177
:10243000D403882399F0F8948091BB039091BC0356
:10244000A091BD03B091BE0378948093D003909384
:10245000D103A093D203B093D30308C01092D0034A
:102460001092D1031092D2031092D3038091C00333
:1024700080932E0280932F0208C19C01247030703B
:1024800081FFA4C0232B31F09091C00388E2891B07
:102490009195A2C083FF05C08091C00398E2981B6C
:1024A0009AC08091DA038F7E8093DA038091CF0304
:1024B000882309F5F8948091B7039091B803A0910F
:1024C000B903B091BA0378942091CB033091CC0337
:1024D0004091CD035091CE03821B930BA40BB50BFF
:1024E0008093CB039093CC03A093CD03B093CE0302
:1024F00081E08093CF038091D403882309F5F89479
:102500008091BB039091BC03A091BD03B091BE0329
:1025100078942091D0033091D1034091D20350910F
:10252000D303821B930BA40BB50B8093D003909322
:10253000D103A093D203B093D30381E08093D4035B
:102540008091CF03882399F0F8948091B7039091FC
:10255000B803A091B903B091BA0378948093CB03E8
:102560009093CC03A093CD03B093CE0308C01092F8
:10257000CB031092CC031092CD031092CE03809126
:10258000D403882399F0F8948091BB039091BC0305
:10259000A091BD03B091BE0378948093D003909333
:1025A000D103A093D203B093D30308C01092D003F9
:1025B0001092D1031092D2031092D3038091C003E2
:1025C000819580932E0280932F0264C0232B49F0C3
:1025D0009091C003892F819580932E0290932F02B2
:1025E00059C083FF06C08091C00380932E0281955D
:1025F000EACF10922E0210922F028091CF038823EF
:1026000001F1F8948091B7039091B803A091B903B8
:10261000B091BA0378942091CB033091CC034091D0
:10262000CD035091CE03821B930BA40BB50B80936B
:10263000CB039093CC03A093CD03B093CE03109221
:10264000CF038091D403882301F1F8948091BB03D8
:102650009091BC03A091BD03B091BE0378942091EA
:10266000D0033091D1034091D2035091D303821B08
:10267000930BA40BB50B8093D0039093D103A0933D
:10268000D203B093D3031092D4038091DA038F7EE8
:102690008093DA03812F0F900F900F900F900F907F
:1026A000CF91DF911F910F91FF90EF90DF90CF902E
:1026B00008952F923F924F925F926F927F928F92E6
:1026C0009F92AF92BF92CF92DF92EF92FF920F93C1
:1026D0001F93DF93CF93CDB7DEB72F970FB6F89444
:1026E000DEBF0FBECDBF1A821B821092BF031092B5
:1026F000DD0384E68093C0038091C503882399F0AD
:10270000F8948091B7039091B803A091B903B09168
:10271000BA0378948093C1039093C203A093C30338
:10272000B093C40308C01092C1031092C203109268
:10273000C3031092C4038091CA03882399F0F894CC
:102740008091BB039091BC03A091BD03B091BE03E7
:1027500078948093C6039093C703A093C803B09363
:10276000C90308C01092C6031092C7031092C80391
:102770001092C9038091E2038823C1F00E94C8032C
:102780002091DE033091DF034091E0035091E1039B
:10279000621B730B840B950B6093DE037093DF0356
:1027A0008093E0039093E1031092E2038091E203AF
:1027B000882359F00E94C8036093DE037093DF03FF
:1027C0008093E0039093E10308C01092DE0310921F
:1027D000DF031092E0031092E1031092DA0380917C
:1027E000D903882301F1F8948091BB039091BC0335
:1027F000A091BD03B091BE0378942091D503309190
:10280000D6034091D7035091D803821B930BA40B9E
:10281000B50B8093D5039093D603A093D703B093C1
:10282000D8031092D90310E0CC24DD24760188244B
:102830009924540101E001C010E08091DA0383FD86
:1028400058C480FF07C08091BF038150823010F4CC
:102850000E9425088091DA0382FF41C28091DB0348
:102860009091DC03892B09F413C18091E503843036
:1028700009F463C0853030F4813071F0823009F0A2
:102880002EC237C0803109F47CC0803209F49DC06B
:10289000883009F024C275C0909184006091850051
:1028A000F89420912A0230912B0240912C025091F1
:1028B0002D0278948091840080918500861760F3C2
:1028C000281939094A095B0969871886892F90E018
:1028D00068857985862B972BA0E0B0E0280F391FFB
:1028E0004A1F5B1F2C153D054E055F0508F4F7C117
:1028F000CFC08091E603F894E82FF0E0EE0FFF1FC1
:10290000E05DFD4F03C078940000F89480819181D0
:1029100080509440C1F320813181789400008091EF
:102920001B0290911C02281B390B8091E70390E059
:10293000281739070CF4D3C1ABC08091E603F89493
:10294000E82FF0E0EE0FFF1FE05DFD4F03C078942D
:102950000000F8948081918180509440C1F32081DF
:1029600031817894000080911B0290911C02281BF9
:10297000390B8091E70390E0821793070CF4AFC105
:1029800087C0883089F480EE61E50E942705509069
:10299000E60344242091E70330E0242935298217F7
:1029A000930708F49CC174C080EE61E50E9427057E
:1029B0003090E60322242091E70330E022293329D6
:1029C0002817390708F48BC163C06091D9036623C7
:1029D000B9F0F8942091BB033091BC034091BD0342
:1029E0005091BE0378948091D5039091D603A09125
:1029F000D703B091D803281B390B4A0B5B0B08C0D7
:102A00002091D5033091D6034091D7035091D8033C
:102A100037FF03C0309521953F4F4091E6034B8728
:102A20001A868091E70390E0EA85FB858E2B9F2B29
:102A3000AC01E3E2F0E04E9FC0014F9F900D5E9F1E
:102A4000900D11242817390708F449C1662301F1B4
:102A5000F8948091BB039091BC03A091BD03B09109
:102A6000BE0378942091D5033091D6034091D703CB
:102A70005091D803821B930BA40BB50B8093D50305
:102A80009093D603A093D703B093D8031092D903A1
:102A90006091DB037091DC0383EE93E00E94EF040E
:102AA0002091DB033091DC032B5F3F4F3093DC033D
:102AB0002093DB038091E303882389F48091E4036E
:102AC000882369F4F091E603FD871C868091E70373
:102AD00090E04C855D85842B952B892B21F021502E
:102AE000324008F4FCC28091DA038B7F8093DA03D2
:102AF000A9EFB1E012C0E091C6029E2F9F5F903611
:102B000009F490E08091C502981731F0F0E0ED5B98
:102B1000FD4F22A39093C60211962C91222359F7C0
:102B20008091C10080628093C10010922E021092A9
:102B30002F028091CF03882301F1F8948091B7038D
:102B40009091B803A091B903B091BA037894209101
:102B5000CB033091CC034091CD035091CE03821B27
:102B6000930BA40BB50B8093CB039093CC03A09352
:102B7000CD03B093CE031092CF038091D40388236A
:102B800001F1F8948091BB039091BC03A091BD0327
:102B9000B091BE0378942091D0033091D10340913D
:102BA000D2035091D303821B930BA40BB50B8093DC
:102BB000D0039093D103A093D203B093D303109288
:102BC000D4031092BF0339CE9091840060918500A8
:102BD000F89420912A0230912B0240912C025091BE
:102BE0002D0278948091840080918500861760F38F
:102BF0006F871E86892F90E06E857F85862B972BA9
:102C00004C01AA24BB24820E931EA41EB51E7090F4
:102C1000E60366246091E70370E06629772980E087
:102C200090E020E533EC40E050E00E94D7196B01C2
:102C30007C01F694E794D794C7944CC0803209F095
:102C400043C08091D903882399F0F8948091BB0305
:102C50009091BC03A091BD03B091BE037894809382
:102C6000D5039093D603A093D703B093D80308C09D
:102C70001092D5031092D6031092D7031092D80366
:102C80008091D903882301F5F8948091BB0390913A
:102C9000BC03A091BD03B091BE0378942091D503ED
:102CA0003091D6034091D7035091D803821B930BE8
:102CB000A40BB50B8093D5039093D603A093D703B1
:102CC000B093D8030093D903CC24DD247601882463
:102CD000992454018091DD038F5F8093DD039091EF
:102CE000630280916402981709F4A7CDE091630212
:102CF000F0E0ED5BFD4F9081809163028F5F803249
:102D000009F480E080936302E1E0F0E0EC0FFD1F46
:102D1000E10FF11D90831F5F123008F4D7C080913E
:102D2000DA0381FF0EC08091E403843651F48A8176
:102D3000853739F08981833421F070E37A837B838E
:102D40007BCDCE0101960E94EC0A282F9981892F14
:102D50008F54823008F470CD8091DA0381FF6CCDFE
:102D6000933409F469CD222321F08A81843609F055
:102D700063CD8091E203882301F51092DE03109267
:102D8000DF031092E0031092E1030E94C803209138
:102D9000DE033091DF034091E0035091E103621BB9
:102DA000730B840B950B6093DE037093DF038093AA
:102DB000E0039093E1030093E2038091DD03882315
:102DC000E1F10093E5038091E203882389F00E94FA
:102DD000C8039B01AC018091DE039091DF03A091B9
:102DE000E003B091E103281B390B4A0B5B0B08C0D1
:102DF0002091DE033091DF034091E0035091E10325
:102E0000CA01B90120E137E240E050E00E943F1AD8
:102E10003093E6032093E7036091DB037091DC03BA
:102E200083EE93E00E94B6048091DB039091DC0373
:102E300005969093DC038093DB038091DD03853658
:102E400018F589818093E3038A818093E40380915C
:102E5000E203882359F00E94C8036093DE03709355
:102E6000DF038093E0039093E10308C01092DE0338
:102E70001092DF031092E0031092E1038091DD03D2
:102E80008F5F8093DD03D8CC83E48983E4E6EA8313
:102E9000ADE0B2E012C0E091C6029E2F9F5F903677
:102EA00009F490E08091C502981731F0F0E0ED5BF5
:102EB000FD4F22A39093C60211962C91222359F71D
:102EC0008091C10080628093C100B6CC9C3109F032
:102ED0008DC01F5FE1E0F0E0EC0FFD1FE10FF11D81
:102EE00020E320831230A9F71092DC031092DB0359
:102EF0001E821F821B821C821D8210E06091DB03F8
:102F00007091DC03CE0103960E94B6048091DB032E
:102F10009091DC0305969093DC038093DB031F5FA5
:102F2000163661F7E091C6029E2F9F5F903609F436
:102F300090E08091C502981739F0F0E0ED5BFD4F0D
:102F40004DE142A39093C6028091C10080628093BC
:102F5000C1001092DC031092DB0390916302809118
:102F600064029817D1F3E0916302F0E0ED5BFD4F4E
:102F7000E081809163028F5F803209F480E080936A
:102F80006302EE3159F48091DB039091DC0365E03C
:102F900070E00E94F619892B09F49CC08091DB0334
:102FA0009091DC03F999FECF92BD81BDE0BDFA9A04
:102FB000F99A01969093DC038093DB03E091C602BB
:102FC0009E2F9F5F903609F490E08091C50298177C
:102FD00039F0F0E0ED5BFD4F5FE152A39093C60244
:102FE0008091C10080628093C100B7CF963109F013
:102FF00024CC1F5FE1E0F0E0EC0FFD1FE10FF11DBD
:1030000060E360831230A9F7E091C6029E2F9F5FB4
:10301000903609F490E08091C502981739F0F0E0FD
:10302000ED5BFD4F77E172A39093C6028091C100E2
:1030300080628093C1001092DC031092DB032BC0EE
:103040009091C5028091C6029817D1F7F999FECFE9
:1030500032BD21BDF89A20B5E091C6029E2F9F5F38
:10306000903609F490E08091C502981731F0F0E0B5
:10307000ED5BFD4F22A39093C6028091C100806258
:103080008093C1008091DB039091DC0301969093C3
:10309000DC038093DB032091DB033091DC0382E0CF
:1030A0002030380768F2E091C6029E2F9F5F90366D
:1030B00009F490E08091C502981739F0F0E0ED5BDB
:1030C000FD4F28E122A39093C6028091C100806247
:1030D0008093C1001092DC031092DB03ADCB83EE32
:1030E00093E00E94EC0A8091E503813009F0A6CDBF
:1030F0006BCDFFCF84B1866084B9109285001092A9
:1031000084009FEB909387008FEF809386009093CD
:1031100089008093880090938B0080938A0082EFCF
:10312000809380008AE18093810081E080936F002A
:1031300017BC18BC80936E0081EF84BD1092B30061
:103140001092B400109270001092B6008093B000FC
:1031500022E025BD2093B10083E883BD16BC109208
:10316000B20083E083BD239A8AB188668AB988E079
:1031700080937E0083E480937C0010927B008FED2F
:1031800080937A0087B1876087B93B9880E094E0AC
:1031900090933102809330029093330280933202F5
:1031A00090933502809334029093370280933602D5
:1031B000909339028093380290933B0280933A02B5
:1031C00090933D0280933C0290933F0280933E0295
:1031D00057985F982093C00086E08093C2001092B9
:1031E000C50080E48093C40088E98093C10081E138
:1031F0008093B8001092B9001092BD001092BA00EE
:1032000085EC8093BC00289AEDE6F0E08081846034
:103210008083EBE6F0E080818062808385E08BBB79
:103220008093680078940E945913F8941092680073
:1032300010926D0010926B0028981092BC001092B2
:10324000C1001092C0001092C20057985F9810926F
:103250007A0087B1807F87B914BC15BC1092B0008A
:103260001092B100109281001092800084B1897F89
:1032700084B9FFE1E1E8099480E090E008951F93AC
:1032800010926302109264021092C5021092C6025C
:1032900010920703109208031092490310924A03F8
:1032A00010927B0310927C031092AD031092AE0338
:1032B0001092B0031092AF031092B3031092B503B3
:1032C000F8948091B7039091B803A091B903B0919D
:1032D000BA0378948093C1039093C203A093C3036D
:1032E000B093C40381E08093C503F8948091BB033D
:1032F0009091BC03A091BD03B091BE0378948093DC
:10330000C6039093C703A093C803B093C90381E099
:103310008093CA03F8948091B7039091B803A09169
:10332000B903B091BA0378948093CB039093CC0304
:10333000A093CD03B093CE0381E08093CF03F894A4
:103340008091BB039091BC03A091BD03B091BE03DB
:1033500078948093D0039093D103A093D203B09339
:10336000D30381E08093D403F8948091BB039091C0
:10337000BC03A091BD03B091BE0378948093D503A4
:103380009093D603A093D703B093D80311E0109382
:10339000D9030E94C8036093DE037093DF03809318
:1033A000E0039093E1031093E2031F910895629F5D
:1033B000D001739FF001829FE00DF11D649FE00D2D
:1033C000F11D929FF00D839FF00D749FF00D659F8E
:1033D000F00D9927729FB00DE11DF91F639FB00D8D
:1033E000E11DF91FBD01CF0111240895AA1BBB1BCC
:1033F00051E107C0AA1FBB1FA617B70710F0A61BF5
:10340000B70B881F991F5A95A9F780959095BC0115
:10341000CD01089597FB092E07260AD077FD04D029
:10342000E5DF06D000201AF4709561957F4F08956E
:10343000F6F7909581959F4F0895A1E21A2EAA1B49
:10344000BB1BFD010DC0AA1FBB1FEE1FFF1FA21754
:10345000B307E407F50720F0A21BB30BE40BF50B51
:10346000661F771F881F991F1A9469F760957095DA
:10347000809590959B01AC01BD01CF01089597FB0C
:10348000092E05260ED057FD04D0D7DF0AD0001C28
:1034900038F450954095309521953F4F4F4F5F4FF1
:1034A0000895F6F790958095709561957F4F8F4FB1
:1034B0009F4F0895EE0FFF1F0590F491E02D0994A2
:0434C000F894FFCFAE
:1034C400456E67696E6520636F7272656374696FB8
:1034D4006E206973200064697361626C6564200DF9
:1034E4000A00656E61626C6564200D0A00457261B4
:1034F40073696E6720454550524F4D2E2E2E006441
:103504006F6E650D0A005472616365207265636FA6
:103514007264696E672069732000506C617962611E
:10352400636B2073746F707065640D0A00506C6176
:1035340079696E672E2E0D0A00506C6179626163A1
:103544006B2000756E7061757365640D0A0070619F
:10355400757365640D0A000D0A53656E736F72739B
:103564003A200D0A002020000D0A002020202020EF
:103574002020202020202020202020202020200067
:103584000D0A456E636F646572733A200D0A204C10
:103594003A200020523A20000D0A52616E676520DD
:1035A4000D0A4C3A2000636D204D3A2000636D20D3
:1035B400523A2000636D0D0A00506C6179626163B8
:1035C4006B2066696E69736865640D0A004D656DEC
:1035D4006F72792066756C6C0D0A000002747E7A35
:0A35E400330504000102030607008E
:00000001FF
