:100000000C9435000C945D000C945D000C9440043D
:100010000C945D000C94FC030C945D000C945D004A
:100020000C945D000C945D000C945D000C945D00DC
:100030000C945D000C945F000C945D000C945D00CA
:100040000C9485000C945D000C947C010C94BC0114
:100050000C945D000C94FB000C945D000C945D000E
:100060000C94EA010C945D00411A11241FBECFEFDD
:10007000D4E0DEBFCDBF12E0A0E0B1E0E2EFF6E3F6
:1000800002C005900D92AC30B107D9F713E0ACE097
:10009000B2E001C01D92AA3DB107E1F710E0CAE647
:1000A000D0E004C02297FE010E94731BC836D1071E
:1000B000C9F70E947C190C94771B0C9400001F92C6
:1000C0000F920FB60F9211248F939F93AF93BF930C
:1000D00080910C0290910D02A0910E02B0910F023E
:1000E00080509044AF4FBF4F80930C0290930D020D
:1000F000A0930E02B0930F02BF91AF919F918F9189
:100100000F900FBE0F901F9018951F920F920FB671
:100110000F9211248F939F938091D9038F5F8093C7
:10012000D903833009F049C01092D903909110028D
:100130008091D803891701F1891714F48F5F01C0EA
:1001400081508093D8039091D803992319F4109289
:10015000B30010C097FF0AC01092B3008EEF980250
:10016000C00111248F5F8093B40006C0990F9F5F78
:100170009093B3001092B400909111028091D70334
:100180008917D9F0891714F48F5F01C081508093CB
:10019000D7039091D703992311F417BC0DC01916FA
:1001A0002CF417BC990F9F5F98BD07C08EEF980283
:1001B000C00111248F5F87BD18BC9F918F910F9054
:1001C0000FBE0F901F90189581E0809322028091BE
:1001D0002402882379F48091D303803218F45F9A43
:1001E000579A02C057985F9890E001968F7390706D
:1001F0008093D30308951F920F920FB60F9211248C
:100200000F931F932F933F934F935F936F937F931E
:100210008F939F93AF93BF93EF93FF930091D50379
:10022000002309F44DC03091780020917900922F7D
:1002300080E0232F30E0282B392B1091D603E12FBB
:10024000F0E0EC5FFD4FE081F0E0EE0FFF1FEE5EAF
:10025000FD4F31832083163051F52C5B324018F46A
:100260000E94E40024C0109222028091240288237C
:10027000F1F480912302882371F080912202882377
:1002800031F480912402882311F45F9A579A81E017
:10029000809323020CC080912202882331F4809144
:1002A0002402882311F457985F9A10922302912F09
:1002B0009F5F97709093D60388B1887F982B98B9E9
:1002C00081E008270093D50380917A0080648093B1
:1002D0007A00FF91EF91BF91AF919F918F917F91A4
:1002E0006F915F914F913F912F911F910F910F90BF
:1002F0000FBE0F901F9018951F920F920FB60F927E
:1003000011242F938F939F93EF93FF932091C60017
:100310009091D403E92FF0E0E050FE4F8081281740
:1003200071F4892F8F5F8093D403843051F4F89453
:1003300088E18093600088E080936000FFCF109296
:10034000D403E09146029E2F9F5F903209F490E023
:1003500080914502981731F0F0E0EB5DFD4F20836E
:1003600090934602FF91EF919F918F912F910F9063
:100370000FBE0F901F9018951F920F920FB60F92FD
:1003800011248F939F93EF93FF939091A7028091F5
:10039000A802981789F0E091A702F0E0EB5DFD4F0D
:1003A00092A18091A7028F5F803609F480E080934C
:1003B000A7029093C60005C08091C1008F7D8093F5
:1003C000C100FF91EF919F918F910F900FBE0F9001
:1003D0001F9018951F920F920FB60F9211242F9312
:1003E0003F934F935F936F937F938F939F93AF93BD
:1003F000BF93EF93FF93DF93CF93CDB7DEB72997EA
:10040000DEBFCDBF2091B900287F283209F459C042
:10041000293278F4203101F1213120F4283009F01B
:10042000F1C01AC0283109F44CC0203209F0EAC0EA
:1004300048C0283409F4B8C0293438F4203309F40A
:1004400040C0203409F0DEC089C0203509F46DC0F9
:10045000283509F0D7C08FC090915D0380915E036D
:10046000981709F4CFC080915D0390E0FC01EE0F76
:10047000FF1FE80FF91FDE011496E35DFC4F83E0D8
:1004800001900D928150E1F7DE011196FE01349644
:1004900083E001900D928150E1F7A6E9B3E0FE01FF
:1004A000319683E001900D928150E1F780915D03D8
:1004B0008F5F803109F480E080935D038091960323
:1004C00037C190919803809197039817B9F438C178
:1004D00080918F03281709F48DC0892F90E0FC01CB
:1004E000EE0FFF1FE80FF91FE15AFC4FDE011796D0
:1004F00083E00D9001928150E1F77AC0E091E9022A
:10050000F0E0E755FD4F80818093BB0085EC809340
:10051000BC008091E9028F5F803409F480E0809311
:10052000E9029F5F909398031DC12091BB00E09169
:100530002C039E2F9F5F903409F490E080912B0351
:10054000981709F4F9C0F0E0E551FD4F208390932E
:100550002C03809198038F5F8093980320919803D8
:1005600030E02F5F3F4F8091970390E028173907C5
:100570000CF09DC0DFC02091BB00E0912C039E2FAA
:100580009F5F903409F490E080912B03981709F451
:10059000D3C0F0E0E551FD4F208390932C03809170
:1005A00098038F5F80939803DE011796E6E9F3E0E6
:1005B00083E001900D928150E1F790919003292FF3
:1005C0002F5F203109F420E080918F03281791F0EC
:1005D000892F90E0FC01EE0FFF1FE80FF91FE15A91
:1005E000FC4FDE01179683E00D9001928150E1F7F8
:1005F0002093900390915D0380915E03981709F01A
:1006000084C09AC0203979F1213970F42037F1F093
:10061000213720F4203609F08FC018C0203819F196
:10062000283809F089C045C0283A09F470C0293A31
:1006300030F42839F1F1203A09F07EC03AC0283B65
:1006400009F465C0203C09F077C059C081E080936F
:1006500096038091950380939703109298038823C3
:1006600009F068C024C02091BB00E0912C039E2FAC
:100670009F5F903409F490E080912B03981761F00C
:10068000F0E0E551FD4F208390932C038091980377
:100690008F5F8093980304C08091980380939703A1
:1006A0009091980380919703981709F043C085E8CB
:1006B00044C0DE011796E6E9F3E083E001900D9275
:1006C0008150E1F790919003292F2F5F203109F499
:1006D00020E080918F03281791F0892F90E0FC0192
:1006E000EE0FFF1FE80FF91FE15AFC4FDE011796CE
:1006F00083E00D9001928150E1F720939003909157
:100700005D0380915E039817A9F085EE16C0809175
:10071000910390919203892B11F48FEF09C0E0911E
:100720009103F09192038091930390919403099522
:100730008093BB0085EC01C085ED8093BC0012C0A6
:10074000DE011796E6E9F3E083E001900D92815017
:10075000E1F790919003292F2F5F203109F0B8CE57
:1007600020E0B6CE2996DEBFCDBFCF91DF91FF91BD
:10077000EF91BF91AF919F918F917F916F915F9119
:100780004F913F912F910F900FBE0F901F90189592
:10079000EF92FF920F931F93209184009091850018
:1007A000F894E0900C02F0900D0200910E0210916E
:1007B0000F0278948091840080918500891760F3FE
:1007C000792F60E030E0622B732B80E090E06E0DBB
:1007D0007F1D801F911F660F771F881F991F25E0BF
:1007E00030E040E050E00E94341BCA01B9011F9183
:1007F0000F91FF90EF9008951F920F920FB60F92F6
:1008000011242F933F938F939F93AF93BF9389B1FD
:1008100090E09C01B4E036952795BA95E1F796955E
:10082000879596958795822780FD0CC080919903C6
:1008300090919A03A0919B03B0919C030197A10909
:10084000B1090BC08091990390919A03A0919B03E9
:10085000B0919C030196A11DB11D809399039093C3
:100860009A03A0939B03B0939C03BF91AF919F9178
:100870008F913F912F910F900FBE0F901F90189561
:100880001F920F920FB60F9211242F933F938F93C5
:100890009F93AF93BF9383B190E09C01A4E0369502
:1008A0002795AA95E1F735E0969587953A95E1F772
:1008B000822780FD0CC080919D0390919E03A091A2
:1008C0009F03B091A0030197A109B1090BC08091CA
:1008D0009D0390919E03A0919F03B091A003019668
:1008E000A11DB11D80939D0390939E03A0939F0330
:1008F000B093A003BF91AF919F918F913F912F91A2
:100900000F900FBE0F901F901895F89420919903A7
:1009100030919A0340919B0350919C037894B901C4
:10092000CA010895F89420919D0330919E0340914F
:100930009F035091A0037894B901CA010895EDE690
:10094000F0E0808184608083EBE6F0E0808180626B
:10095000808385E08BBB8093680008950895109292
:10096000680010926D0010926B000895DC019B01ED
:1009700080E090E0FD01E80FF91FE081F999FECFDA
:1009800032BD21BDE0BDFA9AF99A01962F5F3F4F23
:100990008230910579F7CB01029612962C9112972D
:1009A000F999FECF92BD81BD20BDFA9AF99ACB018B
:1009B000039613962C911397F999FECF92BD81BDA2
:1009C00020BDFA9AF99A6C5F7F4F14968C91F99931
:1009D000FECF72BD61BD80BDFA9AF99A0895DC011F
:1009E000F999FECFAB0120E030E0F999FECF52BD7E
:1009F00041BDF89A80B5FD01E20FF31F80832F5FA0
:100A00003F4F4F5F5F4F2230310579F7CB010296A0
:100A1000F999FECF92BD81BDF89A80B512968C935C
:100A20001297CB010396F999FECF92BD81BDF89A3A
:100A300080B513968C9313976C5F7F4FF999FECF17
:100A400072BD61BDF89A80B514968C930895CF92CB
:100A5000DF92EF92FF920F931F93DF93CF93CDB767
:100A6000DEB7AC970FB6F894DEBF0FBECDBFC82E71
:100A70001A821982BEEFDB2ED8222981E091EA0288
:100A80009E2F9F5F903409F490E08091E9029817BF
:100A900011F490E01AC0F0E0E755FD4F20839093E9
:100AA000EA02E091EA029E2F9F5F903409F490E001
:100AB0008091E902981711F491E007C0F0E0E75542
:100AC000FD4F60839093EA0292E0FE01B79683E0C7
:100AD000DF011D928A95E9F798A7DFA2DE019A96B9
:100AE00083E001900D928150E1F790915E03292FF0
:100AF0002F5F203109F420E080915D03281791F0E9
:100B0000892F90E0FC01EE0FFF1FE80FF91FE35D56
:100B1000FC4FDE019A9683E00D9001928150E1F73F
:100B200020935E0385EE8093BC0090918F038091AB
:100B300090039817D1F380918F0390E0FC01EE0FA2
:100B4000FF1FE80FF91FDE011F96E15AFC4F83E0FB
:100B500001900D928150E1F7DE011C96FE013F9657
:100B600083E001900D928150E1F7DE019A96FE013B
:100B70003C9683E001900D928150E1F780918F03C4
:100B80008F5F803109F480E080938F03DE015296FD
:100B9000FE01BA9683E001900D928150E1F7DE01EB
:100BA0001396FE01729683E001900D928150E1F759
:100BB0008D81823009F037C22091840040918500F8
:100BC000F894E0900C02F0900D0200910E0210914A
:100BD0000F0278948091840080918500841760F3DF
:100BE000942F80E030E0822B932BA0E0B0E022270E
:100BF0003327A901281B390B4A0B5B0B2E193F0920
:100C0000400B510B90918400E0918500F894E090A6
:100C10000C02F0900D0200910E0210910F027894D8
:100C200080918400809185008E1760F37E2F60E0B4
:100C3000892F90E0862B972BA0E0B0E08E0D9F1DB2
:100C4000A01FB11F820F931FA41FB51F885A914682
:100C5000A040B040B8F2E091EA029E2F9F5F90342E
:100C600009F490E08091E902981711F490E008C02F
:100C7000F0E0E755FD4F82E080839093EA0291E037
:100C8000FE01BA9683E0DF011D928A95E9F7DAA6A4
:100C90009BA7DE01979683E001900D928150E1F7CA
:100CA00090915E03292F2F5F203109F420E080917D
:100CB0005D03281791F0892F90E0FC01EE0FFF1FD4
:100CC000E80FF91FE35DFC4FDE01979683E00D907E
:100CD00001928150E1F720935E0385EE8093BC0082
:100CE00090918F03809190039817D1F380918F0397
:100CF00090E0FC01EE0FFF1FE80FF91FDE01589690
:100D0000E15AFC4F83E001900D928150E1F7DE0142
:100D10005596FE01789683E001900D928150E1F79F
:100D2000DE019796FE01759683E001900D92815049
:100D3000E1F780918F038F5F803109F480E0809329
:100D40008F03DE015B96FE01B79683E001900D9262
:100D50008150E1F7DE011696FE017B9683E001905B
:100D60000D928150E1F79885913009F05CC1FE0148
:100D7000B79683E0DF011D928A95E9F73C2D31603B
:100D800098A73FA3DE019A9683E001900D928150CF
:100D9000E1F790915E03292F2F5F203109F420E0C5
:100DA00080915D03281791F0892F90E0FC01EE0FF0
:100DB000FF1FE80FF91FE35DFC4FDE019A9683E009
:100DC0000D9001928150E1F720935E0385EE8093B0
:100DD000BC0090918F03809190039817D1F380917C
:100DE0008F0380918F038F5F803109F480E08093BF
:100DF0008F035091BB00E091EA029E2F9F5F9034D9
:100E000009F490E08091E902981711F490E008C08D
:100E1000F0E0E755FD4F83E080839093EA0291E094
:100E2000FE01BA9683E0DF011D928A95E9F7DAA602
:100E30009BA7DE01979683E001900D928150E1F728
:100E400090915E03292F2F5F203109F420E08091DB
:100E50005D03281791F0892F90E0FC01EE0FFF1F32
:100E6000E80FF91FE35DFC4FDE01979683E00D90DC
:100E700001928150E1F720935E0385EE8093BC00E0
:100E800090918F03809190039817D1F380918F03F5
:100E900090E0FC01EE0FFF1FE80FF91FDE019196B5
:100EA000E15AFC4F83E001900D928150E1F7DE01A1
:100EB0005E96FE01B19683E001900D928150E1F7BC
:100EC000DE019796FE017E9683E001900D9281509F
:100ED000E1F780918F038F5F803109F480E0809388
:100EE0008F03DE019496FE01B79683E001900D9288
:100EF0008150E1F7DE011996FE01B49683E001907E
:100F00000D928150E1F79B85913009F08CC0FE0174
:100F1000B79683E0DF011D928A95E9F798A73FA372
:100F2000DE019A9683E001900D928150E1F7909155
:100F30005E03292F2F5F203109F420E080915D03AB
:100F4000281791F0892F90E0FC01EE0FFF1FE80FAA
:100F5000F91FE35DFC4FDE019A9683E00D9001924C
:100F60008150E1F720935E0385EE8093BC00909161
:100F70008F03809190039817D1F380918F03809114
:100F80008F038F5F803109F480E080938F0340915D
:100F9000BB001092BC0008C08091E9028F5F8034D2
:100FA00009F480E08093E9029091E9028091EA02DD
:100FB000981791F708C080912B038F5F803409F454
:100FC00080E080932B0390912B0380912C03981742
:100FD00091F708C080918F038F5F803109F480E022
:100FE00080938F0390918F0380919003981791F7CE
:100FF00008C080915D038F5F803109F480E08093A9
:101000005D0390915D0380915E03981791F728E04E
:1010100030E002C0220F331F5A95E2F7842F90E090
:10102000282B392B02C020E030E0C901AC960FB666
:10103000F894DEBF0FBECDBFCF91DF911F910F910E
:10104000FF90EF90DF90CF900895FF920F931F9342
:101050001091A1038091A203113021F4F82FE82F01
:10106000E15004C0F82FF195E1E0E81BF090B603E1
:10107000FF20B9F0F89420919D0330919E03409198
:101080009F035091A00378948091B2039091B30391
:10109000A091B403B091B503281B390B4A0B5B0B2D
:1010A00008C02091B2033091B3034091B403509132
:1010B000B503B9010091B1030023B9F0F894209170
:1010C000990330919A0340919B0350919C0378942B
:1010D0008091AD039091AE03A091AF03B091B003A6
:1010E000281B390B4A0B5B0B08C02091AD033091D4
:1010F000AE034091AF035091B0034091C103CB01C7
:10110000821B930B44FD1EC097FF03C090958195F1
:101110009F4F0A970CF45FC0621773071CF41130DD
:1011200059F405C0261737073CF4123029F4E09330
:101130001002F093110204C0F0931002E093110228
:1011400040610DC097FF03C0909581959F4F0A970E
:101150000CF441C0F0931002F09311024F7E4093C3
:10116000C103FF2099F0F89480919D0390919E0314
:10117000A0919F03B091A00378948093B2039093C1
:10118000B303A093B403B093B50308C01092B203A5
:101190001092B3031092B4031092B503002399F098
:1011A000F8948091990390919A03A0919B03B09138
:1011B0009C0378948093AD039093AE03A093AF0308
:1011C000B093B00308C01092AD031092AE0310921A
:1011D000AF031092B0031F910F91FF9008956F928B
:1011E0007F928F929F92AF92BF92CF92DF92EF92B7
:1011F000FF920F931F93DF93CF93CDB7DEB7A097E6
:101200000FB6F894DEBF0FBECDBF5C017B01C42ECC
:101210006115710591F18B0177FF04C0002711273B
:10122000061B170BDD243E010894611C711C86EF20
:10123000882E8FEF982E15C0C8016AE070E00E94DA
:10124000211BF301ED0DF11D402F405D689DC00194
:10125000699D900D789D900D1124480F4083D39483
:101260008B011016110644F3F7FE1DC0FE01ED0DB3
:10127000F11D8DE28183D39416C080E38983DD2440
:10128000D39411C02C91922F9F5F903609F490E077
:10129000FA018081981729F0F501E20FF11D32A3C0
:1012A0009C93CA9407C0D501AD57BF4FA5014E57B7
:1012B0005F4F30E2DC1430F315C0FE01ED0DF11D7F
:1012C00030812C91922F9F5F903609F490E0FA01C3
:1012D0008081981729F0F501E20FF11D32A39C934C
:1012E000DA9406C0D501AD57BF4FA5014E575F4FE9
:1012F000DD2019F78091C10080628093C100A09623
:101300000FB6F894DEBF0FBECDBFCF91DF911F9116
:101310000F91FF90EF90DF90CF90BF90AF909F9094
:101320008F907F906F9008952F923F924F925F928F
:101330006F927F928F929F92AF92BF92CF92DF92E5
:10134000EF92FF920F931F93DF93CF93CDB7DEB74A
:10135000A3970FB6F894DEBF0FBECDBF9AA389A3A3
:101360001A012B012BA3411551056105710509F4E3
:1013700046C03A014B0177FF07C06624772443013A
:10138000641A750A860A970A00E02BC0C401B301EB
:101390002AE030E040E050E00E94561BA22ED32EFF
:1013A000C42EB52E91E0E92EF12CEC0EFD1EE00EC0
:1013B000F11C162D105D622F732F842F952F26EFB1
:1013C0003FEF4FEF5FEF0E94EE1A160FF701108309
:1013D0000F5F2A2D3D2D4C2D5B2DC901DA013C01FB
:1013E0004D01161417041804190484F257FE1FC087
:1013F000FE01E00FF11D8DE281830F5F18C080E3D5
:10140000898301E014C02C91922F9F5F903609F4DC
:1014100090E0FA018081981731F0E9A1FAA1E20F7A
:10142000F11D32A39C93FBA1F150FBA309C0A9A11C
:10143000BAA1AD57BF4F49A15AA14E575F4F30E2F5
:101440008BA1081700F316C0FE01E00FF11D3081DB
:101450002C91922F9F5F903609F490E0FA018081E1
:10146000981731F0E9A1FAA1E20FF11D32A39C9384
:10147000015008C0A9A1BAA1AD57BF4F49A15AA1B7
:101480004E575F4F002301F78091C1008062809327
:10149000C100A3960FB6F894DEBF0FBECDBFCF91AB
:1014A000DF911F910F91FF90EF90DF90CF90BF9051
:1014B000AF909F908F907F906F905F904F903F90F4
:1014C0002F900895AF92BF92DF92EF92FF920F9309
:1014D0001F93DF93CF93CDB7DEB7A0970FB6F894E5
:1014E000DEBF0FBECDBF7C01D42E6115710519F191
:1014F000162F00E05E010894A11CB11C812F972FCC
:101500006AE070E00E940D1B9B01F501E00FF11DE8
:10151000105DCB01880F991FAB0163E0440F551F8D
:101520006A95E1F7840F951F181B10830F5F122F28
:10153000232B21F715C080E3898301E011C02C9192
:10154000922F9F5F903609F490E0FA0180819817FE
:1015500029F0F701E20FF11D32A39C93DA9407C042
:10156000D701AD57BF4FA7014E575F4F30E20D1562
:1015700030F315C0FE01E00FF11D30812C91922F48
:101580009F5F903609F490E0FA018081981729F066
:10159000F701E20FF11D32A39C93015006C0D70161
:1015A000AD57BF4FA7014E575F4F002319F78091EA
:1015B000C10080628093C100A0960FB6F894DEBF90
:1015C0000FBECDBFCF91DF911F910F91FF90EF9094
:1015D000DF90BF90AF9008950F931F93CF93DF9349
:1015E000EC0100E09981943609F0B3C301E08881F1
:1015F0008135D1F0823550F48F3409F4F4C280354E
:1016000008F02BC2833409F0A4C3AFC0813679F04F
:10161000823620F4823509F09CC312C0823649F02C
:10162000833609F096C308C0A0E0B1E05AC082E357
:1016300004C09093A2038DC38FE78093A20389C354
:101640008091AC03882399F0F89480919D03909148
:101650009E03A0919F03B091A00378948093A80368
:101660009093A903A093AA03B093AB0308C0109270
:10167000A8031092A9031092AA031092AB038091C1
:10168000A703882399F0F8948091990390919A0385
:10169000A0919B03B0919C0378948093A3039093B3
:1016A000A403A093A503B093A60353C31092A3036E
:1016B0001092A4031092A5031092A6034AC3E091CE
:1016C000A8029E2F9F5F903609F490E08091A702B8
:1016D000981731F0F0E0EB5DFD4F22A39093A80244
:1016E00011962C91222359F78091C100806280933A
:1016F000C1008091C10380FF1CC08E7F8093C10315
:10170000A6E1B1E012C0E091A8029E2F9F5F903643
:1017100009F490E08091A702981731F0F0E0EB5DBA
:10172000FD4F22A39093A80211962C91222359F7E2
:101730008EC181608093C103A2E2B1E012C0E0914A
:10174000A8029E2F9F5F903609F490E08091A70237
:10175000981731F0F0E0EB5DFD4F22A39093A802C3
:1017600011962C91222359F772C19091A702809172
:10177000A8029817D1F710921002109211028091CE
:10178000B103882301F1F8948091990390919A0311
:10179000A0919B03B0919C0378942091AD0330916C
:1017A000AE034091AF035091B003821B930BA40B87
:1017B000B50B8093AD039093AE03A093AF03B093AA
:1017C000B0031092B1038091B603882301F1F8941D
:1017D00080919D0390919E03A0919F03B091A003DF
:1017E00078942091B2033091B3034091B4035091A7
:1017F000B503821B930BA40BB50B8093B20390939C
:10180000B303A093B403B093B5031092B603109240
:10181000A1038091C10381FD5CC082608093C103FC
:101820001092C403ADE2B1E012C0E091A8029E2F75
:101830009F5F903609F490E08091A702981731F0ED
:10184000F0E0EB5DFD4F22A39093A80211962C913E
:10185000222359F78091C10080628093C1002091BA
:10186000C10328602093C10380E090E0F999FECF86
:1018700092BD81BD10BCFA9AF99A019632E080308F
:101880009307A1F7277F2093C103AFE3B1E012C014
:10189000E091A8029E2F9F5F903609F490E080911E
:1018A000A702981731F0F0E0EB5DFD4F22A3909373
:1018B000A80211962C91222359F78091C1008062D1
:1018C0008093C1001092C3031092C203A6E4B1E05A
:1018D00081C081E08093CC038091C903882389F083
:1018E0000E94C8039B01AC018091C5039091C6037F
:1018F000A091C703B091C803281B390B4A0B5B0B9F
:1019000008C02091C5033091C6034091C703509190
:10191000C803CA01B90120E137E240E050E00E946B
:10192000561B3093CD032093CE036091C203709178
:10193000C3038AEC93E00E94B6048091C903882314
:10194000C1F00E94C8032091C5033091C6034091A5
:10195000C7035091C803621B730B840B950B6093F4
:10196000C5037093C6038093C7039093C803109276
:10197000C9038091C903882359F00E94C80360936A
:10198000C5037093C6038093C7039093C80308C030
:101990001092C5031092C6031092C7031092C80399
:1019A0001092C4038091C1038D7F8093C1038ECFB9
:1019B000E091A8029E2F9F5F903609F490E08091FD
:1019C000A702981731F0F0E0EB5DFD4F22A3909352
:1019D000A80211962C91222359F78091C1008062B0
:1019E0008093C1008091C10381FD03C0A6E1B1E0F5
:1019F0002BC0A2E2B1E012C0E091A8029E2F9F5F2F
:101A0000903609F490E08091A702981731F0F0E049
:101A1000EB5DFD4F22A39093A80211962C912223F7
:101A200059F715C0E091A8029E2F9F5F903609F4E8
:101A300090E08091A702981731F0F0E0EB5DFD4F48
:101A400022A39093A80211962C91222359F78091FA
:101A5000C10080628093C1007CC18091B103882362
:101A600001F1F8948091990390919A03A0919B03BE
:101A7000B0919C0378942091AD033091AE034091D6
:101A8000AF035091B003821B930BA40BB50B809353
:101A9000AD039093AE03A093AF03B093B003109245
:101AA000B1038091B603882301F1F89480919D03DE
:101AB00090919E03A0919F03B091A00378942091F0
:101AC000B2033091B3034091B4035091B503821B2C
:101AD000930BA40BB50B8093B2039093B303A09325
:101AE000B403B093B5031092B6031092A103109201
:101AF0001002109211028091C10382FF03C0AAE577
:101B0000B1E06DC08091C9038823C1F00E94C80371
:101B10002091C5033091C6034091C7035091C8037B
:101B2000621B730B840B950B6093C5037093C60304
:101B30008093C7039093C8031092C9038091C9038F
:101B4000882359F00E94C8036093C5037093C603AD
:101B50008093C7039093C80308C01092C5031092E6
:101B6000C6031092C7031092C803ADE6B1E012C0DD
:101B7000E091A8029E2F9F5F903609F490E080913B
:101B8000A702981731F0F0E0EB5DFD4F22A3909390
:101B9000A80211962C91222359F78091C1008062EE
:101BA0008093C1001092C4031092C3031092C20329
:101BB0008091C10384608D7FCAC0E091A8029E2FEE
:101BC0009F5F903609F490E08091A702981731F05A
:101BD000F0E0EB5DFD4F22A39093A80211962C91AB
:101BE000222359F73DC08091C10381FDB2C0A9E70E
:101BF000B1E012C0E091A8029E2F9F5F903609F4D9
:101C000090E08091A702981731F0F0E0EB5DFD4F76
:101C100022A39093A80211962C91222359F7809128
:101C2000C10080628093C1008091C10382FF21C006
:101C3000A3E8B1E012C0E091A8029E2F9F5F90360A
:101C400009F490E08091A702981731F0F0E0EB5D85
:101C5000FD4F22A39093A80211962C91222359F7AD
:101C60008091C10080628093C1008091C1038B7F0D
:101C70006EC010921002109211028091B10388235D
:101C800001F1F8948091990390919A03A0919B039C
:101C9000B0919C0378942091AD033091AE034091B4
:101CA000AF035091B003821B930BA40BB50B809331
:101CB000AD039093AE03A093AF03B093B003109223
:101CC000B1038091B603882301F1F89480919D03BC
:101CD00090919E03A0919F03B091A00378942091CE
:101CE000B2033091B3034091B4035091B503821B0A
:101CF000930BA40BB50B8093B2039093B303A09303
:101D0000B403B093B5031092B6031092A103AEE8EA
:101D1000B1E012C0E091A8029E2F9F5F903609F4B7
:101D200090E08091A702981731F0F0E0EB5DFD4F55
:101D300022A39093A80211962C91222359F7809107
:101D4000C10080628093C1008091C1038460809350
:101D5000C1038881843449F1853418F4813429F42D
:101D60001AC0833571F0873511F011E02AC08091D7
:101D7000A10381FD25C0002311F081601FC08E7F6B
:101D80001DC08091A10380FD1BC0002311F0826063
:101D900015C08D7F13C08091A10383FD11C0002366
:101DA00011F084600BC08B7F09C08091A10382FD7C
:101DB00007C0002311F0886001C0877F8093A103D2
:101DC00010E08881803209F099C1002309F496C19E
:101DD0009091A7028091A8029817D1F7A7E9B1E0E6
:101DE00012C0E091A8029E2F9F5F903609F490E008
:101DF0008091A702981731F0F0E0EB5DFD4F22A330
:101E00009093A80211962C91222359F78091C1003A
:101E100080628093C100F89403C078940000F89425
:101E200080911E0290911F0280509440B1F3609106
:101E30001E0270911F02789400008091FE01909123
:101E4000FF01681B790B85E292E040E00E94EF08F9
:101E5000E091A8029E2F9F5F903609F490E0809158
:101E6000A702981739F0F0E0EB5DFD4F80E282A306
:101E70009093A8028091C10080628093C100F89481
:101E800003C078940000F894809120029091210280
:101E900080509440B1F360912002709121027894B7
:101EA00000008091FE019091FF01681B790B85E293
:101EB00092E040E00E94EF08A3EAB1E012C0E09196
:101EC000A8029E2F9F5F903609F490E08091A702B0
:101ED000981731F0F0E0EB5DFD4F22A39093A8023C
:101EE00011962C91222359F78091C1008062809332
:101EF000C1008091A7038823B9F0F8944091990319
:101F000050919A0360919B0370919C037894809107
:101F1000A3039091A403A091A503B091A603481B2D
:101F2000590B6A0B7B0B08C04091A3035091A4038B
:101F30006091A5037091A60385E292E020E00E94E3
:101F40009409A6EBB1E012C0E091A8029E2F9F5F1A
:101F5000903609F490E08091A702981731F0F0E0F4
:101F6000EB5DFD4F22A39093A80211962C912223A2
:101F700059F78091C10080628093C1008091AC03C9
:101F80008823B9F0F89440919D0350919E0360918D
:101F90009F037091A00378948091A8039091A90366
:101FA000A091AA03B091AB03481B590B6A0B7B0BA2
:101FB00008C04091A8035091A9036091AA037091B1
:101FC000AB0385E292E020E00E949409ABEBB1E024
:101FD00012C0E091A8029E2F9F5F903609F490E016
:101FE0008091A702981731F0F0E0EB5DFD4F22A33E
:101FF0009093A80211962C91222359F78091C10049
:1020000080628093C1009091A7028091A8029817E6
:10201000D1F782EE61E50E942705BC0185E292E0DE
:1020200040E00E94620AA9ECB1E012C0E091A8026F
:102030009E2F9F5F903609F490E08091A702981739
:1020400031F0F0E0EB5DFD4F22A39093A8021196D2
:102050002C91222359F78091C10080628093C100A6
:1020600080EE61E50E942705BC0185E292E040E038
:102070000E94620AA0EDB1E012C0E091A8029E2F7A
:102080009F5F903609F490E08091A702981731F095
:10209000F0E0EB5DFD4F22A39093A80211962C91E6
:1020A000222359F78091C10080628093C10084EEA1
:1020B00061E50E942705BC0185E292E040E00E94B4
:1020C000620AA7EDB1E012C0E091A8029E2F9F5FC7
:1020D000903609F490E08091A702981731F0F0E073
:1020E000EB5DFD4F22A39093A80211962C91222321
:1020F00059F78091C10080628093C1008091A10353
:1021000090E080FFBBC082FF07C08091A20388528D
:1021100080931002885D07C083FF08C08091A203EE
:102120008093100288528093110293C08091B10372
:10213000882309F5F8948091990390919A03A091CE
:102140009B03B0919C0378942091AD033091AE0332
:102150004091AF035091B003821B930BA40BB50BBE
:102160008093AD039093AE03A093AF03B093B003FD
:1021700081E08093B1038091B603882309F5F89438
:1021800080919D0390919E03A0919F03B091A00325
:1021900078942091B2033091B3034091B4035091ED
:1021A000B503821B930BA40BB50B8093B2039093E2
:1021B000B303A093B403B093B50381E08093B60357
:1021C0008091B103882399F0F894809199039091BC
:1021D0009A03A0919B03B0919C0378948093AD03E4
:1021E0009093AE03A093AF03B093B00308C01092D6
:1021F000AD031092AE031092AF031092B003809122
:10220000B603882399F0F89480919D0390919E03E2
:10221000A0919F03B091A00378948093B203909310
:10222000B303A093B403B093B50308C01092B203F4
:102230001092B3031092B4031092B5038091A203DD
:1022400080931002809311028091C1038F7E80934E
:10225000C10320918400E0918500F89440910C0224
:1022600050910D0260910E0270910F02789480914E
:102270008400809185008E1760F3FEC09C0124705D
:10228000307081FFBDC0232B31F09091A20388E212
:10229000891B919507C083FF0AC08091A20398E231
:1022A000981B8195809310029093110294C08091A5
:1022B000C1038F7E8093C1038091B103882309F508
:1022C000F8948091990390919A03A0919B03B09107
:1022D0009C0378942091AD033091AE034091AF03FD
:1022E0005091B003821B930BA40BB50B8093AD03ED
:1022F0009093AE03A093AF03B093B00381E08093BB
:10230000B1038091B603882309F5F89480919D0369
:1023100090919E03A0919F03B091A0037894209187
:10232000B2033091B3034091B4035091B503821BC3
:10233000930BA40BB50B8093B2039093B303A093BC
:10234000B403B093B50381E08093B6038091B103E9
:10235000882399F0F8948091990390919A03A09121
:102360009B03B0919C0378948093AD039093AE034C
:10237000A093AF03B093B00308C01092AD031092C6
:10238000AE031092AF031092B0038091B60388237E
:1023900099F0F89480919D0390919E03A0919F03E2
:1023A000B091A00378948093B2039093B303A09369
:1023B000B403B093B50308C01092B2031092B303F4
:1023C0001092B4031092B5038091A203819580937B
:1023D00010028093110220918400E0918500F8940E
:1023E00040910C0250910D0260910E0270910F020B
:1023F000789480918400809185008E1760F33CC0B2
:10240000232BE9F09091A203892F819580931002EC
:102410009093110220918400E0918500F8944091FE
:102420000C0250910D0260910E0270910F0278948F
:1024300080918400809185008E1760F31DC083FF1A
:102440002FC08091A2038093100281958093110286
:1024500020918400E0918500F89440910C02509105
:102460000D0260910E0270910F02789480918400A9
:10247000809185008E1760F39E2F80E030E0822BE4
:10248000932BA0E0B0E0840F951FA61FB71F809389
:10249000CF039093D003A093D103B093D20378C01D
:1024A00020918400E0918500F89440910C025091B5
:1024B0000D0260910E0270910F0278948091840059
:1024C000809185008E1760F39E2F80E030E0822B94
:1024D000932BA0E0B0E0840F951FA61FB71F809339
:1024E000CF039093D003A093D103B093D203109263
:1024F0001002109211028091B103882301F1F89427
:102500008091990390919A03A0919B03B0919C03B1
:1025100078942091AD033091AE034091AF03509178
:10252000B003821B930BA40BB50B8093AD03909368
:10253000AE03A093AF03B093B0031092B1038091A8
:10254000B603882301F1F89480919D0390919E0336
:10255000A0919F03B091A00378942091B203309191
:10256000B3034091B4035091B503821B930BA40BAA
:10257000B50B8093B2039093B303A093B403B093CD
:10258000B5031092B6038091C1038F7E8093C1037F
:10259000812FDF91CF911F910F9108952F923F923C
:1025A0004F925F926F927F928F929F92AF92BF9263
:1025B000CF92DF92EF92FF920F931F93DF93CF930F
:1025C000CDB7DEB762970FB6F894DEBF0FBECDBFB2
:1025D0001A821B821092A1031092C4038FE780938A
:1025E000A2038091A703882399F0F894809199031E
:1025F00090919A03A0919B03B0919C03789480934F
:10260000A3039093A403A093A503B093A60308C0CB
:102610001092A3031092A4031092A5031092A60394
:102620008091AC03882399F0F89480919D03909158
:102630009E03A0919F03B091A00378948093A80378
:102640009093A903A093AA03B093AB0308C0109280
:10265000A8031092A9031092AA031092AB038091D1
:10266000C9038823C1F00E94C8032091C50330919B
:10267000C6034091C7035091C803621B730B840BC0
:10268000950B6093C5037093C6038093C703909323
:10269000C8031092C9038091C903882359F00E948E
:1026A000C8036093C5037093C6038093C7039093D8
:1026B000C80308C01092C5031092C6031092C70346
:1026C0001092C8031092C1038091BB03882301F1CB
:1026D000F8948091990390919A03A0919B03B091F3
:1026E0009C0378942091B7033091B8034091B903CB
:1026F0005091BA03821B930BA40BB50B8093B703C5
:102700009093B803A093B903B093BA031092BB039C
:102710008091C003882301F1F89480919D039091EA
:102720009E03A0919F03B091A00378942091BC03D5
:102730003091BD034091BE035091BF03821B930BA8
:10274000A40BB50B8093BC039093BD03A093BE0371
:10275000B093BF031092C0031092CF031092D00326
:102760001092D1031092D203DD24882499245401BD
:10277000442455243201CC24C39401C0DD2480912B
:10278000C10383FDB8C580FF07C08091A1038150BC
:10279000823010F40E9425088091C10382FF9EC3FD
:1027A0008091C2039091C303892B09F4E4C1809105
:1027B000CC03863068F4843008F0E9C0823009F434
:1027C0003EC0833008F08FC0813009F087C30AC053
:1027D000873009F45CC1873008F4F5C0883009F00F
:1027E0007DC38AC19091840060918500F894209106
:1027F0000C0230910D0240910E0250910F0278941C
:102800008091840080918500861760F32419350932
:10281000460957096C831B82892F90E06B817C816C
:10282000862B972BA0E0B0E0280F391F4A1F5B1FB3
:10283000281539054A055B0508F450C39CC1209151
:10284000CD03273009F03DC5F0918400E09185006B
:10285000F89440910C0250910D0260910E0270911B
:102860000F02789480918400809185008E1760F328
:102870008091CF039091D003A091D103B091D20366
:10288000481B590B6A0B7B0BEE831D828F2F90E048
:10289000ED81FE818E2B9F2BA0E0B0E0480F591FE9
:1028A0006A1F7B1F405D52416341704008F009C5BB
:1028B00015C378940000F8948081918180509440F1
:1028C000C1F320813181789400008091FE019091C4
:1028D000FF01281B390B8091CE0390E028173907A0
:1028E0000CF4FCC248C12091CD03273009F0F1C49B
:1028F000F0918400E0918500F89440910C02509191
:102900000D0260910E0270910F0278948091840004
:10291000809185008E1760F38091CF039091D00352
:10292000A091D103B091D203481B590B6A0B7B0BCA
:10293000E8871F828F2F90E0EF81F8858E2B9F2BE9
:10294000A0E0B0E0480F591F6A1F7B1F405D524155
:102950006341704008F0BDC4C1C278940000F8948F
:102960008081918180509440C1F32081318178949D
:1029700000008091FE019091FF01281B390B80918E
:10298000CE0390E0821793070CF4A8C2F4C0843001
:1029900069F48091CD0361E50E9427052091CE0363
:1029A00030E08217930708F499C2E5C08091CD0307
:1029B00061E50E9427052091CE0330E028173907F2
:1029C00008F48CC2D8C08091C0038823B9F0F89471
:1029D000E0909D03F0909E0300919F031091A0034F
:1029E00078948091BC039091BD03A091BE03B091F7
:1029F000BF03E81AF90A0A0B1B0B08C0E090BC03DE
:102A0000F090BD030091BE031091BF038091BB0302
:102A10008823B9F0F8942091990330919A0340915A
:102A20009B0350919C0378948091B7039091B803D5
:102A3000A091B903B091BA03281B390B4A0B5B0B69
:102A400008C02091B7033091B8034091B903509169
:102A5000BA032E0D3F1D401F511FCA01B90122E0CC
:102A600030E040E050E00E94561BA90137FF03C050
:102A7000509541955F4F6091CD036A8719862091EB
:102A8000CE0330E089859A85282B392B69C0809147
:102A9000BB038823B9F0F8942091990330919A03ED
:102AA00040919B0350919C0378948091B70390913F
:102AB000B803A091B903B091BA03281B390B4A0B94
:102AC0005B0B08C02091B7033091B8034091B90364
:102AD0005091BA03A90137FF03C0509541955F4F4C
:102AE0009091CD039C871B862091CE0330E0EB852F
:102AF000FC852E2B3F2B34C08091C0038823B9F076
:102B0000F89420919D0330919E0340919F03509132
:102B1000A00378948091BC039091BD03A091BE0363
:102B2000B091BF03281B390B4A0B5B0B08C02091E7
:102B3000BC033091BD034091BE035091BF03A90176
:102B400037FF03C0509541955F4FF091CD03FE874D
:102B50001D862091CE0330E06D857E85262B372B98
:102B6000C901880F991F880F991F820F931F48175B
:102B7000590708F4B3C18091BB03882301F1F8948D
:102B80008091990390919A03A0919B03B0919C032B
:102B900078942091B7033091B8034091B9035091D4
:102BA000BA03821B930BA40BB50B8093B7039093CE
:102BB000B803A093B903B093BA031092BB038091FA
:102BC000C003882301F1F89480919D0390919E03A6
:102BD000A0919F03B091A00378942091BC03309101
:102BE000BD034091BE035091BF03821B930BA40B06
:102BF000B50B8093BC039093BD03A093BE03B09329
:102C0000BF031092C0036091C2037091C3038AECAA
:102C100093E00E94EF042091C2033091C3032B5F25
:102C20003F4F3093C3032093C2038091CA0388238C
:102C300089F48091CB03882369F47091CD03788B5C
:102C40001F868091CE0390E0EF85F8898E2B9F2B15
:102C5000892B21F02150324008F443C38091C103F5
:102C60008B7F8093C103ACEDB1E012C0E091A8026C
:102C70009E2F9F5F903609F490E08091A7029817ED
:102C800031F0F0E0EB5DFD4F22A39093A802119686
:102C90002C91222359F78091C10080628093C1005A
:102CA00010921002109211028091B103882301F159
:102CB000F8948091990390919A03A0919B03B0910D
:102CC0009C0378942091AD033091AE034091AF0303
:102CD0005091B003821B930BA40BB50B8093AD03F3
:102CE0009093AE03A093AF03B093B0031092B103DF
:102CF0008091B603882301F1F89480919D0390910F
:102D00009E03A0919F03B091A00378942091B203F9
:102D10003091B3034091B4035091B503821B930BE0
:102D2000A40BB50B8093B2039093B303A093B403A9
:102D3000B093B5031092B6031092A10320CD9091E9
:102D4000840060918500F89420910C0230910D026E
:102D500040910E0250910F027894809184008091EE
:102D60008500861760F36A8B198A892F90E069893C
:102D70007A89862B972B2C0166247724420E531ECA
:102D8000641E751E3090CD0322246091CE0370E046
:102D90006229732980E090E020E533EC40E050E0C8
:102DA0000E94EE1A4B015C01B694A7949794879405
:102DB00090C08650833008F086C08091C00388237D
:102DC00099F0F89480919D0390919E03A0919F03A8
:102DD000B091A00378948093BC039093BD03A0931B
:102DE000BE03B093BF0308C01092BC031092BD0392
:102DF0001092BE031092BF038091BB03882399F009
:102E0000F8948091990390919A03A0919B03B091BB
:102E10009C0378948093B7039093B803A093B9036D
:102E2000B093BA0308C01092B7031092B80310927F
:102E3000B9031092BA038091BB03882301F5F8947B
:102E40008091990390919A03A0919B03B0919C0368
:102E500078942091B7033091B8034091B903509111
:102E6000BA03821B930BA40BB50B8093B70390930B
:102E7000B803A093B903B093BA03C092BB03809187
:102E8000C003882301F5F89480919D0390919E03DF
:102E9000A0919F03B091A00378942091BC0330913E
:102EA000BD034091BE035091BF03821B930BA40B43
:102EB000B50B8093BC039093BD03A093BE03B09366
:102EC000BF03C092C003882499245401442455248C
:102ED00032018091C4038F5F8093C40390914502B7
:102EE00080914602981709F44ACCE0914502F0E03F
:102EF000EB5DFD4F9081809145028F5F803209F438
:102F000080E080934502E1E0F0E0EC0FFD1FED0D65
:102F1000F11D9083D39471E07D1508F0D7C08091A6
:102F2000C10381FF0EC08091CB03843651F48A81A6
:102F3000853739F08981833421F080E38A838B835C
:102F40001DCCCE0101960E94EC0A282F9981892F71
:102F50008F54823008F412CC8091C10381FF0ECCD3
:102F6000933409F40BCC222321F08A81843609F0B2
:102F700005CC8091C903882301F51092C5031092F6
:102F8000C6031092C7031092C8030E94C803209181
:102F9000C5033091C6034091C7035091C803621B1B
:102FA000730B840B950B6093C5037093C6038093DA
:102FB000C7039093C803C092C9038091C4038823B8
:102FC000E1F1C092CC038091C903882389F00E946B
:102FD000C8039B01AC018091C5039091C603A091E9
:102FE000C703B091C803281B390B4A0B5B0B08C001
:102FF0002091C5033091C6034091C7035091C80387
:10300000CA01B90120E137E240E050E00E94561BBE
:103010003093CD032093CE036091C2037091C3031C
:103020008AEC93E00E94B6048091C2039091C3039E
:1030300005969093C3038093C2038091C4038536A1
:1030400018F589818093CA038A818093CB0380918C
:10305000C903882359F00E94C8036093C503709385
:10306000C6038093C7039093C80308C01092C5039A
:103070001092C6031092C7031092C8038091C40334
:103080008F5F8093C4037ACB93E49983E4E6EA8369
:10309000A0EFB1E012C0E091A8029E2F9F5F903692
:1030A00009F490E08091A702981731F0F0E0EB5D11
:1030B000FD4F22A39093A80211962C91222359F739
:1030C0008091C10080628093C10058CB9C3109F08F
:1030D0007EC0D394E1E0F0E0EC0FFD1FED0DF11D9B
:1030E00020E3208342E0D416A1F780E090E0F99934
:1030F000FECF92BD81BD10BCFA9AF99A019652E0BA
:1031000080309507A1F7E091A8029E2F9F5F90362F
:1031100009F490E08091A702981739F0F0E0EB5D98
:10312000FD4F6DE162A39093A8028091C10080627F
:103130008093C1001092C3031092C2039091450284
:10314000809146029817D1F3E0914502F0E0EB5DE3
:10315000FD4FE081809145028F5F803209F480E06D
:1031600080934502EE3159F48091C2039091C303DC
:1031700065E070E00E940D1B892B09F49DC08091D1
:10318000C2039091C303F999FECF92BD81BDE0BD0A
:10319000FA9AF99A01969093C3038093C203E0913F
:1031A000A8029E2F9F5F903609F490E08091A702BD
:1031B000981739F0F0E0EB5DFD4F7FE172A390933B
:1031C000A8028091C10080628093C100B7CF963180
:1031D00009F0D5CAD394E1E0F0E0EC0FFD1FED0D4E
:1031E000F11D80E3808392E0D916A1F7E091A80257
:1031F0009E2F9F5F903609F490E08091A702981768
:1032000039F0F0E0EB5DFD4F27E122A39093A80297
:103210008091C10080628093C1001092C30310921C
:10322000C2032BC09091A7028091A8029817D1F7F2
:10323000F999FECF32BD21BDF89A20B5E091A802E0
:103240009E2F9F5F903609F490E08091A702981717
:1032500031F0F0E0EB5DFD4F22A39093A802809146
:10326000C10080628093C1008091C2039091C3032A
:1032700001969093C3038093C2032091C2033091BF
:10328000C30342E02030340768F2E091A8029E2F89
:103290009F5F903609F490E08091A702981739F06B
:1032A000F0E0EB5DFD4F58E152A39093A8028091AE
:1032B000C10080628093C1001092C3031092C203C8
:1032C0005DCAF894E22FF0E0EE0FFF1FEE5EFD4FB7
:1032D000F3CAF894E22FF0E0EE0FFF1FEE5EFD4F11
:1032E0003FCB8AEC93E00E94EC0A8091CC038130C2
:1032F00009F05FCD24CDFFCF84B1866084B91092F0
:103300008500109284009FEB909387008FEF80934D
:103310008600909389008093880090938B0080931F
:103320008A0082EF809380008AE18093810081E0AF
:1033300080936F0017BC18BC80936E0081EF84BD32
:103340001092B3001092B400109270001092B60068
:103350008093B00022E025BD2093B10083E883BDB7
:1033600016BC1092B20083E083BD239A8AB18866AE
:103370008AB988E080937E0083E480937C00109279
:103380007B008FED80937A0087B1876087B93B9887
:1033900080E094E0909313028093120290931502C0
:1033A000809314029093170280931602909319024F
:1033B0008093180290931B0280931A0290931D022F
:1033C00080931C0290931F0280931E02909321020F
:1033D0008093200257985F982093C00086E08093E6
:1033E000C2001092C50080E48093C40088E98093F5
:1033F000C10081E18093B8001092B9001092BD0025
:103400001092BA0085EC8093BC00289AEDE6F0E0BB
:10341000808184608083EBE6F0E08081806280833D
:1034200085E08BBB8093680078940E94CE12F8945C
:103430001092680010926D0010926B002898109204
:10344000BC001092C1001092C0001092C2005798A8
:103450005F9810927A0087B1807F87B914BC15BC41
:103460001092B0001092B100109281001092800072
:1034700084B1897F84B9FFE1E1E8099480E090E0BC
:1034800008951F9310924502109246021092A702CF
:103490001092A8021092E9021092EA0210922B03F5
:1034A00010922C0310925D0310925E0310928F0312
:1034B0001092900310929203109291031092950330
:1034C00010929703F8948091990390919A03A09198
:1034D0009B03B0919C0378948093A3039093A403DF
:1034E000A093A503B093A60381E08093A703F8946B
:1034F00080919D0390919E03A0919F03B091A003A2
:1035000078948093A8039093A903A093AA03B093FF
:10351000AB0381E08093AC03F89480919903909180
:103520009A03A0919B03B0919C0378948093AD0380
:103530009093AE03A093AF03B093B00381E0809368
:10354000B103F89480919D0390919E03A0919F03F5
:10355000B091A00378948093B2039093B303A093A7
:10356000B403B093B50381E08093B603F8948091DF
:10357000990390919A03A0919B03B0919C03789436
:103580008093B7039093B803A093B903B093BA03A1
:1035900081E08093BB03F89480919D0390919E03FA
:1035A000A0919F03B091A00378948093BC03909363
:1035B000BD03A093BE03B093BF0311E01093C003FB
:1035C0000E94C8036093C5037093C6038093C7032A
:1035D0009093C8031093C9031F910895629FD0016F
:1035E000739FF001829FE00DF11D649FE00DF11DBE
:1035F000929FF00D839FF00D749FF00D659FF00D6D
:103600009927729FB00DE11DF91F639FB00DE11D59
:10361000F91FBD01CF0111240895AA1BBB1B51E165
:1036200007C0AA1FBB1FA617B70710F0A61BB70B32
:10363000881F991F5A95A9F780959095BC01CD01D7
:10364000089597FB092E07260AD077FD04D0E5DF01
:1036500006D000201AF4709561957F4F0895F6F713
:10366000909581959F4F0895A1E21A2EAA1BBB1B2E
:10367000FD010DC0AA1FBB1FEE1FFF1FA217B3073E
:10368000E407F50720F0A21BB30BE40BF50B661F54
:10369000771F881F991F1A9469F760957095809518
:1036A00090959B01AC01BD01CF01089597FB092EB8
:1036B00005260ED057FD04D0D7DF0AD0001C38F401
:1036C00050954095309521953F4F4F4F5F4F08954E
:1036D000F6F790958095709561957F4F8F4F9F4F2E
:1036E0000895EE0FFF1F0590F491E02D0994F894D2
:0236F000FFCF0A
:1036F200456E67696E6520636F7272656374696F88
:103702006E206973200064697361626C6564200DC8
:103712000A00656E61626C6564200D0A0045726183
:1037220073696E6720454550524F4D2E2E2E006410
:103732006F6E650D0A005472616365207265636F76
:103742007264696E672069732000506C61796261EE
:10375200636B2073746F707065640D0A00506C6146
:1037620079696E672E2E0D0A00506C617962616371
:103772006B2000756E7061757365640D0A0070616F
:10378200757365640D0A000D0A53656E736F72736B
:103792003A20000D0A456E636F646572733A200D1C
:1037A2000A204C3A200020523A20000D0A52616E43
:1037B2006765200D0A4C3A2000636D204D3A2000C7
:1037C200636D20523A2000636D0D0A00506C6179DE
:1037D2006261636B2066696E69736865640D0A00D5
:1037E2004D656D6F72792066756C6C0D0A00000272
:0C37F200747E7A33050400010203060710
:00000001FF
