:100000000C9435000C945D000C945D000C945D0024
:100010000C945D000C945D000C945D000C945D00EC
:100020000C945D000C945D000C945D000C946A01CE
:100030000C945D000C945D000C945D000C945D00CC
:100040000C945D000C945D000C9432050C948B05AF
:100050000C945D000C944F020C945D000C945D00B8
:100060000C945D000C945D00C10811241FBECFEFFD
:10007000D8E0DEBFCDBF11E0A0E0B1E0E0EDF2E1FD
:1000800002C005900D92A231B107D9F711E0A2E1AB
:10009000B1E001C01D92AB3DB107E1F710E0CAE647
:1000A000D0E004C02297FE010E946209C836D10741
:1000B000C9F70E94B6080C9466090C940000E0EBA6
:1000C000F0E083EF8083808184BDE1EBF0E082E0AB
:1000D0008083808185BDE4EBF0E010828081E3EBDA
:1000E000F0E08083808188BD88B587BD8AB188664D
:1000F0008AB9239A5D985E985B982B98089514BCF2
:100100001092B00015BC1092B100089597FD02C086
:1001100020E004C0909581959F4F21E08F3F91058D
:1001200019F014F08FEF90E0222319F018BC87BD6E
:10013000089588BD17BC089597FD02C020E004C053
:10014000909581959F4F21E08F3F910519F014F014
:100150008FEF90E0222329F01092B4008093B30037
:1001600008958093B4001092B30008959C0180918B
:100170000201882341F0309315012093140181E09E
:1001800080931B010895C9010E949C0008959C0161
:1001900080910201882341F03093130120931201D2
:1001A00081E080931A010895C9010E948600089594
:1001B000882321F0CB010E949C000895CB010E946E
:1001C000860008950F931F938B010E94C700C801FA
:1001D0000E94B6001F910F910895FC01838588232A
:1001E000A1F18285861769F50895108628EE33E01F
:1001F0003383228384EF91E095838483808191818E
:10020000892B19F181E08187818580873783268357
:1002100080918000806180938000908181818093B3
:100220008B0090938A000895118681858087809144
:1002300080008F7E8093800010928B0010928A0045
:1002400008956287662389F6EFCF08958AE0809348
:10025000810010928B0010928A00229A2A980895A9
:10026000109226018091260180932501E0E8F0E0BC
:1002700080818F7E808310928B0010928A00089577
:10028000F89478946091290170912A0180912B0152
:1002900090912C010895F8941092290110922A014E
:1002A00010922B0110922C01789408958AE080938B
:1002B000810084E08093890082EE80938800EFE6DD
:1002C000F0E0808182608083089510928000109217
:1002D000810008951F920F920FB60F9211241F9361
:1002E0002F933F934F935F936F937F938F939F933E
:1002F000AF93BF93CF93DF93EF93FF938091290147
:1003000090912A01A0912B01B0912C010196A11D81
:10031000B11D8093290190932A01A0932B01B093E2
:100320002C01809126018823D9F18091230190919D
:1003300024012FEF8F3F920709F094C031C08091C4
:100340002501882391F080912101909122019093C1
:10035000240180932301809180008F7E8093800010
:1003600010928B0010928A0015C080911F0190910D
:10037000200190932401809323018091800080616B
:100380008093800090911D0180911E0180938B00CD
:1003900090938A008091250191E08927809325011F
:1003A00080911C01882309F066C081E080931C01C4
:1003B000C0E0D0E01C2FAE01465E5E4FFA018081A6
:1003C000882309F447C0CE01880F991FDC01AE5E77
:1003D000BE4F2D913C911197FC01EA5EFE4F80814A
:1003E00091812817390719F4FA01108233C02D9131
:1003F0003C9180819181281B390B37FF03C03095D8
:1004000021953F4F2115310511F021E030E0A90180
:10041000FE01EE0FFF1FDF01AE5EBE4F2D913C913E
:10042000EA5EFE4F80819181281739071CF45095B0
:1004300041955F4FFE01EE0FFF1FEA5EFE4F808188
:100440009181840F951F9183808360817181812FB9
:100450000E94D8002196C230D10509F0ABCF10928E
:100460001C0109C001979093240180932301892BDB
:1004700009F465CF95CFFF91EF91DF91CF91BF91B7
:10048000AF919F918F917F916F915F914F913F912C
:100490002F911F910F900FBE0F901F9018951F92D4
:1004A0000F920FB60F9211241F932F933F934F93E8
:1004B0005F936F937F938F939F93AF93BF93EF93CC
:1004C000FF931091D9011123C1F13091780020914F
:1004D0007900922F80E0232F30E0282B392B809158
:1004E000DA01E82FF0E0EE0FFF1FE35DFE4F3183EE
:1004F00020838F5F8093DA018630B1F41092DA01A5
:10050000809127018823A1F182E02F38380780F1FC
:100510008DE191E060E006C02E58324028F48DE174
:1005200091E061E00E94ED00E091DA01F0E0E45F2B
:10053000FE4F8081806480937C0081E018271093B7
:10054000D90180917A00806480937A00FF91EF91C5
:10055000BF91AF919F918F917F916F915F914F91DB
:100560003F912F911F910F900FBE0F901F901895E4
:10057000809127018823C1F6CFCFA62FF894482F6A
:1005800050E0FA01EE0FFF1FE35DFE4F03C07894C9
:100590000000F8948081918180509440C1F3608183
:1005A00071819B0178940000AA2369F1CA01880F28
:1005B000991FFC01ED5BFE4F20813181FC01E75C5E
:1005C000FE4F80819181281B390B11F49B0111C0D2
:1005D00080819181681B790B80E090E05AE0660F82
:1005E000771F881F991F5A95D1F740E050E00E946D
:1005F000450984E02130380714F020E034E037FF6B
:1006000002C020E030E0C901089580E090E020E0E1
:1006100034E0FC01EE0FFF1FDF01AD5BBE4F119612
:100620001C921E92E75CFE4F318320830196853039
:10063000910579F708954F925F926F927F928F9212
:100640009F92AF92BF92CF92DF92EF92FF920F9361
:100650001F93DF93CF93CDB7DEB764970FB6F894AF
:10066000DEBF0FBECDBFCC24EBE04E2E512C4C0E86
:100670005D1E3E010894611C711C29C08D2D60E037
:100680000E94BD029C01CC2031F0F8018081918153
:100690008217930728F4F80131832083CC2031F0AE
:1006A000F701808191812817390718F4F701318308
:1006B0002083D39482E090E0E80EF91E0E5F1F4F76
:1006C00095E0D916D9F6C394EAE0CE1631F042018E
:1006D000530172018301DD24D1CF20E030E0F40129
:1006E00040815181F901EE0FFF1FED5BFE4F8081CC
:1006F00091818417950710F451834083F50140815F
:100700005181F901EE0FFF1FE75CFE4F808191815F
:100710004817590710F4518340832F5F3F4F82E001
:1007200090E0880E991EA80EB91E25303105B9F645
:1007300064960FB6F894DEBF0FBECDBFCF91DF91A8
:100740001F910F91FF90EF90DF90CF90BF90AF90EF
:100750009F908F907F906F905F904F9008958FE360
:1007600080937E008FED80937A0010927B0080E46E
:1007700080937C0088B18F6388B980E094E0909387
:100780002E0180932D019093300180932F0190933F
:10079000320180933101909334018093330190931F
:1007A000360180933501909338018093370180E0C2
:1007B00090E020E034E0FC01EE0FFF1FDF01AD5BB5
:1007C000BE4F11961C921E92E75CFE4F3183208330
:1007D00001968530910579F7089510927A00089571
:1007E00045B170E09B0121703070220F331FCB01A7
:1007F0008670907033E0880F991F3A95E1F7282BA7
:100800004D7C242B25B98BB168707070B4E0660FF5
:10081000771FBA95E1F78F77862B8BB95C9A81E0C9
:1008200090E0FC016F9364E06A95F1F76F91319766
:10083000C9F75C986F9364E06A95F1F76F9101973F
:10084000C9F70895DF92EF92FF920F931F93CF9312
:10085000DF93EC01162F3AB157985A98289A60E026
:1008600070E0A1E0B0E0CD016F9364E06A95F1F72C
:100870006F910197C9F75C9ACD016F9364E06A9517
:10088000F1F76F910197C9F789B15C98FD016F93FA
:1008900064E06A95F1F76F913197C9F75C9AFD01B1
:1008A0006F9364E06A95F1F76F913197C9F75C989F
:1008B00087FF07C06C5F7F4F87E26031780709F0E0
:1008C000D2CF3AB9D4B0E5B0FAB00BB128984423EE
:1008D00011F05A9A01C05A9884B1826384B9579A28
:1008E000213051F0612F70E0E4E075956795EA954D
:1008F000E1F7CE010E94F0031F70CE01612F0E942C
:10090000F003FAB80BB9D4B8E5B8DF91CF911F91D5
:100910000F91FF90EF90DF90089540E022E00E9459
:100920002204089541E022E00E94220408950F93DA
:100930001F93529A209A549A2EE130E048EE53E0E9
:1009400008C0CA016F9364E06A95F1F76F9101974F
:10095000C9F7215030408FEF2F3F380791F78DE4D2
:1009600091E063E040E021E00E94220426E030E0D4
:1009700048EE53E008C0CA016F9364E06A95F1F74E
:100980006F910197C9F7215030408FEF2F3F380703
:1009900091F78DE491E063E040E021E00E942204C1
:1009A00008EE13E0C8016F9364E06A95F1F76F9168
:1009B0000197C9F7C8016F9364E06A95F1F76F91E9
:1009C0000197C9F78DE491E063E040E021E00E94E7
:1009D0002204C8016F9364E06A95F1F76F91019763
:1009E000C9F7C8016F9364E06A95F1F76F910197B9
:1009F000C9F78DE491E062E040E021E00E9422042A
:100A0000C8016F9364E06A95F1F76F910197C9F798
:100A1000C8016F9364E06A95F1F76F910197C9F788
:100A20008DE491E068E20E948D048DE491E068E03D
:100A30000E948D048DE491E061E00E948D048DE4BC
:100A400091E066E00E948D048DE491E06CE00E94EC
:100A50008D041F910F9108958DE491E061E00E9453
:100A60008D0408951F920F920FB60F9211242F93A9
:100A70003F934F935F936F937F938F939F93AF9326
:100A8000BF93EF93FF932091C6009091D801E92F77
:100A9000F0E0E85FFE4F80812817C9F4892F8F5F4F
:100AA0008093D8018430A9F414BC1092B00015BC16
:100AB0001092B1008DE491E061E00E948D04F89401
:100AC00088E18093600088E080936000FFCF1092FF
:100AD000D801E0916F019E2F9F5F903209F490E062
:100AE00080916E01981731F0F0E0E25BFE4F2083B9
:100AF00090936F01FF91EF91BF91AF919F918F9173
:100B00007F916F915F914F913F912F910F900FBE09
:100B10000F901F9018951F920F920FB60F921124ED
:100B20008F939F93EF93FF939091D0018091D10188
:100B3000981789F0E091D001F0E0E25BFE4F92A1BE
:100B40008091D0018F5F803609F480E08093D001DE
:100B50009093C60005C08091C1008F7D8093C10035
:100B6000FF91EF919F918F910F900FBE0F901F906B
:100B7000189584B18D7C84B985B1826385B9089557
:100B800085B18D7C85B908958AE08093810084E0E9
:100B90008093890082EE80938800EFE6F0E0808108
:100BA000826080830E9426010E945F000E94AF0342
:100BB0000E94970482E08093C00086E08093C20088
:100BC0001092C50080E48093C40088E98093C1003E
:100BD00084B18D7C84B985B1826385B90895109202
:100BE0008000109281000E94300114BC1092B0006D
:100BF00015BC1092B10010927A000E942C05109240
:100C0000C1001092C0001092C20085B18D7C85B9E0
:100C100008951F93CF93DF938091060191E0892778
:100C20008093060180910601882309F061C028EEB7
:100C300033E048EE53E008C0CA016F9364E06A9560
:100C4000F1F76F910197C9F7215030408FEF2F3F97
:100C5000380791F780E090E020E034E0FC01EE0FEF
:100C6000FF1FDF01AD5BBE4F11961C921E92E75C29
:100C7000FE4F3183208301968530910579F71092DC
:100C8000C1001092C0001092C2001CEEC8EED3E06A
:100C9000183228F088E290E068ED7FEF04C088ED1C
:100CA0009FEF68E270E00E94E2000E941B0384E173
:100CB00090E008C0FE016F9364E06A95F1F76F91D0
:100CC0003197C9F701972FEF8F3F920799F71F5F71
:100CD0001C33F1F682E08093C00086E08093C2006E
:100CE0001092C50080E48093C40088E98093C1001D
:100CF00080E090E060E070E00E94E200DF91CF9140
:100D00001F910895EF92FF920F931F93DF93CF935C
:100D1000CDB7DEB7A0970FB6F894DEBF0FBECDBF3C
:100D2000882309F454C0209103012223C1F030E04C
:100D3000DE01119646EF5FEF822F6AE00E94030901
:100D4000982FFD01E30FF11D205D849F802D11245C
:100D5000820F80833F5F9923E1F0292FEDCF80E35D
:100D6000898331E016C0FE01E30FF11D2081E0917F
:100D7000D1019E2F9F5F903609F490E08091D001C1
:100D8000981731F0F0E0E25BFE4F22A39093D1017F
:100D90003150332341F78091C10080628093C100BC
:100DA000E091D1019E2F9F5F903609F490E08091F1
:100DB000D001981739F0F0E0E25BFE4F80E282A3A9
:100DC0009093D1018091C10080628093C1008DE435
:100DD00091E060E80E948D04209103012223C1F07C
:100DE00010E0DE01119646EF5FEF822F6AE00E946D
:100DF0000309982FFD01E10FF11D205D849F802DD7
:100E00001124820F80831F5F992379F0292FEDCF62
:100E100080E3898311E009C0FE01E10FF11D8DE43B
:100E200091E060810E94920411501123A9F700E023
:100E300011E006C00F5F1F4F8DE491E00E94920405
:100E4000F80160816623B1F785E00E94BD02AA2700
:100E500097FDA095BA2FBC01CD0128E833E140E011
:100E600050E00E94E40861507E4F8F4F9F4F2FEF5C
:100E700033E040E050E00E942309DA01C901880F05
:100E8000991FAA1FBB1F820F931FA41FB51F019696
:100E9000A11DB11DB695A79597958795482F292F28
:100EA000892B21F110E07E010894E11CF11C842FB4
:100EB000922F6AE070E00E940F09F701E10FF11D27
:100EC000405DCB01880F991F9B0103E0220F331F68
:100ED0000A95E1F7820F931F481B40831F5F61153E
:100EE000710589F0CB01462F292FE1CF80E389835B
:100EF00011E009C0FE01E10FF11D8DE491E0608178
:100F00000E94920411501123A9F7A0960FB6F894ED
:100F1000DEBF0FBECDBFCF91DF911F910F91FF902C
:100F2000EF9008951C9906C01C9BFECF83B10E94D0
:100F3000090616C0199907C0199BFECF83B180918D
:100F40000301865F08C01D990BC01D9BFECF83B1B6
:100F5000809103018A508093030181E00E94820600
:100F600090916E0180916F01981749F1E0916E01A7
:100F7000F0E0E25BFE4FE08180916E018F5F803296
:100F800009F480E080936E01E33729F0E73779F0C8
:100F9000E137A9F403C00E94090608958091030176
:100FA000865F8093030181E00E948206089580910C
:100FB00003018A508093030181E00E948206089514
:100FC0006F927F928F929F92AF92BF92CF92DF9259
:100FD000EF92FF920F931F93CF93DF9366247724B2
:100FE000AA24BB24650188249924EE24FF248701C8
:100FF000872D61E00E94BD02EC0124E08030920761
:10100000B1F0893C910518F06624639403C08333E2
:10101000910568F0BE0180E090E0A80197010E9470
:10102000E408A60EB71EC81ED91E8C0E9D1E739412
:1010300088EE93E0A0E0B0E0E80EF91E0A1F1B1F47
:1010400095E07916A9F68114910409F44DC0662043
:1010500069F48091D6019091D7018C5D954018F08C
:1010600040EA5FE00FC040E050E00CC0940140E077
:1010700050E0C601B5010E942309A9013093D701B0
:101080002093D60181E090E09093D5018093D40124
:10109000809103018093D201809103018093D30159
:1010A000B3E0483E5B0758F482E390E09093D501AB
:1010B0008093D401809105018093D2010DC0495BDA
:1010C0005B4050F082E390E09093D5018093D4018F
:1010D000809105018093D3016091D3018091D20169
:1010E00090E070E00E94E200DF91CF911F910F919C
:1010F000FF90EF90DF90CF90BF90AF909F908F9038
:101100007F906F9008950F931F93CF93DF9310926A
:10111000020181E00E94820608EE13E0C1E0D0E007
:101120000E94920780910601882349F0C8016F93BD
:1011300064E06A95F1F76F910197C9F7F1CF80915B
:10114000D4019091D501009719F40E94E007E8CFEF
:10115000FE016F9364E06A95F1F76F913197C9F7DB
:1011600001979093D5018093D401DACF0E94C405F2
:1011700078940E948308F8940E94EF0580E090E044
:101180000895E6E2F1E01092260180912601809315
:101190002801809128013197808382EE94E090931A
:1011A0001E0180931D0110922201109221011092C4
:1011B000200110921F0110926E0110926F01109287
:1011C000D0011092D1010895629FD001739FF00168
:1011D000829FE00DF11D649FE00DF11D929FF00DC7
:1011E000839FF00D749FF00D659FF00D9927729FFE
:1011F000B00DE11DF91F639FB00DE11DF91FBD0189
:10120000CF0111240895991B79E004C0991F961706
:1012100008F0961B881F7A95C9F780950895AA1B38
:10122000BB1B51E107C0AA1FBB1FA617B70710F0D1
:10123000A61BB70B881F991F5A95A9F78095909503
:10124000BC01CD010895A1E21A2EAA1BBB1BFD0112
:101250000DC0AA1FBB1FEE1FFF1FA217B307E40795
:10126000F50720F0A21BB30BE40BF50B661F771FED
:10127000881F991F1A9469F76095709580959095CD
:101280009B01AC01BD01CF01089597FB092E0526F6
:101290000ED057FD04D0D7DF0AD0001C38F450958B
:1012A0004095309521953F4F4F4F5F4F0895F6F78A
:1012B00090958095709561957F4F8F4F9F4F0895C2
:1012C000EE0FFF1F0590F491E02D0994F894FFCFE5
:1012D0002000019646000102747E7A330001020369
:0212E000040602
:00000001FF
