:100000000C9435000C945D000C945D000C945D0024
:100010000C945D000C945D000C945D000C945D00EC
:100020000C945D000C945D000C945D000C946A01CE
:100030000C945D000C945D000C945D000C945D00CC
:100040000C945D000C945D000C9436050C948F05A7
:100050000C945D000C944F020C945D000C945D00B8
:100060000C945D000C945D00CD0911241FBECFEFF0
:10007000D8E0DEBFCDBF11E0A0E0B1E0E8EEF4E1F2
:1000800002C005900D92A631B107D9F711E0A6E1A3
:10009000B1E001C01D92AF3DB107E1F710E0CAE643
:1000A000D0E004C02297FE010E946E0AC836D10734
:1000B000C9F70E94C2090C94720A0C940000E0EB8C
:1000C000F0E083EF8083808184BDE1EBF0E082E0AB
:1000D0008083808185BDE4EBF0E010828081E3EBDA
:1000E000F0E08083808188BD88B587BD8AB188664D
:1000F0008AB9239A5D985E985B982B98089514BCF2
:100100001092B00015BC1092B100089597FD02C086
:1001100020E004C0909581959F4F21E08F3F91058D
:1001200019F014F08FEF90E0222319F018BC87BD6E
:10013000089588BD17BC089597FD02C020E004C053
:10014000909581959F4F21E08F3F910519F014F014
:100150008FEF90E0222329F01092B4008093B30037
:1001600008958093B4001092B30008959C0180918B
:100170000501882341F0309319012093180181E093
:1001800080931F010895C9010E949C0008959C015D
:1001900080910501882341F03093170120931601C7
:1001A00081E080931E010895C9010E948600089590
:1001B000882321F0CB010E949C000895CB010E946E
:1001C000860008950F931F938B010E94C700C801FA
:1001D0000E94B6001F910F910895FC01838588232A
:1001E000A1F18285861769F50895108628EE33E01F
:1001F0003383228384EF91E095838483808191818E
:10020000892B19F181E08187818580873783268357
:1002100080918000806180938000908181818093B3
:100220008B0090938A000895118681858087809144
:1002300080008F7E8093800010928B0010928A0045
:1002400008956287662389F6EFCF08958AE0809348
:10025000810010928B0010928A00229A2A980895A9
:1002600010922A0180912A0180932901E0E8F0E0B0
:1002700080818F7E808310928B0010928A00089577
:10028000F894789460912D0170912E0180912F0146
:10029000909130010895F89410922D0110922E0142
:1002A00010922F0110923001789408958AE0809383
:1002B000810084E08093890082EE80938800EFE6DD
:1002C000F0E0808182608083089510928000109217
:1002D000810008951F920F920FB60F9211241F9361
:1002E0002F933F934F935F936F937F938F939F933E
:1002F000AF93BF93CF93DF93EF93FF9380912D0143
:1003000090912E01A0912F01B09130010196A11D75
:10031000B11D80932D0190932E01A0932F01B093D6
:10032000300180912A018823D9F180912701909191
:1003300028012FEF8F3F920709F094C031C08091C0
:100340002901882391F080912501909126019093B5
:10035000280180932701809180008F7E8093800008
:1003600010928B0010928A0015C080912301909109
:10037000240190932801809327018091800080615F
:1003800080938000909121018091220180938B00C5
:1003900090938A008091290191E089278093290117
:1003A00080912001882309F066C081E080932001BC
:1003B000C0E0D0E01C2FAE01425E5E4FFA018081AA
:1003C000882309F447C0CE01880F991FDC01AA5E7B
:1003D000BE4F2D913C911197FC01E65EFE4F80814E
:1003E00091812817390719F4FA01108233C02D9131
:1003F0003C9180819181281B390B37FF03C03095D8
:1004000021953F4F2115310511F021E030E0A90180
:10041000FE01EE0FFF1FDF01AA5EBE4F2D913C9142
:10042000E65EFE4F80819181281739071CF45095B4
:1004300041955F4FFE01EE0FFF1FE65EFE4F80818C
:100440009181840F951F9183808360817181812FB9
:100450000E94D8002196C230D10509F0ABCF10928E
:10046000200109C001979093280180932701892BCF
:1004700009F465CF95CFFF91EF91DF91CF91BF91B7
:10048000AF919F918F917F916F915F914F913F912C
:100490002F911F910F900FBE0F901F9018951F92D4
:1004A0000F920FB60F9211241F932F933F934F93E8
:1004B0005F936F937F938F939F93AF93BF93EF93CC
:1004C000FF931091DD011123C1F13091780020914B
:1004D0007900922F80E0232F30E0282B392B809158
:1004E000DE01E82FF0E0EE0FFF1FEF5CFE4F3183DF
:1004F00020838F5F8093DE018630B1F41092DE019D
:1005000080912B018823A1F182E02F38380780F1F8
:1005100081E291E060E006C02E58324028F481E28A
:1005200091E061E00E94ED00E091DE01F0E0E15F2A
:10053000FE4F8081806480937C0081E018271093B7
:10054000DD0180917A00806480937A00FF91EF91C1
:10055000BF91AF919F918F917F916F915F914F91DB
:100560003F912F911F910F900FBE0F901F901895E4
:1005700080912B018823C1F6CFCFCF93DF93A62F95
:10058000F894482F50E0FA01EE0FFF1FEF5CFE4F8A
:1005900003C078940000F894808191818050944049
:1005A000C1F3608171819B0178940000AA2369F1F5
:1005B000CA01880F991FFC01E95BFE4FC081D18100
:1005C000FC01E35CFE4F80819181C81BD90B11F4C3
:1005D0009B0111C080819181681B790B80E090E0C4
:1005E00028EE33E040E050E00E94F0099E0140E038
:1005F00050E00E94510A84E02130380714F020E0D6
:1006000034E037FF02C020E030E0C901DF91CF9134
:10061000089580E090E020E034E0FC01EE0FFF1F41
:10062000DF01A95BBE4F11961C921E92E35CFE4F48
:100630003183208301968530910579F708954F9293
:100640005F926F927F928F929F92AF92BF92CF9262
:10065000DF92EF92FF920F931F93DF93CF93CDB76B
:10066000DEB764970FB6F894DEBF0FBECDBFCC24C3
:100670001BE0412E512C4C0E5D1E3E010894611C66
:10068000711C29C08D2D60E00E94BD029C01CC2010
:1006900031F0F801808191818217930728F4F801E5
:1006A00031832083CC2031F0F7018081918128179C
:1006B000390718F4F70131832083D39482E090E066
:1006C000E80EF91E0E5F1F4F95E0D916D9F6C394B8
:1006D000EAE0CE1631F04201530172018301DD24BC
:1006E000D1CF20E030E0F40140815181F901EE0FDB
:1006F000FF1FE95BFE4F808191818417950710F4FD
:1007000051834083F50140815181F901EE0FFF1FB4
:10071000E35CFE4F808191814817590710F45183A3
:1007200040832F5F3F4F82E090E0880E991EA80E15
:10073000B91E25303105B9F664960FB6F894DEBFC0
:100740000FBECDBFCF91DF911F910F91FF90EF9022
:10075000DF90CF90BF90AF909F908F907F906F90E1
:100760005F904F9008958FE380937E008FED80938C
:100770007A0010927B0080E480937C0088B18F63C4
:1007800088B980E094E09093320180933101909396
:100790003401809333019093360180933501909317
:1007A00038018093370190933A01809339019093F7
:1007B0003C0180933B0180E090E020E034E0FC01CC
:1007C000EE0FFF1FDF01A95BBE4F11961C921E9218
:1007D000E35CFE4F3183208301968530910579F7E4
:1007E000089510927A00089545B170E09B01217040
:1007F0003070220F331FCB0186709070E3E0880FBA
:10080000991FEA95E1F7282B4D7C242B25B98BB154
:100810006870707054E0660F771F5A95E1F78F7714
:10082000862B8BB95C9A81E090E0FC016F9364E0C9
:100830006A95F1F76F913197C9F75C986F9364E00F
:100840006A95F1F76F910197C9F70895DF92EF92DA
:10085000FF920F931F93CF93DF93EC01162F3AB1C2
:1008600057985A98289A60E070E0A1E0B0E0CD0176
:100870006F9364E06A95F1F76F910197C9F75C9AFD
:10088000CD016F9364E06A95F1F76F910197C9F715
:1008900089B15C98FD016F9364E06A95F1F76F91FF
:1008A0003197C9F75C9AFD016F9364E06A95F1F79F
:1008B0006F913197C9F75C9887FF07C06C5F7F4FD6
:1008C00087E26031780709F0D2CF3AB9D4B0E5B009
:1008D000FAB00BB12898442311F05A9A01C05A98E3
:1008E00084B1826384B9579A213051F0612F70E04E
:1008F000A4E075956795AA95E1F7CE010E94F403EF
:100900001F70CE01612F0E94F403FAB80BB9D4B85E
:10091000E5B8DF91CF911F910F91FF90EF90DF909D
:10092000089540E022E00E942604089541E022E07C
:100930000E94260408950F931F93529A209A549A66
:100940002EE130E048EE53E008C0CA016F9364E046
:100950006A95F1F76F910197C9F7215030408FEFF9
:100960002F3F380791F781E591E063E040E021E017
:100970000E94260426E030E048EE53E008C0CA0199
:100980006F9364E06A95F1F76F910197C9F7215071
:1009900030408FEF2F3F380791F781E591E063E01A
:1009A00040E021E00E94260408EE13E0C8016F93A6
:1009B00064E06A95F1F76F910197C9F7C8016F93E9
:1009C00064E06A95F1F76F910197C9F781E591E0CD
:1009D00063E040E021E00E942604C8016F9364E0D8
:1009E0006A95F1F76F910197C9F7C8016F9364E0B9
:1009F0006A95F1F76F910197C9F781E591E062E09F
:100A000040E021E00E942604C8016F9364E06A95EB
:100A1000F1F76F910197C9F7C8016F9364E06A9588
:100A2000F1F76F910197C9F781E591E068E20E94C3
:100A3000910481E591E068E00E94910481E591E0F4
:100A400061E00E94910481E591E066E00E949104DA
:100A500081E591E06CE00E9491041F910F9108954F
:100A600081E591E061E00E94910408951F920F9248
:100A70000FB60F9211242F933F934F935F936F9371
:100A80007F938F939F93AF93BF93EF93FF932091A7
:100A9000C6009091DC01E92FF0E0E55FFE4F808118
:100AA0002817C9F4892F8F5F8093DC018430A9F463
:100AB00014BC1092B00015BC1092B10081E591E019
:100AC00061E00E949104F89488E18093600088E0DE
:100AD00080936000FFCF1092DC01E09173019E2FA4
:100AE0009F5F903209F490E080917201981731F085
:100AF000F0E0EE5AFE4F208390937301FF91EF9147
:100B0000BF91AF919F918F917F916F915F914F9125
:100B10003F912F910F900FBE0F901F9018951F922D
:100B20000F920FB60F9211248F939F93EF93FF9321
:100B30009091D4018091D501981789F0E091D4016A
:100B4000F0E0EE5AFE4F92A18091D4018F5F803683
:100B500009F480E08093D4019093C60005C0809191
:100B6000C1008F7D8093C100FF91EF919F918F9184
:100B70000F900FBE0F901F90189584B18D7C84B993
:100B800085B1826385B9089585B18D7C85B9089555
:100B90008AE08093810084E08093890082EE8093D4
:100BA0008800EFE6F0E08081826080830E94260169
:100BB0000E945F000E94B3030E949B0482E0809326
:100BC000C00086E08093C2001092C50080E480934C
:100BD000C40088E98093C10084B18D7C84B985B15B
:100BE000826385B9089510928000109281000E945E
:100BF000300114BC1092B00015BC1092B1001092DC
:100C00007A000E9430051092C1001092C00010922C
:100C1000C20085B18D7C85B908951F93CF93DF9372
:100C20008091090191E08927809309018091090150
:100C3000882309F061C028EE33E048EE53E008C095
:100C4000CA016F9364E06A95F1F76F910197C9F754
:100C5000215030408FEF2F3F380791F780E090E030
:100C600020E034E0FC01EE0FFF1FDF01A95BBE4F67
:100C700011961C921E92E35CFE4F318320830196F5
:100C80008530910579F71092C1001092C000109242
:100C9000C2001CEEC8EED3E0183228F088E290E0E3
:100CA00068ED7FEF04C088ED9FEF68E270E00E947E
:100CB000E2000E941F0384E190E008C0FE016F93F0
:100CC00064E06A95F1F76F913197C9F701972FEFBB
:100CD0008F3F920799F71F5F1C33F1F682E08093F4
:100CE000C00086E08093C2001092C50080E480932B
:100CF000C40088E98093C10080E090E060E070E08B
:100D00000E94E200DF91CF911F910895DF92EF9250
:100D1000FF920F931F93DF93CF93CDB7DEB7A097CA
:100D20000FB6F894DEBF0FBECDBF882309F454C0C0
:100D3000209106012223C1F030E0DE01119646EF3A
:100D40005FEF822F6AE00E940F0A982FFD01E30FE8
:100D5000F11D205D849F802D1124820F80833F5FD1
:100D60009923E1F0292FEDCF80E3898331E016C08C
:100D7000FE01E30FF11D2081E091D5019E2F9F5FC1
:100D8000903609F490E08091D401981731F0F0E0AA
:100D9000EE5AFE4F22A39093D5013150332341F7F1
:100DA0008091C10080628093C100E091D5019E2FA7
:100DB0009F5F903609F490E08091D401981739F044
:100DC000F0E0EE5AFE4F80E282A39093D50180912D
:100DD000C10080628093C1000091060181E591E02D
:100DE00064EC0E9491040023C9F010E0AE014F5F53
:100DF0005F4F26EF3FEF802F6AE00E940F0A982F87
:100E0000FA01E10FF11D005D829F802D1124800FFA
:100E100080831F5F992379F0092FEDCF80E38983C9
:100E200011E009C0FE01E10FF11D81E591E0608153
:100E30000E94960411501123A9F700E011E006C0AA
:100E40000F5F1F4F81E591E00E949604F8016081D9
:100E50006623B1F785E00E94BD02AA2797FDA09501
:100E6000BA2FBC01CD0128E833E140E050E00E94F8
:100E7000F00961507E4F8F4F9F4F2FEF33E040E0DE
:100E800050E00E942F0A79018A01EE0CFF1C001F1E
:100E9000111FE20EF31E041F151F0894E11CF11C24
:100EA000011D111D16950795F794E7940E2DDF2C63
:100EB00081E591E064E80E949104EF2829F110E0B7
:100EC0007E010894E11CF11C802F9D2D6AE070E0EA
:100ED0000E941B0AF701E10FF11D402F405DCB017D
:100EE000880F991F9B0103E0220F331F0A95E1F73A
:100EF000820F931F481B40831F5F6115710589F0A6
:100F0000CB01062FD92EE0CF80E3898311E009C001
:100F1000FE01E10FF11D81E591E060810E949604E0
:100F200011501123A9F7A0960FB6F894DEBF0FBE9B
:100F3000CDBFCF91DF911F910F91FF90EF90DF9088
:100F400008951C9906C01C9BFECF83B10E940D061C
:100F500016C0199907C0199BFECF83B18091060175
:100F6000865F08C01D990BC01D9BFECF83B1809189
:100F700006018A508093060181E00E9486069091C6
:100F8000720180917301981749F1E0917201F0E0CC
:100F9000EE5AFE4FE081809172018F5F803209F43A
:100FA00080E080937201E33729F0E73779F0E13789
:100FB000A9F403C00E940D06089580910601865F82
:100FC0008093060181E00E948606089580910601C3
:100FD0008A508093060181E00E9486060895AF92B0
:100FE000BF92DF92EF92FF920F931F93DF93CF9305
:100FF000CDB7DEB7A0970FB6F894DEBF0FBECDBF5A
:101000007C01D42E6115710519F1162F00E05E01E7
:101010000894A11CB11C812F972F6AE070E00E94F8
:101020001B0AF501E00FF11D105DCB01880F991F20
:10103000AB01A3E0440F551FAA95E1F7840F951F5C
:10104000181B10830F5F162F6115710521F715C04E
:1010500080E3898301E011C02C91922F9F5F90362D
:1010600009F490E0FA018081981729F0F701E20F66
:10107000F11D32A39C93DA9407C0D701AD57BF4F3F
:10108000A7014E575F4F30E20D1530F315C0FE013A
:10109000E00FF11D30812C91922F9F5F903609F463
:1010A00090E0FA018081981729F0F701E20FF11D15
:1010B00032A39C93015006C0D701AD57BF4FA70183
:1010C0004E575F4F002319F78091C10080628093D3
:1010D000C100A0960FB6F894DEBF0FBECDBFCF9172
:1010E000DF911F910F91FF90EF90DF90BF90AF9035
:1010F00008953F924F925F926F927F928F929F924C
:10110000AF92BF92CF92DF92EF92FF920F931F9315
:10111000CF93DF93442455248824992454016624D2
:101120007724CC24DD24760110E2312E852D61E078
:101130000E94BD02EC018C0124E08030920719F47A
:1011400000E010E017C083E0CF38D80718F044243F
:10115000439403C0C333D10568F0BE0180E090E042
:10116000A70196010E94F009860E971EA81EB91EBF
:101170006C0E7D1E82E591E0B80144E00E94EF070D
:10118000E091D5019E2F9F5F903609F490E0809109
:10119000D401981731F0F0E0EE5AFE4F32A290934E
:1011A000D5018091C10080628093C100539488EE84
:1011B00093E0A0E0B0E0C80ED91EEA1EFB1E95E049
:1011C000591609F0B3CF6114710409F496C0442094
:1011D00069F48091DA019091DB01805D974018F00D
:1011E000C0EADFE00FC0C0E0D0E00CC0930140E0F7
:1011F00050E0C501B4010E942F0AE9013093DB01E0
:101200002093DA0182E591E0BE0144E00E94EF07FD
:10121000E091D5019E2F9F5F903609F490E0809178
:10122000D401981739F0F0E0EE5AFE4F80E282A325
:101230009093D5018091C10080628093C10060913C
:10124000DA017091DB0182E591E044E00E94EF0752
:10125000A2E0B1E012C0E091D5019E2F9F5F9036D1
:1012600009F490E08091D401981731F0F0E0EE5A43
:10127000FE4F22A39093D50111962C91222359F76A
:101280008091C10080628093C1009091D4018091CF
:10129000D5019817D1F781E090E09093D901809320
:1012A000D801809106018093D60180910601809338
:1012B000D701B3E0C83EDB0758F482E390E0909397
:1012C000D9018093D801809108018093D6010DC087
:1012D000C95BDB4050F082E390E09093D9018093AA
:1012E000D801809108018093D7016091D701809146
:1012F000D60190E070E00E94E200DF91CF911F9153
:101300000F91FF90EF90DF90CF90BF90AF909F90A4
:101310008F907F906F905F904F903F9008950F93C4
:101320001F93CF93DF931092050181E00E94860600
:1013300008EE13E0C1E0D0E00E94A107809109010E
:10134000882349F0C8016F9364E06A95F1F76F91C3
:101350000197C9F7F1CF8091D8019091D9010097F9
:1013600019F40E947908E8CFFE016F9364E06A9552
:10137000F1F76F913197C9F701979093D901809355
:10138000D801DACF0E94C80578940E948F09F8949A
:101390000E94F30580E090E00895EAE2F1E0109207
:1013A0002A0180912A0180932C0180912C01319790
:1013B000808382EE94E09093220180932101109229
:1013C00026011092250110922401109223011092FF
:1013D0007201109273011092D4011092D5010895F8
:1013E000629FD001739FF001829FE00DF11D649F09
:1013F000E00DF11D929FF00D839FF00D749FF00D95
:10140000659FF00D9927729FB00DE11DF91F639F35
:10141000B00DE11DF91FBD01CF0111240895991BE5
:1014200079E004C0991F961708F0961B881F7A95DB
:10143000C9F780950895AA1BBB1B51E107C0AA1FDD
:10144000BB1FA617B70710F0A61BB70B881F991F65
:101450005A95A9F780959095BC01CD010895A1E218
:101460001A2EAA1BBB1BFD010DC0AA1FBB1FEE1F1E
:10147000FF1FA217B307E407F50720F0A21BB30B69
:10148000E40BF50B661F771F881F991F1A9469F7E5
:1014900060957095809590959B01AC01BD01CF0141
:1014A000089597FB092E05260ED057FD04D0D7DFEF
:1014B0000AD0001C38F450954095309521953F4F47
:1014C0004F4F5F4F0895F6F7909580957095619511
:1014D0007F4F8F4F9F4F0895EE0FFF1F0590F491A0
:0814E000E02D0994F894FFCF00
:1014E80020000D0A00013246000102747E7A3300A2
:0614F800010203040600DE
:00000001FF
