:100000000C9435000C945D000C945D000C945D0024
:100010000C945D000C945D000C945D000C945D00EC
:100020000C945D000C945D000C945D000C945D00DC
:100030000C945D000C945D000C945D000C945D00CC
:100040000C945D000C945D000C94C1000C940701AD
:100050000C945D000C945D000C945D000C945D00AC
:100060000C945D000C945D00780211241FBECFEF4C
:10007000D8E0DEBFCDBF11E0A0E0B1E0EAE1F5E0FD
:1000800002C005900D92A430B107D9F711E0A4E0A9
:10009000B1E001C01D92AA39B107E1F710E0CAE64C
:1000A000D0E004C02297FE010E948702C836D10723
:1000B000C9F70E946D020C948B020C940000E0EBD7
:1000C000F0E083EF8083808184BDE1EBF0E082E0AB
:1000D0008083808185BDE4EBF0E010828081E3EBDA
:1000E000F0E08083808188BD88B587BD8AB188664D
:1000F0008AB9239A5D985E985B982B98089514BCF2
:100100001092B00015BC1092B100089597FD02C086
:1001100020E004C0909581959F4F21E08F3F91058D
:1001200019F014F08FEF90E0222319F018BC87BD6E
:10013000089588BD17BC089597FD02C020E004C053
:10014000909581959F4F21E08F3F910519F014F014
:100150008FEF90E0222329F01092B4008093B30037
:1001600008958093B4001092B30008950F931F93E5
:100170008B010E948600C8010E949C001F910F9174
:1001800008951F920F920FB60F9211242F938F9301
:100190009F93EF93FF932091C60090919901E92FCF
:1001A000F0E0E050FF4F80812817A1F4892F8F5F86
:1001B00080939901843081F414BC1092B00015BC76
:1001C0001092B100F89488E18093600088E08093F9
:1001D0006000FFCF10929901E09125019E2F9F5F53
:1001E000903209F490E080912401981731F0F0E00A
:1001F000EC5FFE4F208390932501FF91EF919F913B
:100200008F912F910F900FBE0F901F9018951F92F6
:100210000F920FB60F9211248F939F93EF93FF933A
:100220009091860180918701981789F0E09186016D
:10023000F0E0EC5FFE4F92A1809186018F5F8036E7
:1002400009F480E0809386019093C60005C08091F8
:10025000C1008F7D8093C100FF91EF919F918F919D
:100260000F900FBE0F901F9018950E945F0082E0C4
:100270008093C00086E08093C2001092C50080E4A5
:100280008093C40088E98093C100089514BC109243
:10029000B00015BC1092B1001092C1001092C000C5
:1002A0001092C20008959091240180912501981721
:1002B00009F45CC0E0912401F0E0EC5FFE4F408166
:1002C000809124018F5F803209F480E080932401C3
:1002D00080919401882309F04BC04F3F09F048C03A
:1002E00081E08093940180E00895413009F045C099
:1002F00040939501109294011EC0409389011BC048
:1003000080919501833019F44093880114C0809145
:100310009501843058F1209195018091890190E0F8
:10032000039630E0821793070CF1E0919501F0E01D
:10033000EA57FE4F4083809195018F5F809395012E
:1003400080919501843090F080918801882371F02C
:100350002091950130E08091890190E00496281762
:10036000390721F41092950181E0089580E0089505
:1003700080919401882309F0B8CF80919501823053
:1003800009F0BECFBACFFC018081833009F09BC059
:10039000828190E0880F991F909397018093960136
:1003A00083818093980180919801882329F480E0CB
:1003B00090E060E070E07EC08091980180FF26C0F0
:1003C0008091980182FF0AC08091960190919701D7
:1003D0006091960170919701C2976CC080919801CD
:1003E00083FF0BC0809196019091970160919601D7
:1003F00070919701625370405DC080919601909119
:100400009701609196017091970154C08091980175
:1004100081FF31C08091980182FF10C02091960128
:100420003091970160919601709197017095619557
:100430007F4F82E390E0821B930B3CC08091980138
:1004400083FF0DC0809196019091970120919601B4
:100450003091970162E370E0621B730B18C08091CA
:100460009601909197016091960170919701709516
:1004700061957F4F0CC08091980182FF0CC08091E4
:1004800096019091970160919601709197019095D6
:1004900081959F4F0FC08091980183FF0EC080917E
:1004A00096019091970160919601709197017095D6
:1004B00061957F4F0E94B600089580E090E060E073
:1004C00070E00E94B60008950E9453018823E1F372
:1004D00088E891E00E94C301F7CF0E94350178942B
:1004E0000E946402F8940E94460180E090E0089522
:1004F000109224011092250110928601109287011A
:1005000010928801109289010895EE0FFF1F059047
:0A051000F491E02D0994F894FFCF58
:04051A00747E7A333E
:00000001FF
