:100000000C9435000C945D000C945D000C945D0024
:100010000C945D000C945D000C945D000C945D00EC
:100020000C945D000C945D000C945D000C945D00DC
:100030000C945D000C945D000C945D000C945D00CC
:100040000C945D000C945D000C9431020C948A02B7
:100050000C945D000C945D000C945D000C945D00AC
:100060000C945D000C945D00920411241FBECFEF30
:10007000D8E0DEBFCDBF11E0A0E0B1E0ECE9F9E0EF
:1000800002C005900D92AE30B107D9F711E0AEE095
:10009000B1E001C01D92A23AB107E1F710E0CAE653
:1000A000D0E004C02297FE010E94C804C836D107E0
:1000B000C9F70E9487040C94CC040C940000E0EB78
:1000C000F0E083EF8083808184BDE1EBF0E082E0AB
:1000D0008083808185BDE4EBF0E010828081E3EBDA
:1000E000F0E08083808188BD88B587BD8AB188664D
:1000F0008AB9239A5D985E985B982B98089514BCF2
:100100001092B00015BC1092B100089597FD02C086
:1001100020E004C0909581959F4F21E08F3F91058D
:1001200019F014F08FEF90E0222319F018BC87BD6E
:10013000089588BD17BC089597FD02C020E004C053
:10014000909581959F4F21E08F3F910519F014F014
:100150008FEF90E0222329F01092B4008093B30037
:1001600008958093B4001092B30008950F931F93E5
:100170008B010E948600C8010E949C001F910F9174
:10018000089545B170E09B0121703070220F331F3C
:10019000CB018670907033E0880F991F3A95E1F794
:1001A000282B4D7C242B25B98BB16870707094E09E
:1001B000660F771F9A95E1F78F77862B8BB95C9A3C
:1001C00081E090E0FC016F9364E06A95F1F76F9134
:1001D0003197C9F75C986F9364E06A95F1F76F9176
:1001E0000197C9F70895DF92EF92FF920F931F9343
:1001F000CF93DF93EC01162F3AB157985A98289A6B
:1002000060E070E0A1E0B0E0CD016F9364E06A953A
:10021000F1F76F910197C9F75C9ACD016F9364E094
:100220006A95F1F76F910197C9F789B15C98FD0163
:100230006F9364E06A95F1F76F913197C9F75C9A13
:10024000FD016F9364E06A95F1F76F913197C9F7FB
:100250005C9887FF07C06C5F7F4F87E2603178074B
:1002600009F0D2CF3AB9D4B0E5B0FAB00BB12898C2
:10027000442311F05A9A01C05A9884B1826384B918
:10028000579A213051F0612F70E0E4E07595679541
:10029000EA95E1F7CE010E94C1001F70CE01612FE7
:1002A0000E94C100FAB80BB9D4B8E5B8DF91CF917C
:1002B0001F910F91FF90EF90DF90089540E022E0B2
:1002C0000E94F3000895EF92FF920F931F93DF9324
:1002D000CF9300D000D0CDB7DEB77C018B0180E892
:1002E000898380EC8A8384E98B8384ED8C83FE018F
:1002F000E20FF11D6181640FC7010E945E0107C01A
:100300000F5F1F4FC70141E022E00E94F300F80198
:1003100060816623A9F70F900F900F900F90CF91F7
:10032000DF911F910F91FF90EF9008950F931F930E
:10033000529A209A549A2EE130E048EE53E008C0D9
:10034000CA016F9364E06A95F1F76F910197C9F75D
:10035000215030408FEF2F3F380791F78EE091E02A
:1003600063E040E021E00E94F30026E030E048EE48
:1003700053E008C0CA016F9364E06A95F1F76F918A
:100380000197C9F7215030408FEF2F3F380791F781
:100390008EE091E063E040E021E00E94F30008EE8F
:1003A00013E0C8016F9364E06A95F1F76F910197CC
:1003B000C9F7C8016F9364E06A95F1F76F910197EF
:1003C000C9F78EE091E063E040E021E00E94F30095
:1003D000C8016F9364E06A95F1F76F910197C9F7CF
:1003E000C8016F9364E06A95F1F76F910197C9F7BF
:1003F0008EE091E062E040E021E00E94F300C8015D
:100400006F9364E06A95F1F76F910197C9F7C8019E
:100410006F9364E06A95F1F76F910197C9F78EE0E9
:1004200091E068E20E945E018EE091E068E00E9447
:100430005E018EE091E061E00E945E018EE091E05D
:1004400066E00E945E018EE091E06CE00E945E0139
:100450001F910F9108958EE091E061E00E945E018E
:1004600008951F920F920FB60F9211242F933F936E
:100470004F935F936F937F938F939F93AF93BF93AC
:10048000EF93FF932091C6009091A101E92FF0E036
:10049000E65FFE4F80812817C9F4892F8F5F809314
:1004A000A1018430A9F414BC1092B00015BC1092C4
:1004B000B1008EE091E061E00E945E01F89488E175
:1004C0008093600088E080936000FFCF1092A101CC
:1004D000E09130019E2F9F5F903209F490E080916F
:1004E0002F01981731F0F0E0E15FFE4F20839093E9
:1004F0003001FF91EF91BF91AF919F918F917F91CB
:100500006F915F914F913F912F910F900FBE0F9080
:100510001F9018951F920F920FB60F9211248F9370
:100520009F93EF93FF93909191018091920198177F
:1005300089F0E0919101F0E0E15FFE4F92A180919E
:1005400091018F5F803609F480E080939101909350
:10055000C60005C08091C1008F7D8093C100FF91CE
:10056000EF919F918F910F900FBE0F901F90189554
:100570000E945F000E94960182E08093C00086E0A6
:100580008093C2001092C50080E48093C40088E983
:100590008093C100089514BC1092B00015BC109255
:1005A000B1000E942B021092C1001092C000109264
:1005B000C200089590912F0180913001981709F49D
:1005C00062C0E0912F01F0E0E15FFE4F4081809139
:1005D0002F018F5F803209F480E080932F0180919A
:1005E0009F01882309F051C08091A001882309F060
:1005F0004CC04F3F09F049C081E080939F0180E0EB
:100600000895413009F046C04093A00110929F0127
:100610001FC04150409394011BC08091A0018330C2
:1006200019F44093930114C08091A001843058F1D3
:100630002091A0018091940190E0039630E0821710
:1006400093070CF1E091A001F0E0EF56FE4F4083DC
:100650008091A0018F5F8093A0018091A0018430E0
:1006600090F080919301882371F02091A00130E0F7
:100670008091940190E004962817390721F4109294
:10068000A00181E0089580E0089580919F01882372
:1006900009F0B7CF8091A001823009F0BECFB9CF69
:1006A0009C0197FF03C0309521953F4FC9010895E4
:1006B000492F441F4427441F9C0197FF0AC03095CF
:1006C00021953F4F06C0C9016AE070E00E949F0477
:1006D0009B014F5F2A303105B4F7842F08956F9244
:1006E0007F928F929F92AF92BF92CF92DF92EF92C2
:1006F000FF920F931F93DF93CF93CDB7DEB7A097F1
:100700000FB6F894DEBF0FBECDBF4C017B01C42EE7
:100710006115710591F18B0177FF04C00027112746
:10072000061B170BDD243E010894611C711CF6EFBB
:10073000AF2EFFEFBF2E15C0C8016AE070E00E9427
:100740009F04F301ED0DF11D402F405D6A9DC00136
:100750006B9D900D7A9D900D1124480F4083D3948A
:100760008B011016110644F3F7FE13C0FE01ED0DC8
:10077000F11D8DE28183D3940CC080E38983DD2455
:10078000D39407C0C40160E241E022E00E94F3007C
:10079000CA94DC14B8F30AC0FE01ED0DF11DC401CA
:1007A000608141E022E00E94F300DA94DD20A1F7AD
:1007B000A0960FB6F894DEBF0FBECDBFCF91DF91EC
:1007C0001F910F91FF90EF90DF90CF90BF90AF906F
:1007D0009F908F907F906F9008950F931F93CF936A
:1007E000DF93EC018881843009F064C08A81992705
:1007F00087FD9095982F88272B8130E0822B932BB3
:100800000E949C008C81992787FD9095982F8827BE
:100810002D8130E0822B932B0E9486000C811127C2
:1008200007FD1095102F00278D8190E0082B192BC4
:100830008EE091E060EC0E945E018EE091E0B801F4
:1008400040E00E946F038C81992787FD9095982F37
:1008500088272D8130E0822B932B0E945803182F7C
:100860008A81992787FD9095982F88272B8130E0E2
:10087000822B932B0E945803082F0195011B085FC0
:1008800008C08EE091E060E241E022E00E94F300C7
:1008900001500023B1F76A81772767FD7095762FA5
:1008A00066278B8190E0682B792B8EE091E040E009
:1008B0000E946F03DF91CF911F910F910895CF9305
:1008C000DF93C0E0D1E007C021968EE091E041E0E7
:1008D00022E00E94F30068816623B1F78EE091E088
:1008E00068E071E040E021E00E9463018EE091E069
:1008F00068E071E047E021E00E9463010E94DA02B3
:100900008823E1F383E991E00E94ED03F7CF0E9491
:10091000B80278940E945F04F8940E94CB0280E0B1
:1009200090E0089510922F011092300110929101E1
:10093000109292011092930110929401089597FBE6
:10094000092E07260AD077FD04D00CD006D000204F
:100950001AF4709561957F4F0895F6F790958195FB
:100960009F4F0895AA1BBB1B51E107C0AA1FBB1FC5
:10097000A617B70710F0A61BB70B881F991F5A952B
:10098000A9F780959095BC01CD010895EE0FFF1F4A
:0C0990000590F491E02D0994F894FFCF3D
:0E099C003370694374726C003000747E7A33DD
:00000001FF
