:100000000C9435000C945D000C945D000C945D0024
:100010000C945D000C945D000C945D000C945D00EC
:100020000C945D000C945D000C945D000C945F01D9
:100030000C945D000C945D000C945D000C945D00CC
:100040000C945D000C945D000C94AE040C940705B8
:100050000C945D000C9444020C945D000C945D00C3
:100060000C945D000C945D00CD0911241FBECFEFF0
:10007000D8E0DEBFCDBF11E0A0E0B1E0E8ECF4E1F4
:1000800002C005900D92AA33B107D9F711E0AAE397
:10009000B1E001C01D92A83FB107E1F710E0CAE648
:1000A000D0E004C02297FE010E945E0AC836D10744
:1000B000C9F70E94C2090C94620A0C940000E0EB9C
:1000C000F0E083EF8083808184BDE1EBF0E082E0AB
:1000D0008083808185BDE4EBF0E010828081E3EBDA
:1000E000F0E08083808188BD88B587BD8AB188664D
:1000F0008AB9239A5D985E985B982B98089514BCF2
:100100001092B00015BC1092B100089597FD02C086
:1001100020E004C0909581959F4F21E08F3F91058D
:1001200019F014F08FEF90E0222319F018BC87BD6E
:10013000089588BD17BC089597FD02C020E004C053
:10014000909581959F4F21E08F3F910519F014F014
:100150008FEF90E0222329F01092B4008093B30037
:1001600008958093B4001092B30008959C0180918B
:100170001401882341F030933D0120933C0181E03C
:10018000809343010895C9010E949C0008959C0139
:1001900080911401882341F030933B0120933A0170
:1001A00081E0809342010895C9010E94860008956C
:1001B000882321F0CB010E949C000895CB010E946E
:1001C00086000895FC0183858823A1F18285861726
:1001D00069F50895108628EE33E03383228384EF97
:1001E00091E09583848380819181892B19F181E04D
:1001F0008187818580873783268380918000806115
:10020000809380009081818180938B0090938A00FD
:100210000895118681858087809180008F7E8093EC
:10022000800010928B0010928A00089562876623E6
:1002300089F6EFCF08958AE08093810010928B00B9
:1002400010928A00229A2A98089510924E01809165
:100250004E0180934D01E0E8F0E080818F7E808345
:1002600010928B0010928A000895F894789460910F
:100270005101709152018091530190915401089560
:10028000F894109251011092520110925301109261
:100290005401789408958AE08093810084E08093EB
:1002A000890082EE80938800EFE6F0E08081826032
:1002B00080830895109280001092810008951F920B
:1002C0000F920FB60F9211241F932F933F934F93CA
:1002D0005F936F937F938F939F93AF93BF93CF93CE
:1002E000DF93EF93FF938091510190915201A09180
:1002F0005301B09154010196A11DB11D809351018C
:1003000090935201A0935301B093540180914E01F8
:100310008823D9F180914B0190914C012FEF8F3FB1
:10032000920709F094C031C080914D01882391F06B
:100330008091490190914A0190934C0180934B0127
:10034000809180008F7E8093800010928B001092AD
:100350008A0015C0809147019091480190934C010B
:1003600080934B0180918000806180938000909108
:1003700045018091460180938B0090938A00809183
:100380004D0191E0892780934D018091440188239C
:1003900009F066C081E080934401C0E0D0E01C2FEA
:1003A000AE014E5B5E4FFA018081882309F447C09D
:1003B000CE01880F991FDC01A65CBE4F2D913C91A8
:1003C0001197FC01E25CFE4F80819181281739076B
:1003D00019F4FA01108233C02D913C9180819181F2
:1003E000281B390B37FF03C0309521953F4F21154E
:1003F000310511F021E030E0A901FE01EE0FFF1FF1
:10040000DF01A65CBE4F2D913C91E25CFE4F8081E6
:100410009181281739071CF4509541955F4FFE01D3
:10042000EE0FFF1FE25CFE4F80819181840F951FCC
:100430009183808360817181812F0E94D8002196F1
:10044000C230D10509F0ABCF1092440109C0019729
:1004500090934C0180934B01892B09F465CF95CF84
:10046000FF91EF91DF91CF91BF91AF919F918F91CC
:100470007F916F915F914F913F912F911F910F90BD
:100480000FBE0F901F9018951F920F920FB60F92EC
:1004900011241F932F933F934F935F936F937F93F9
:1004A0008F939F93AF93BF93EF93FF931091F601B8
:1004B0001123C1F13091780020917900922F80E0D2
:1004C000232F30E0282B392B8091F701E82FF0E023
:1004D000EE0FFF1FEB5AFE4F318320838F5F809317
:1004E000F7018630B1F41092F70180914F01882313
:1004F000A1F182E02F38380780F185E491E060E0D7
:1005000006C02E58324028F485E491E061E00E9454
:10051000E200E091F701F0E0EC5CFE4F8081806446
:1005200080937C0081E018271093F60180917A0077
:10053000806480937A00FF91EF91BF91AF919F917A
:100540008F917F916F915F914F913F912F911F916B
:100550000F900FBE0F901F90189580914F01882328
:10056000C1F6CFCF8FE380937E008FED80937A002A
:1005700010927B0080E480937C0088B18F6388B9FF
:1005800080E094E090935601809355019093580138
:100590008093570190935A018093590190935C0185
:1005A00080935B0190935E0180935D019093600165
:1005B00080935F01089510927A000895EF92FF9260
:1005C0000F931F93F89403C078940000F8948091DF
:1005D0005F019091600180509440B1F360915F01A0
:1005E0007091600178940000882777FD8095982F9E
:1005F00028E833E140E050E00E94F40961507E4F6A
:100600008F4F9F4F2FEF33E040E050E00E943A0AB7
:1006100079018A01EE0CFF1C001F111FE20EF31E70
:10062000041F151F0894E11CF11C011D111D1695D6
:100630000795F794E794C7011F910F91FF90EF90F2
:10064000089545B170E09B0121703070220F331F77
:10065000CB0186709070F3E0880F991FFA95E1F74F
:10066000282B4D7C242B25B98BB168707070E4E089
:10067000660F771FEA95E1F78F77862B8BB95C9A27
:1006800081E090E0FC016F9364E06A95F1F76F916F
:100690003197C9F75C986F9364E06A95F1F76F91B1
:1006A0000197C9F70895DF92EF92FF920F931F937E
:1006B000CF93DF93EC01162F3AB157985A98289AA6
:1006C00060E070E0A1E0B0E0CD016F9364E06A9576
:1006D000F1F76F910197C9F75C9ACD016F9364E0D0
:1006E0006A95F1F76F910197C9F789B15C98FD019F
:1006F0006F9364E06A95F1F76F913197C9F75C9A4F
:10070000FD016F9364E06A95F1F76F913197C9F736
:100710005C9887FF07C06C5F7F4F87E26031780786
:1007200009F0D2CF3AB9D4B0E5B0FAB00BB12898FD
:10073000442311F05A9A01C05A9884B1826384B953
:10074000579A213051F0612F70E0B4E075956795AC
:10075000BA95E1F7CE010E9421031F70CE01612FEF
:100760000E942103FAB80BB9D4B8E5B8DF91CF9154
:100770001F910F91FF90EF90DF90089540E022E0ED
:100780000E9453030895DF93CF9300D000D0CDB7DC
:10079000DEB7362F20E8298320EC2A8324E92B8337
:1007A00024ED2C83FE01E40FF11D6181630F0E9493
:1007B000BE030F900F900F900F90CF91DF9108958F
:1007C00041E022E00E9453030895CF92DF92EF921E
:1007D000FF920F931F93CF93DF937C016B01042F44
:1007E00010E083E0000F111F8A95E1F7C0E0D0E030
:1007F000CE01800F682F6064C7010E94BE03F6011E
:10080000EC0FFD1FC70160810E94E0032196C830F4
:10081000D10571F7DF91CF911F910F91FF90EF906C
:10082000DF90CF9008950F931F93529A209A549A75
:100830002EE130E048EE53E008C0CA016F9364E057
:100840006A95F1F76F910197C9F7215030408FEF0A
:100850002F3F380791F781E691E063E040E021E027
:100860000E94530326E030E048EE53E008C0CA017E
:100870006F9364E06A95F1F76F910197C9F7215082
:1008800030408FEF2F3F380791F781E691E063E02A
:1008900040E021E00E94530308EE13E0C8016F938B
:1008A00064E06A95F1F76F910197C9F7C8016F93FA
:1008B00064E06A95F1F76F910197C9F781E691E0DD
:1008C00063E040E021E00E945303C8016F9364E0BD
:1008D0006A95F1F76F910197C9F7C8016F9364E0CA
:1008E0006A95F1F76F910197C9F781E691E062E0AF
:1008F00040E021E00E945303C8016F9364E06A95D1
:10090000F1F76F910197C9F7C8016F9364E06A9599
:10091000F1F76F910197C9F781E691E068E20E94D3
:10092000BE0381E691E068E00E94BE0381E691E0AB
:1009300061E00E94BE0381E691E066E00E94BE0392
:1009400081E691E06CE00E94BE031F910F91089533
:1009500081E691E061E00E94BE0308951F920F922C
:100960000FB60F9211242F933F934F935F936F9382
:100970007F938F939F93AF93BF93EF93FF932091B8
:10098000C6009091F501E92FF0E0E05DFE4F808117
:100990002817C9F4892F8F5F8093F5018430A9F45B
:1009A00014BC1092B00015BC1092B10081E691E029
:1009B00061E00E94BE03F89488E18093600088E0C3
:1009C00080936000FFCF1092F501E09183019E2F8C
:1009D0009F5F903209F490E080918201981731F086
:1009E000F0E0EE59FE4F208390938301FF91EF9149
:1009F000BF91AF919F918F917F916F915F914F9137
:100A00003F912F910F900FBE0F901F9018951F923E
:100A10000F920FB60F9211248F939F93EF93FF9332
:100A20009091E4018091E501981789F0E091E4014B
:100A3000F0E0EE59FE4F92A18091E4018F5F803685
:100A400009F480E08093E4019093C60005C0809192
:100A5000C1008F7D8093C100FF91EF919F918F9195
:100A60000F900FBE0F901F90189584B18D7C84B9A4
:100A700085B1826385B9089585B18D7C85B9089566
:100A80008AE08093810084E08093890082EE8093E5
:100A90008800EFE6F0E08081826080830E941B0185
:100AA0000E945F000E94B2020E94130482E08093C1
:100AB000C00086E08093C2001092C50080E480935D
:100AC000C40088E98093C10084B18D7C84B985B16C
:100AD000826385B9089510928000109281000E946F
:100AE000250114BC1092B00015BC1092B1001092F8
:100AF0007A000E94A8041092C1001092C0001092C7
:100B0000C20085B18D7C85B9089590918201809154
:100B10008301981709F462C0E0918201F0E0EE5978
:100B2000FE4F4081809182018F5F803209F480E026
:100B3000809382018091F201882309F051C0809155
:100B4000F301882309F04CC04F3F09F049C081E010
:100B50008093F20180E00895413009F046C040934F
:100B6000F3011092F2011FC041504093E7011BC0F6
:100B70008091F301833019F44093E60114C0809111
:100B8000F301843058F12091F3018091E70190E066
:100B9000039630E0821793070CF1E091F301F0E047
:100BA000EC51FE4F40838091F3018F5F8093F301FE
:100BB0008091F301843090F08091E601882371F0F8
:100BC0002091F30130E08091E70190E0049628172E
:100BD000390721F41092F30181E0089580E008952F
:100BE0008091F201882309F0B7CF8091F301823020
:100BF00009F0BECFB9CF9C0197FF03C03095219576
:100C00003F4FC9010895492F441F4427441F9C01A9
:100C100097FF0AC0309521953F4F06C0C9016AE091
:100C200070E00E94270A9B014F5F2A303105B4F71C
:100C3000842F08951C9936C088EE93E0FC016F93D1
:100C400064E06A95F1F76F913197C9F7FC016F93F2
:100C500064E06A95F1F76F913197C9F7FC016F93E2
:100C600064E06A95F1F76F913197C9F7FC016F93D2
:100C700064E06A95F1F76F913197C9F76F9364E07B
:100C80006A95F1F76F910197C9F71C9945C080915A
:100C9000170191E0892780931701809314011C9B11
:100CA000FECF37C0199B02C080E0089588EE93E024
:100CB000FC016F9364E06A95F1F76F913197C9F782
:100CC000FC016F9364E06A95F1F76F913197C9F772
:100CD000FC016F9364E06A95F1F76F913197C9F762
:100CE000FC016F9364E06A95F1F76F913197C9F752
:100CF0006F9364E06A95F1F76F910197C9F71999BD
:100D00000BC08091F40191E089278093F401199B35
:100D1000FECF83B181E0089581E008956F927F92C4
:100D20008F929F92AF92BF92CF92DF92EF92FF92FB
:100D30000F931F93DF93CF93CDB7DEB7A0970FB676
:100D4000F894DEBF0FBECDBF5C016B01E42E6115D0
:100D5000710591F18B0177FF04C000271127061B55
:100D6000170BFF243E010894611C711C96EF892E1D
:100D70009FEF992E15C0C8016AE070E00E94270A13
:100D8000F301EF0DF11D402F405D689DC001699D8D
:100D9000900D789D900D1124480F4083F3948B01A2
:100DA0001016110644F3D7FE11C0FE01EF0DF11D20
:100DB0008DE28183F3940AC080E38983FF24F39456
:100DC00005C0C50160E20E94E003EA94FE14C8F386
:100DD00008C0FE01EF0DF11DC50160810E94E00316
:100DE000FA94FF20B1F7A0960FB6F894DEBF0FBEBD
:100DF000CDBFCF91DF911F910F91FF90EF90DF90CA
:100E0000CF90BF90AF909F908F907F906F900895FC
:100E10000F931F93CF93DF93EC018881843009F007
:100E200063C08A81992787FD9095982F88272B8109
:100E300030E0822B932B0E94B6008C81992787FD8E
:100E40009095982F88272D8130E0822B932B0E943C
:100E5000C7000C81112707FD1095102F00278D81E9
:100E600090E0082B192B81E691E060E041E00E94C0
:100E7000C30381E691E0B80140E00E948E068C81B8
:100E8000992787FD9095982F88272D8130E0822B18
:100E9000932B0E940306182F8A81992787FD90952E
:100EA000982F88272B8130E0822B932B0E940306FA
:100EB000082F0195011B085F06C081E691E060E202
:100EC0000E94E00301500023C1F76A81772767FD84
:100ED0007095762F66278B8190E0682B792B81E6C1
:100EE00091E040E00E948E06DF91CF911F910F911B
:100EF0000895CF93DF93AC01DB01EC01CD57DF4FB9
:100F0000BC016E577F4F10C09881292F2F5F20366C
:100F100009F420E0FB018081281729F0FA01E90F8C
:100F2000F11D32A3288311963C91332369F78091F8
:100F3000C10080628093C100DF91CF9108954F92EC
:100F40005F926F927F928F929F92AF92BF92CF9259
:100F5000DF92EF92FF920F931F93DF93CF93CDB762
:100F6000DEB7A0970FB6F894DEBF0FBECDBF81E607
:100F700091E060E041E00E94C30300E011E006C0A0
:100F80000F5F1F4F81E691E00E94E003F80160814E
:100F90006623B1F781E691E067E041E00E94C30378
:100FA00000E011E006C00F5F1F4F81E691E00E9454
:100FB000E003F80160816623B1F781E691E068E122
:100FC00071E040E00E94E50381E691E069E171E0B3
:100FD00041E00E94E50381E691E06AE171E042E0D0
:100FE0000E94E50381E691E06CE171E043E00E943C
:100FF000E50381E691E06DE171E044E00E94E503E4
:1010000081E691E06EE171E045E00E94E50304E6CF
:1010100010E04E010894811C911CF6EF4F2EFFEF5B
:101020005F2EE0E26E2E70E3E72E0115110509F048
:1010300090C19091E4018091E5019817D1F7E0917A
:10104000E5019E2F9F5F903609F490E08091E401C6
:10105000981739F0F0E0EE59FE4F8CE082A39093A0
:10106000E5018091C10080628093C1008091F4010C
:10107000882309F09FC00E94DE028C0181E691E086
:1010800060E040E00E94C30301151105F1F0FF2468
:10109000C8016AE070E00E94130ADB01F401EF0D61
:1010A000F11D402F405DCB01880F991F9D0153E03A
:1010B000220F331F5A95E1F7820F931F481B40837D
:1010C000F394109779F08D01E3CFE982FF24F39434
:1010D00009C0FE01EF0DF11D81E691E060810E94E3
:1010E000E003FA94FF20A9F702E011E006C00F5FC9
:1010F0001F4F81E691E00E94E003F80160816623C2
:10110000B1F70E94DE029C010097F1F010E0C901E6
:101110006AE070E00E94130AF401E10FF11D422F12
:10112000405DCB01880F991F9B0103E0220F331F05
:101130000A95E1F7820F931F481B40831F5F6115DB
:101140007105D9F09B01E3CFE98211E016C0FE01E1
:10115000E10FF11D2081E091E5019E2F9F5F903608
:1011600009F490E08091E401981731F0F0E0EE5935
:10117000FE4F22A39093E5011150112341F7809176
:10118000C10080628093C10082E691E066E071E078
:101190000E94790780911701882319F081E38983E0
:1011A00001C0E98281E691E069810E94E00304EFD9
:1011B00011E0D1C081E691E060E040E00E94C3030D
:1011C000AA24BB24BDE27B2EF894F501EE0FFF1F8D
:1011D000EB5AFE4F03C078940000F894808191810F
:1011E00080509440C1F3C080D18078940000C60143
:1011F00067E670E00E94270AFB01EA5DFE4F81E688
:1012000091E060810E94E0038A2DAA2019F0805DA0
:10121000898301C0E9822981E091E5019E2F9F5FCA
:10122000903609F490E08091E401981731F0F0E0F5
:10123000EE59FE4F22A39093E5018091C100806298
:101240008093C10082E691E06AE071E00E94790734
:10125000C114D10451F18601D7FE04C00027112723
:101260000C191D09FF2415C0C8016AE070E00E9436
:10127000270AF401EF0DF11D402F405D649DC00170
:10128000659D900D749D900D1124480F4083F3943B
:101290008B011016110644F3D7FE05C0F401EF0DC3
:1012A000F11D7082F39424E016C0E982FF24F394C8
:1012B000FACFE091E5019E2F9F5F903609F490E010
:1012C0008091E401981731F0F0E0EE59FE4F62A2F0
:1012D0009093E5012150F21660F316C0FE01EF0D68
:1012E000F11D2081E091E5019E2F9F5F903609F46A
:1012F00090E08091E401981731F0F0E0EE59FE4F54
:1013000022A39093E501FA94FF2041F78091C10058
:1013100080628093C10082E691E06DE071E00E94FE
:1013200079070894A11CB11C85E0A816B10409F046
:101330004BCF00E111E006C00F5F1F4F81E691E047
:101340000E94E003F80160816623B1F704E610E033
:1013500002C0015010400E948505882321F086EECE
:1013600091E00E9408070E941A06882309F05DCECA
:1013700088EE93E06F9364E06A95F1F76F910197BF
:10138000C9F753CE0E94400578940E949F07F894B5
:101390000E946B0580E090E00895EEE4F1E0109289
:1013A0004E0180914E018093500180915001319700
:1013B000808382EE94E090934601809345011092E1
:1013C0004A0110924901109248011092470110926F
:1013D0008201109283011092E4011092E5011092B3
:1013E000E6011092E7010895629FD001739FF0011A
:1013F000829FE00DF11D649FE00DF11D929FF00DA5
:10140000839FF00D749FF00D659FF00D9927729FDB
:10141000B00DE11DF91F639FB00DE11DF91FBD0166
:10142000CF0111240895AA1BBB1B51E107C0AA1FBD
:10143000BB1FA617B70710F0A61BB70B881F991F75
:101440005A95A9F780959095BC01CD01089597FB19
:10145000092E07260AD077FD04D0E5DF06D000204C
:101460001AF4709561957F4F0895F6F790958195E0
:101470009F4F0895A1E21A2EAA1BBB1BFD010DC0B0
:10148000AA1FBB1FEE1FFF1FA217B307E407F50734
:1014900020F0A21BB30BE40BF50B661F771F881F10
:1014A000991F1A9469F760957095809590959B01A6
:1014B000AC01BD01CF010895EE0FFF1F0590F4911F
:0814C000E02D0994F894FFCF20
:1014C80030006D562000206D56003A20000D0A00AD
:1014D8002020200001000201000000000000001F81
:1014E8001F1F1F1F1F1F200000010203030405FF09
:0A14F800747E7A330001020304063B
:00000001FF
