:100000000C9435000C945D000C945D000C941F0260
:100010000C94E8010C945D000C945D000C945D0060
:100020000C945D000C945D000C945D000C945D00DC
:100030000C945D000C945D000C945D000C945D00CC
:100040000C945D000C945D000C945F000C949F0078
:100050000C945D000C945D000C945D000C945D00AC
:100060000C945D000C945D00550211241FBECFEF6F
:10007000D4E0DEBFCDBF11E0A0E0B1E0E4EDF4E0FC
:1000800002C005900D92A430B107D9F711E0A4E0A9
:10009000B1E001C01D92A839B107E1F710E0CAE64E
:1000A000D0E004C02297FE010E946402C836D10746
:1000B000C9F70E9429010C9468020C9400001F9259
:1000C0000F920FB60F9211242F938F939F93EF935C
:1000D000FF932091C60090919701E92FF0E0E05046
:1000E000FF4F8081281771F4892F8F5F80939701CC
:1000F000843051F4F89488E18093600088E0809324
:100100006000FFCF10929701E09125019E2F9F5F25
:10011000903209F490E080912401981731F0F0E0DA
:10012000EC5FFE4F208390932501FF91EF919F910B
:100130008F912F910F900FBE0F901F9018951F92C7
:100140000F920FB60F9211248F939F93EF93FF930B
:100150009091860180918701981789F0E09186013E
:10016000F0E0EC5FFE4F92A1809186018F5F8036B8
:1001700009F480E0809386019093C60005C08091C9
:10018000C1008F7D8093C100FF91EF919F918F916E
:100190000F900FBE0F901F901895909124018091A1
:1001A0002501981709F452C0E0912401F0E0EC5FBA
:1001B000FE4FE081809124018F5F803209F480E05E
:1001C0008093240180919501882339F4EF3F69F4ED
:1001D00081E08093950180E00895E23031F481E080
:1001E00080938801109295011AC080918801823015
:1001F00019F4E0938A0113C0833019F4E093890164
:100200000EC0843018F1A82FB0E080918A0190E0F0
:1002100003968A179B07D4F0A957BE4FEC93209101
:1002200088012F5F20938801243080F0809189011C
:10023000882361F030E080918A0190E004962817CD
:10024000390721F41092880181E0089580E0089533
:100250000895789482E08093C00086E08093C20085
:100260001092C50089E18093C40088E98093C100A1
:10027000409A299A809168008360809368008BB3CC
:1002800083608BBB80916C00816080936C00809157
:100290006B00826080936B008FEF8AB95E9A0E9438
:1002A000CD00FDCFDC01AD57BF4F2C91A358B0401E
:1002B000922F9F5F903609F490E0AE57BF4F8C911C
:1002C000A258B040981739F0FD01E20FF11D62A36A
:1002D000AD57BF4F9C938091C10080628093C10055
:1002E0000895EF92FF920F931F93CF93DF938C01AA
:1002F00084E091E06FEF0E94520184E091E06FEEA4
:100300000E94520184E091E0F80161810E94520153
:1003100084E091E0F80160810E945201F801E180DF
:10032000F02EE80106C084E091E06A810E9452014B
:1003300021969E012F192E15B0F3DF91CF911F91B9
:100340000F91FF90EF900895DF93CF93CDB7DEB775
:100350002C970FB6F894DEBF0FBECDBF482F282FC5
:1003600030E090919601662339F0892F90E02823A0
:100370003923232B39F023C0892F90E028233923F8
:10038000232BE9F05F9A90919601662311F0942B4C
:1003900003C0842F809598239093960180919601B5
:1003A0008073803309F440E389E1898382E08A83A2
:1003B0004B836C83CE0101960E9471015F982C964D
:1003C0000FB6F894DEBF0FBECDBFCF91DF91089579
:1003D0001F920F920FB60F9211242F933F934F93BA
:1003E0005F936F937F938F939F93AF93BF93EF939D
:1003F000FF9326B180E49CE90197F1F786B1227062
:1004000030E090E0827090702817390739F466B1B7
:1004100066956095617080E20E94A401FF91EF9162
:10042000BF91AF919F918F917F916F915F914F910C
:100430003F912F910F900FBE0F901F9018951F9214
:100440000F920FB60F9211242F933F934F935F9308
:100450006F937F938F939F93AF93BF93EF93FF938C
:1004600026B180E49CE90197F1F786B1217030E074
:1004700090E0817090702817390731F466B160956B
:10048000617080E10E94A401FF91EF91BF91AF9153
:100490009F918F917F916F915F914F913F912F919C
:1004A0000F900FBE0F901F9018951092240110927C
:1004B00025011092860110928701109289011092F5
:1004C0008A010895EE0FFF1F0590F491E02D099425
:0404D000F894FFCFCE
:0404D400747E7A3385
:00000001FF
