:100000000C9435000C945D000C945D000C942A0A4D
:100010000C945D000C94B1090C945D000C945D008F
:100020000C945D000C945D000C945D000C945D00DC
:100030000C945D000C945F000C945D000C945D00CA
:100040000C94CF000C945D000C944F010C948F0124
:100050000C945D000C947C080C945D000C945D0085
:100060000C94B8020C945D005C0D11241FBECFEF00
:10007000D4E0DEBFCDBF11E0A0E0B1E0E0E3FBE102
:1000800002C005900D92A431B107D9F712E0A4E1A6
:10009000B1E001C01D92A13FB107E1F710E0CAE64F
:1000A000D0E004C02297FE010E94920DC836D1070D
:1000B000C9F70E94F30C0C94960D0C9400001F924B
:1000C0000F920FB60F9211248F939F93AF93BF930C
:1000D0008091140190911501A0911601B091170122
:1000E00080509044AF4FBF4F8093140190931501FF
:1000F000A0931601B0931701BF91AF919F918F917B
:100100000F900FBE0F901F901895EF92FF920F93D4
:100110001F939091840040918500F894E090140121
:10012000F0901501009116011091170178948091BB
:10013000840080918500841760F3342F20E0892F9C
:1001400090E0282B392B40E050E02E0D3F1D401F42
:10015000511FB901CA011F910F91FF90EF900895AF
:1001600084B1866084B910928500109284009FEB60
:10017000909387008FEF80938600909389008093FF
:10018000880090938B0080938A0082EF8093800098
:100190008AE18093810081E080936F0008951F922F
:1001A0000F920FB60F9211248F939F938091F002BC
:1001B0008F5F8093F002833009F049C01092F00203
:1001C000909118018091EF02891701F1891714F4B9
:1001D0008F5F01C081508093EF029091EF029923CD
:1001E00019F41092B30010C097FF0AC01092B30028
:1001F0008EEF9802C00111248F5F8093B40006C077
:10020000990F9F5F9093B3001092B40090911901E1
:100210008091EE028917D9F0891714F48F5F01C01D
:1002200081508093EE029091EE02992311F417BC55
:100230000DC019162CF417BC990F9F5F98BD07C00D
:100240008EEF9802C00111248F5F87BD18BC9F916B
:100250008F910F900FBE0F901F90189517BC18BC70
:1002600081E080936E0081EF84BD1092B300109204
:10027000B400109270001092B6008093B00082E03B
:1002800085BD8093B10083E883BD16BC1092B20097
:1002900083E083BD239A8AB188668AB908951F9244
:1002A0000F920FB60F9211242F938F939F93EF937A
:1002B000FF932091C6009091EB02E92FF0E0E05F00
:1002C000FE4F8081281771F4892F8F5F8093EB0296
:1002D000843051F4F89488E18093600088E0809342
:1002E0006000FFCF1092EB02E0913E019E2F9F5FD6
:1002F000903209F490E080913D01981731F0F0E0E0
:10030000E35EFE4F208390933E01FF91EF919F911A
:100310008F912F910F900FBE0F901F9018951F92E5
:100320000F920FB60F9211248F939F93EF93FF9329
:1003300090919F018091A001981789F0E0919F0111
:10034000F0E0E35EFE4F92A180919F018F5F8036C7
:1003500009F480E080939F019093C60005C08091CE
:10036000C1008F7D8093C100FF91EF919F918F918C
:100370000F900FBE0F901F901895AF92BF92CF9223
:10038000DF92EF92FF920F931F93DF93CF9300D0F2
:1003900000D000D0CDB7DEB7DC01162FD22E30E072
:1003A000BC016F5B7F4FE0E4EE2EF12CE80EF91EEE
:1003B00018C0FA010081FB01C0809C2D9F5F903422
:1003C00009F490E0F7018081232F2F5F981759F0EF
:1003D0004F5F5F4FFD01EC0DF11D0083FB0190832A
:1003E000322F3D1530F3AE014F5F5F4F83E0FA01CE
:1003F00011928A95E9F71E7F19833A839E012C5F3B
:100400003F4F83E0FA010190AF01F90101929F0192
:100410008150C1F7AB54BF4F9C91A55BB040492FB1
:100420004F5F403109F440E0AC54BF4F8C91A45B66
:10043000B0404817D1F0892F90E0BC01660F771FBC
:10044000680F791F6A0F7B1F6C577F4F9E012C5FCF
:100450003F4F83E0F90101909F01FB010192BF0131
:100460008150C1F7AB54BF4F4C9385EE8093BC00D5
:1004700026960FB6F894DEBF0FBECDBFCF91DF91A9
:100480001F910F91FF90EF90DF90CF90BF90AF90B2
:100490000895DF93CF93CDB7DEB72C970FB6F894BE
:1004A000DEBF0FBECDBFDC01AC014A515F4F9C01E6
:1004B00029513F4FFA019081F90180819817D1F3BA
:1004C000FA01808190E0AC01440F551F480F591F7D
:1004D0004A0F5B1F9E01265F3F4F4A545F4F83E0E8
:1004E000FA010190AF01F90101929F018150C1F71A
:1004F0009E01295F3F4FAE01465F5F4F83E0FA01E7
:100500000190AF01F90101929F018150C1F79E0155
:100510002F5F3F4FAE01495F5F4F83E0FA010190CB
:10052000AF01F90101929F018150C1F7AA51BF4F5C
:100530008C91A65EB0408F5F803109F480E0AA51B3
:10054000BF4F8C93DE011496FE01319683E001903B
:100550000D928150E1F76C817D818E8190E02C9627
:100560000FB6F894DEBF0FBECDBFCF91DF910895D7
:100570001F920F920FB60F9211242F933F934F9318
:100580005F936F937F938F939F93AF93BF93EF93FB
:10059000FF93DF93CF93CDB7DEB72997DEBFCDBFF3
:1005A0002091B900287F283209F459C0293278F403
:1005B000203101F1213120F4283009F0F1C01AC0B6
:1005C000283109F44CC0203209F0EAC048C0283470
:1005D00009F4B8C0293438F4203309F440C0203479
:1005E00009F0DEC089C0203509F46DC0283509F056
:1005F000D7C08FC09091550280915602981709F488
:10060000CFC08091550290E0FC01EE0FFF1FE80F74
:10061000F91FDE011496EB5DFD4F83E001900D9212
:100620008150E1F7DE011196FE01349683E00190DE
:100630000D928150E1F7AEE8B2E0FE01319683E021
:1006400001900D928150E1F7809155028F5F8031CA
:1006500009F480E08093550280918E0237C1909119
:10066000900280918F029817B9F438C18091870267
:10067000281709F48DC0892F90E0FC01EE0FFF1FB1
:10068000E80FF91FE95AFD4FDE01179683E00D9040
:1006900001928150E1F77AC0E091E101F0E0EF557D
:1006A000FE4F80818093BB0085EC8093BC008091DD
:1006B000E1018F5F803409F480E08093E1019F5F66
:1006C000909390021DC12091BB00E09124029E2FC7
:1006D0009F5F903409F490E080912302981709F409
:1006E000F9C0F0E0ED51FE4F2083909324028091F9
:1006F00090028F5F809390022091900230E02F5FF4
:100700003F4F80918F0290E0281739070CF09DC071
:10071000DFC02091BB00E09124029E2F9F5F9034A8
:1007200009F490E080912302981709F4D3C0F0E017
:10073000ED51FE4F208390932402809190028F5FB1
:1007400080939002DE011796EEE8F2E083E00190DC
:100750000D928150E1F790918802292F2F5F20316F
:1007600009F420E080918702281791F0892F90E00A
:10077000FC01EE0FFF1FE80FF91FE95AFD4FDE01E4
:10078000179683E00D9001928150E1F72093880243
:100790009091550280915602981709F084C09AC032
:1007A000203979F1213970F42037F1F0213720F424
:1007B000203609F08FC018C0203819F1283809F008
:1007C00089C045C0283A09F470C0293A30F4283964
:1007D000F1F1203A09F07EC03AC0283B09F465C027
:1007E000203C09F077C059C081E080938E0280914F
:1007F0008D0280938F0210929002882309F068C0C6
:1008000024C02091BB00E09124029E2F9F5F903472
:1008100009F490E080912302981761F0F0E0ED5127
:10082000FE4F208390932402809190028F5F8093EB
:10083000900204C08091900280938F029091900268
:1008400080918F02981709F043C085E844C0DE010B
:100850001796EEE8F2E083E001900D928150E1F707
:1008600090918802292F2F5F203109F420E0809198
:100870008702281791F0892F90E0FC01EE0FFF1FEF
:10088000E80FF91FE95AFD4FDE01179683E00D903E
:1008900001928150E1F72093880290915502809156
:1008A00056029817A9F085EE16C0809189029091A2
:1008B0008A02892B11F48FEF09C0E0918902F0912F
:1008C0008A0280918B0290918C0209958093BB00E3
:1008D00085EC01C085ED8093BC0012C0DE01179647
:1008E000EEE8F2E083E001900D928150E1F7909103
:1008F0008802292F2F5F203109F0B8CE20E0B6CE34
:100900002996DEBFCDBFCF91DF91FF91EF91BF91CF
:10091000AF919F918F917F916F915F914F913F9197
:100920002F910F900FBE0F901F901895EDE6F0E0FD
:10093000808184608083EBE6F0E080818062808348
:1009400085E08BBB8093680008950895109268003D
:1009500010926D0010926B0008952F923F924F926B
:100960005F926F927F928F929F92AF92BF92CF923F
:10097000DF92EF92FF920F931F93DF93CF93CDB748
:10098000DEB760970FB6F894DEBF0FBECDBF00EEA6
:10099000F02E2E010894411C511C1EE0612E712C7A
:1009A0006C0E7D1EB3E09B2EA5E0AA2EB12CAC0EE2
:1009B000BD1EF2E0CF2ED12CCC0EDD1EE5EE8E2E2C
:1009C0007BE0272E312C2C0E3D1E82E0898381EAAC
:1009D00091E06F2DA20121E00E94BD0181EA91E02A
:1009E0000E9449026E877F87888BDE011896F3018B
:1009F00083E001900D928150E1F78A85813009F002
:100A0000D5C0F501992D11929A95E9F7EE24E3945A
:100A1000EF28ED828E83D601F50183E001900D92DF
:100A20008150E1F790915602292F2F5F203109F470
:100A300020E080915502281789F0892F90E0FC0171
:100A4000EE0FFF1FE80FF91FEB5DFD4FD60183E0AE
:100A50000D9001928150E1F7209356028092BC00E4
:100A600081EA91E00E9449028091BB0008E010E019
:100A700002C0000F111F8A95E2F7998281EA91E086
:100A80006F2DA20121E00E94BD0181EA91E00E9448
:100A900049026E877F87888BD101F30183E0019043
:100AA0000D928150E1F78D85813009F074C0F60117
:100AB000992D11929A95E9F7EA828B83D501F60177
:100AC00083E001900D928150E1F790915602292F19
:100AD0002F5F203109F420E080915502281789F01A
:100AE000892F90E0FC01EE0FFF1FE80FF91FEB5D6F
:100AF000FD4FD50183E00D9001928150E1F72093E5
:100B000056028092BC0081EA91E00E944902209145
:100B1000BB001092BC0008C08091E1018F5F80345F
:100B200009F480E08093E1019091E1018091E2017C
:100B3000981791F708C0809123028F5F803409F4E1
:100B400080E08093230290912302809124029817E1
:100B500091F708C0809187028F5F803109F480E0AF
:100B6000809387029091870280918802981791F76D
:100B700008C0809155028F5F803109F480E0809336
:100B800055029091550280915602981791F7822F45
:100B900090E0082B192B0432110540F0EAEEFE1606
:100BA00011F480E004C0F2E0FF0E0FCF81E0609608
:100BB0000FB6F894DEBF0FBECDBFCF91DF911F916E
:100BC0000F91FF90EF90DF90CF90BF90AF909F90EC
:100BD0008F907F906F905F904F903F902F900895EF
:100BE000F894882349F02091C9023091CA024091BB
:100BF000CB025091CC0208C02091C1023091C202B8
:100C00004091C3025091C4027894B901CA01089579
:100C1000F894882349F02091CD023091CE02409182
:100C2000CF025091D00208C02091C5023091C60277
:100C30004091C7025091C8027894B901CA01089541
:100C4000F894882389F01092C9021092CA02109277
:100C5000CB021092CC021092CD021092CE021092D2
:100C6000CF021092D00210C01092C5021092C6029C
:100C70001092C7021092C8021092C1021092C202D2
:100C80001092C3021092C402789408958091A20237
:100C9000882309F464C090E080FF20C082FF07C071
:100CA0008091A302885280931801885D4BC083FF16
:100CB00006C08091A30280931801885243C081E04E
:100CC0000E9420068091A30280931801809319014D
:100CD000809191028F7E8093910236C09C01247096
:100CE000307081FF22C0232B31F09091A30288E263
:100CF000891B919507C083FF0AC08091A30298E2E7
:100D0000981B819580931801909319011DC08091C3
:100D100091028F7E8093910281E00E942006809153
:100D2000A3028195809318010DC0232B21F090918F
:100D3000A302892FE6CF83FF12C08091A302809384
:100D400018018195809319010E9485006093A40287
:100D50007093A5028093A6029093A70208950E9423
:100D600085006093A4027093A5028093A6029093DD
:100D7000A702109218011092190181E00E9420062A
:100D8000809191028F7E8093910208950F931F931B
:100D90008091A2029091A302813021F4092F192F92
:100DA000115004C0092F019511E0191BF89480918E
:100DB000CD029091CE02A091CF02B091D002789452
:100DC00097FF05C0EE27FF27E81BF90B01C0FC01C8
:100DD000F8942091C9023091CA024091CB025091FF
:100DE000CC027894C90137FF04C022273327281B7F
:100DF000390B8091910284FD41C0BF01621B730BCE
:100E000077FF03C0709561957F4F80910F0190E04F
:100E10006817790798F140E050E0CF01A0E0B0E01A
:100E200082179307A407B5072CF4109318010093B9
:100E3000190104C0009318011093190180919102C7
:100E4000806116C0CF01821B930B9C0197FF03C0EA
:100E5000309521953F4F80910F0190E02817390779
:100E600088F00093180100931901809191028F7E00
:100E70008093910281E00E94200604C0809191023B
:100E800084FDE0CF1F910F910895282F80FF0EC0A1
:100E9000CB01880F991F880F991F909581959F4FBF
:100EA0008F549C44909389008093880021FF0EC04A
:100EB000CB01880F991F880F991F909581959F4F9F
:100EC0008F549C4490938B0080938A0022FF07C02C
:100ED0005F9A579A81E080931B018093A102089545
:100EE000982FE8EAF2E020E030E08081882389F45E
:100EF000F894F901EE0FFF1FEE0FFF1FE20FF31F33
:100F0000E855FD4F908372836183548343837894C3
:100F100008952F5F3F4F35962530310531F70895FD
:100F2000882329F08091910280648093910210922D
:100F300018011092190157985F9814BC15BC1092B3
:100F4000B0001092B1000895882329F08091910299
:100F50008F7B809391020E94B0000E942E010E941C
:100F60004606089590913D0180913E01981709F43D
:100F700051C0E0913D01F0E0E35EFE4FE0818091E1
:100F80003D018F5F803209F480E080933D018091C4
:100F9000DE02882339F4EF3F61F481E08093DE02C2
:100FA00080E00895E13029F4E093D1021092DE024E
:100FB0001AC08091D102823019F4E093D30213C099
:100FC000833019F4E093D2020EC0843018F1A82FB8
:100FD000B0E08091D30290E003968A179B07D4F08B
:100FE000A053BD4FEC932091D1022F5F2093D102EB
:100FF000243080F08091D202882361F030E080912B
:10100000D30290E004962817390721F41092D102F8
:1010100081E0089580E00895DC01AD57BF4F2C9129
:10102000A358B040922F9F5F903609F490E0AE57DE
:10103000BF4F8C91A258B040981739F0FD01E20FD4
:10104000F11D62A3AD57BF4F9C938091C100806298
:101050008093C1000895EF92FF920F931F93CF9357
:10106000DF938C018DE191E06FEF0E940C088DE120
:1010700091E061E00E940C088DE191E0F80161814E
:101080000E940C088DE191E0F80160810E940C083B
:10109000F801E180F02EE80106C08DE191E06A815F
:1010A0000E940C0821969E012F192E15B0F3DF9196
:1010B000CF911F910F91FF90EF900895DF93CF9301
:1010C000CDB7DEB72C970FB6F894DEBF0FBECDBFFD
:1010D00089E1898382E08A8381E08B838C83CE01DE
:1010E00001960E942B082C960FB6F894DEBF0FBE17
:1010F000CDBFCF91DF9108951F920F920FB60F923F
:1011000011240F931F932F933F934F935F936F93EC
:101110007F938F939F93AF93BF93EF93FF93109120
:10112000EC02112339F1209178004091790000916F
:10113000ED020023B1F480910001882391F0942FF7
:1011400080E030E0822B932B20910101309102014D
:10115000821B930B8F5F914021F4109200010E943B
:101160005E08902F9F5F97709093ED0288B1887F03
:10117000982B98B981E018271093EC028091000118
:10118000882329F080917A00806480937A00FF910F
:10119000EF91BF91AF919F918F917F916F915F91EF
:1011A0004F913F912F911F910F910F900FBE0F9074
:1011B0001F901895CF92DF92EF92FF920F931F939B
:1011C000DF93CF93CDB7DEB72C970FB6F894DEBF81
:1011D0000FBECDBF08EA12E0B6E1CB2EDD24D394DA
:1011E0007E010894E11CF11CD801EC91EE2309F476
:1011F00049C011966D917C91129761157105A1F00E
:10120000F8948091C1029091C202A091C302B09162
:10121000C40278949C0197FF04C088279927821BF9
:10122000930B8617970700F5D80113964D915C91A3
:10123000149741155105A1F0F8948091C502909141
:10124000C602A091C702B091C80278949C0197FF92
:1012500004C088279927821B930B8417950720F4D5
:10126000672B81F4452B71F4F894C982DA82EB8301
:10127000F8011082C7010E942B081092A2020E945E
:10128000460678940B5F1F4FF2E0013C1F0709F000
:10129000ABCF2C960FB6F894DEBF0FBECDBFCF916B
:1012A000DF911F910F91FF90EF90DF90CF90089505
:1012B00083B190E09C0144E0369527954A95E1F78B
:1012C00035E0969587953A95E1F7822780FD1FC016
:1012D0008091C5029091C602A091C702B091C80248
:1012E0000197A109B1098093C5029093C602A0930A
:1012F000C702B093C8028091CD029091CE02A09116
:10130000CF02B091D0020197A109B1091EC080910E
:10131000C5029091C602A091C702B091C802019681
:10132000A11DB11D8093C5029093C602A093C70270
:10133000B093C8028091CD029091CE02A091CF02CD
:10134000B091D0020196A11DB11D8093CD02909362
:10135000CE02A093CF02B093D00281E00E94DA08BF
:1013600008951F920F920FB60F9211242F933F935F
:101370004F935F936F937F938F939F93AF93BF939D
:10138000EF93FF9389B190E09C0164E03695279537
:101390006A95E1F79695879596958795822780FDC2
:1013A0001FC08091C1029091C202A091C302B0916E
:1013B000C4020197A109B1098093C1029093C202AE
:1013C000A093C302B093C4028091C9029091CA0253
:1013D000A091CB02B091CC020197A109B1091EC026
:1013E0008091C1029091C202A091C302B091C40247
:1013F0000196A11DB11D8093C1029093C202A093DA
:10140000C302B093C4028091C9029091CA02A09114
:10141000CB02B091CC020196A11DB11D8093C902EF
:101420009093CA02A093CB02B093CC0280E00E94BA
:10143000DA08FF91EF91BF91AF919F918F917F91CA
:101440006F915F914F913F912F910F900FBE0F9031
:101450001F9018951F920F920FB60F9211242F9381
:101460003F934F935F936F937F938F939F93AF932C
:10147000BF93EF93FF93DF93CF93CDB7DEB72C9756
:10148000DEBFCDBF189904C08091910280FF1BC0C0
:101490000E9458091CC0F894809191028160809349
:1014A000910289E1898382E08A838B8381E08C8346
:1014B000CE0101960E942B0880916B008E7F809355
:1014C0006B00789404C08091910280FFE4CF2C9649
:1014D000DEBFCDBFCF91DF91FF91EF91BF91AF9173
:1014E0009F918F917F916F915F914F913F912F913C
:1014F0000F900FBE0F901F901895EF92FF920F93D1
:101500001F93DF93CF93CDB7DEB76A970FB6F894EA
:10151000DEBF0FBECDBF8C018091910286FF01C15D
:10152000F8018081843209F4FCC0853209F4F9C0E5
:1015300083E28B8381E08C838091910280788D831C
:1015400094C08FED92E00E942B0880EF93EBAAE10C
:10155000B0E08093030190930401A0930501B09340
:101560000601198281E58A8310EE7E010894E11C50
:10157000F11C81EA91E0612FA70122E00E94BD01E8
:1015800081EA91E00E9449021E5F1C3E91F788E9C2
:101590009BEAA2E0B0E08093070190930801A0933A
:1015A0000901B0930A0181E08093A002ECC0F80128
:1015B00082818093A30283818093A2020E944606C7
:1015C000E2C0F801828180930F01DDC090E0F80154
:1015D0008281813009F491E090939202D4C0F801A5
:1015E000858143812481813051F4942F80E030E063
:1015F000822B932B66277727681B790B06C0942FC5
:1016000080E0622F70E0682B792BF80182810E94C4
:101610004507B9C083E18B8384E08C83F894809183
:10162000C1029091C202A091C302B091C402789409
:1016300097FF05C022273327281B390B01C09C01C7
:10164000F8948091C5029091C602A091C702B09112
:10165000C8027894AC0197FF04C088279927841B9F
:10166000950B3D832E839F838887CE0103960E942E
:101670002B0889C0F801738160E0848190E0682BB9
:10168000792B558140E0868190E0482B592B82814F
:101690000E947007F8018781813009F074C080E0F2
:1016A0000E94200670C080919102F8019281892BDE
:1016B00035C090919102F8018281809589232EC0D6
:1016C00081E00E94900783E28B8381E08C831D82FE
:1016D000CCCF81E00E94A40780EF93EBAAE1B0E0B9
:1016E0008093030190930401A0930501B093060138
:1016F0004AC086E28F8781E0888B8091910290E0DA
:1017000076E0969587957A95E1F78170898BCE0181
:101710000F960E942B08809191028F7780939102FF
:1017200032C0F8018081823109F474CF8331A0F492
:10173000843009F446CF853030F4813009F401CF8C
:10174000833009F534CF803109F449CF813108F075
:10175000A6CF8930C1F43ACF813209F4AACF8232C0
:1017600048F4853109F486CF803209F49CCF843166
:1017700051F495CF843209F4ACCF853209F4B9CF56
:10178000823209F49DCF6A960FB6F894DEBF0FBE81
:10179000CDBFCF91DF911F910F91FF90EF900895F2
:1017A000AF92BF92CF92DF92EF92FF920F931F936F
:1017B000DF93CF93CDB7DEB72C970FB6F894DEBF8B
:1017C0000FBECDBF1092910288EB8093890081E912
:1017D0008093880084EB80938B0081E080938A0063
:1017E000A8E9EA2EABEAFA2EA2E00A2F112DF6E0C4
:1017F000AF2E6E010894C11CD11CE5E0BE2E809175
:10180000A2028150823010F40E94C6060E94B207E4
:10181000882321F082ED92E00E947D0A809191025E
:1018200087FDEDCF8091910286FDE9CFAFC0109288
:1018300018011092190181E00E9490078091910295
:101840008F7E8093910280919102806880939102B3
:101850000CC0261B370B480B590B20930301309308
:10186000040140930501509306018091A002882352
:1018700009F44FC08091070190910801A0910901DE
:10188000B0910A0120919C0230919D0240919E02EC
:1018900050919F02281739074A075B0770F10E9491
:1018A000AD04882379F08091910285FD1BC0809161
:1018B0009102806280939102109218011092190196
:1018C000B9820CC08091910285FF0CC08091910279
:1018D0008F7D809391020E944606A9821A82C601DA
:1018E0000E942B08E0920701F09208010093090181
:1018F00010930A011092A0020CC0821B930BA40B40
:10190000B50B8093070190930801A0930901B09350
:101910000A018091A102882341F180910B019091ED
:101920000C01A0910D01B0910E0120919C0230910B
:101930009D0240919E0250919F02281739074A0745
:101940005B0738F01092A10257985F9A10921B0122
:101950000CC0821B930BA40BB50B80930B019093CF
:101960000C01A0930D01B0930E018091980290910B
:101970009902A0919A02B0919B0280939402909355
:101980009502A0939602B093970239CF0E948500EA
:10199000609398027093990280939A0290939B02AD
:1019A00020919402309195024091960250919702B5
:1019B000621B730B840B950B60939C0270939D02CA
:1019C00080939E0290939F02209103013091040125
:1019D000409105015091060162177307840795072E
:1019E00008F437CF24CF0E94B0000E942E0188E077
:1019F00080937E0083E480937C0010927B008FEDC7
:101A000080937A0087B1876087B93B9857985F9831
:101A100082E08093C00086E08093C2001092C500EF
:101A200080E48093C40088E98093C10081E18093C1
:101A3000B8001092B9001092BD001092BA0085EC67
:101A40008093BC0085B1816185B9EBE6F0E08081CF
:101A5000816180830E94960478940E94D00BF89450
:101A60001092680010926D00EBE6F0E01082808129
:101A70008E7F80831092BC001092C1001092C00033
:101A80001092C20057985F9810927A0087B1807FB9
:101A900087B914BC15BC1092B0001092B10010921E
:101AA00081001092800084B1897F84B9FFE1E1E870
:101AB000099480E090E0089510923D0110923E015B
:101AC00010929F011092A0011092E1011092E20188
:101AD0001092230210922402109255021092560284
:101AE000109287021092880210928A021092890244
:101AF00010928D0210928F020E94850060939402D2
:101B00007093950280939602909397021092D2025E
:101B10001092D30282E08093DF021092E0020895D7
:101B2000EE0FFF1F0590F491E02D0994F894FFCF7C
:101B3000010002F0B31A0098AB02007038390005BA
:041B4000747E7A3302
:00000001FF
