:100000000C9435000C945D000C945D000C94C306B8
:100010000C945D000C943D070C945D000C945D0005
:100020000C945D000C945D000C945D000C945D00DC
:100030000C945D000C945F000C945D000C945D00CA
:100040000C94B0000C945D000C940F010C944F01C3
:100050000C945D000C94BB0B0C945D000C945D0043
:100060000C9478020C945D00170C11241FBECFEF86
:10007000D4E0DEBFCDBF11E0A0E0B1E0E8E8F8E1F8
:1000800002C005900D92A031B107D9F713E0A0E1AD
:10009000B1E001C01D92A032B107E1F710E0CAE65D
:1000A000D0E004C02297FE010E943E0CC836D10762
:1000B000C9F70E948E0A0C94420C0C9400001F9207
:1000C0000F920FB60F9211248F939F93AF93BF930C
:1000D0008091100190911101A0911201B091130132
:1000E00080509044AF4FBF4F809310019093110107
:1000F000A0931201B0931301BF91AF919F918F9183
:100100000F900FBE0F901F901895EF92FF920F93D4
:100110001F939091840040918500F894E090100125
:10012000F0901101009112011091130178948091C7
:10013000840080918500841760F3342F20E0892F9C
:1001400090E0282B392B40E050E02E0D3F1D401F42
:10015000511FB901CA011F910F91FF90EF900895AF
:100160001F920F920FB60F9211248F939F9380913D
:100170001F038F5F80931F03833009F049C01092E3
:100180001F039091140180911E03891701F18917B3
:1001900014F48F5F01C0815080931E0390911E0361
:1001A000992319F41092B30010C097FF0AC010925F
:1001B000B3008EEF9802C00111248F5F8093B400CA
:1001C00006C0990F9F5F9093B3001092B400909176
:1001D000150180911D038917D9F0891714F48F5FD9
:1001E00001C0815080931D0390911D03992311F448
:1001F00017BC0DC019162CF417BC990F9F5F98BD42
:1002000007C08EEF9802C00111248F5F87BD18BC14
:100210009F918F910F900FBE0F901F9018951F9276
:100220000F920FB60F9211242F938F939F93EF93FA
:10023000FF932091C60090911A03E92FF0E0ED5F43
:10024000FE4F8081281771F4892F8F5F80931A03E6
:10025000843051F4F89488E18093600088E08093C2
:100260006000FFCF10921A03E0914A019E2F9F5F1A
:10027000903209F490E080914901981731F0F0E054
:10028000E75DFE4F208390934A01FF91EF919F918C
:100290008F912F910F900FBE0F901F9018951F9266
:1002A0000F920FB60F9211248F939F93EF93FF93AA
:1002B0009091AB018091AC01981789F0E091AB016E
:1002C000F0E0E75DFE4F92A18091AB018F5F803639
:1002D00009F480E08093AB019093C60005C0809143
:1002E000C1008F7D8093C100FF91EF919F918F910D
:1002F0000F900FBE0F901F901895AF92BF92CF92A4
:10030000DF92EF92FF920F931F93DF93CF9300D072
:1003100000D000D0CDB7DEB7DC01162FD22E30E0F2
:10032000BC016F5B7F4FE0E4EE2EF12CE80EF91E6E
:1003300018C0FA010081FB01C0809C2D9F5F9034A2
:1003400009F490E0F7018081232F2F5F981759F06F
:100350004F5F5F4FFD01EC0DF11D0083FB019083AA
:10036000322F3D1530F3AE014F5F5F4F83E0FA014E
:1003700011928A95E9F71E7F19833A839E012C5FBB
:100380003F4F83E0FA010190AF01F90101929F0113
:100390008150C1F7AB54BF4F9C91A55BB040492F32
:1003A0004F5F403109F440E0AC54BF4F8C91A45BE7
:1003B000B0404817D1F0892F90E0BC01660F771F3D
:1003C000680F791F6A0F7B1F6C577F4F9E012C5F50
:1003D0003F4F83E0F90101909F01FB010192BF01B2
:1003E0008150C1F7AB54BF4F4C9385EE8093BC0056
:1003F00026960FB6F894DEBF0FBECDBFCF91DF912A
:100400001F910F91FF90EF90DF90CF90BF90AF9032
:100410000895DF93CF93CDB7DEB72C970FB6F8943E
:10042000DEBF0FBECDBFDC01AC014A515F4F9C0166
:1004300029513F4FFA019081F90180819817D1F33A
:10044000FA01808190E0AC01440F551F480F591FFD
:100450004A0F5B1F9E01265F3F4F4A545F4F83E068
:10046000FA010190AF01F90101929F018150C1F79A
:100470009E01295F3F4FAE01465F5F4F83E0FA0167
:100480000190AF01F90101929F018150C1F79E01D6
:100490002F5F3F4FAE01495F5F4F83E0FA0101904C
:1004A000AF01F90101929F018150C1F7AA51BF4FDD
:1004B0008C91A65EB0408F5F803109F480E0AA5134
:1004C000BF4F8C93DE011496FE01319683E00190BC
:1004D0000D928150E1F76C817D818E8190E02C96A8
:1004E0000FB6F894DEBF0FBECDBFCF91DF91089558
:1004F0001F920F920FB60F9211242F933F934F9399
:100500005F936F937F938F939F93AF93BF93EF937B
:10051000FF93DF93CF93CDB7DEB72997DEBFCDBF73
:100520002091B900287F283209F459C0293278F483
:10053000203101F1213120F4283009F0F1C01AC036
:10054000283109F44CC0203209F0EAC048C02834F0
:1005500009F4B8C0293438F4203309F440C02034F9
:1005600009F0DEC089C0203509F46DC0283509F0D6
:10057000D7C08FC09091610280916202981709F4F0
:10058000CFC08091610290E0FC01EE0FFF1FE80FE9
:10059000F91FDE011496EF5CFD4F83E001900D9290
:1005A0008150E1F7DE011196FE01349683E001905F
:1005B0000D928150E1F7AAE9B2E0FE01319683E0A5
:1005C00001900D928150E1F7809161028F5F80313F
:1005D00009F480E08093610280919A0237C1909182
:1005E0009C0280919B029817B9F438C180919302C4
:1005F000281709F48DC0892F90E0FC01EE0FFF1F32
:10060000E80FF91FED59FD4FDE01179683E00D90BD
:1006100001928150E1F77AC0E091ED01F0E0E355FD
:10062000FE4F80818093BB0085EC8093BC0080915D
:10063000ED018F5F803409F480E08093ED019F5FCE
:1006400090939C021DC12091BB00E09130029E2F2F
:100650009F5F903409F490E080912F02981709F47D
:10066000F9C0F0E0E151FE4F208390933002809179
:100670009C028F5F80939C0220919C0230E02F5F50
:100680003F4F80919B0290E0281739070CF09DC0E6
:10069000DFC02091BB00E09130029E2F9F5F90341D
:1006A00009F490E080912F02981709F4D3C0F0E08C
:1006B000E151FE4F20839093300280919C028F5F26
:1006C00080939C02DE011796EAE9F2E083E0019054
:1006D0000D928150E1F790919402292F2F5F2031E4
:1006E00009F420E080919302281791F0892F90E07F
:1006F000FC01EE0FFF1FE80FF91FED59FD4FDE0162
:10070000179683E00D9001928150E1F720939402B7
:100710009091610280916202981709F084C09AC09A
:10072000203979F1213970F42037F1F0213720F4A4
:10073000203609F08FC018C0203819F1283809F088
:1007400089C045C0283A09F470C0293A30F42839E4
:10075000F1F1203A09F07EC03AC0283B09F465C0A7
:10076000203C09F077C059C081E080939A028091C3
:10077000990280939B0210929C02882309F068C022
:1007800024C02091BB00E09130029E2F9F5F9034E7
:1007900009F490E080912F02981761F0F0E0E151A8
:1007A000FE4F20839093300280919C028F5F809354
:1007B0009C0204C080919C0280939B0290919C02B9
:1007C00080919B02981709F043C085E844C0DE0180
:1007D0001796EAE9F2E083E001900D928150E1F78B
:1007E00090919402292F2F5F203109F420E080910D
:1007F0009302281791F0892F90E0FC01EE0FFF1F64
:10080000E80FF91FED59FD4FDE01179683E00D90BB
:1008100001928150E1F720939402909161028091BE
:1008200062029817A9F085EE16C08091950290910A
:100830009602892B11F48FEF09C0E0919502F09197
:100840009602809197029091980209958093BB003F
:1008500085EC01C085ED8093BC0012C0DE011796C7
:10086000EAE9F2E083E001900D928150E1F7909186
:100870009402292F2F5F203109F0B8CE20E0B6CEA8
:100880002996DEBFCDBFCF91DF91FF91EF91BF9150
:10089000AF919F918F917F916F915F914F913F9118
:1008A0002F910F900FBE0F901F901895EDE6F0E07E
:1008B000808184608083EBE6F0E0808180628083C9
:1008C00085E08BBB809368000895089510926800BE
:1008D00010926D0010926B000895F894882349F0EF
:1008E0002091DB023091DC024091DD025091DE026A
:1008F00008C02091D3023091D4024091D50250918A
:10090000D6027894B901CA010895F894882349F071
:100910002091DF023091E0024091E1025091E20229
:1009200008C02091D7023091D8024091D90250914D
:10093000DA027894B901CA010895F894882389F0FD
:100940001092DB021092DC021092DD021092DE02A5
:100950001092DF021092E0021092E1021092E20285
:1009600010C01092D7021092D8021092D9021092A1
:10097000DA021092D3021092D4021092D502109291
:10098000D60278940895AF92BF92CF92DF92EF9201
:10099000FF920F931F938091A0029091A10281304A
:1009A00021F4E92F792F715004C0E92FE19571E00E
:1009B000791BF8948091DF029091E002A091E1020E
:1009C000B091E20278945C016D01B7FF08C0D09449
:1009D000C094B094A094A11CB11CC11CD11CF8946B
:1009E0008091DB029091DC02A091DD02B091DE02E9
:1009F00078947C018D01B7FF08C010950095F094A4
:100A0000E094E11CF11C011D111D60919D02D601B5
:100A1000C5018E199F09A00BB10B64FD25C09C0177
:100A2000AD01B7FF07C050954095309521953F4FD8
:100A30004F4F5F4F8091020190E0A0E0B0E0281797
:100A400039074A075B077CF1AE14BF04C006D10624
:100A50002CF470931401E093150104C0E093140189
:100A60007093150160611AC09C01AD01B7FF07C00A
:100A700050954095309521953F4F4F4F5F4F809156
:100A8000020190E0A0E0B0E0281739074A075B07B1
:100A900054F0E0931401E09315016F7E60939D0282
:100AA00081E00E949D041F910F91FF90EF90DF90D5
:100AB000CF90BF90AF900895282F80FF0AC083E1A8
:100AC000689FC001112483559745909389008093B6
:100AD000880021FF0AC083E1689FC001112483556B
:100AE000974590938B0080938A0008950F931F93EE
:100AF000982FE6EAF2E0A0E0B0E080818823A1F43C
:100B0000FD0183E0EE0FFF1F8A95E1F7EA0FFB1F5F
:100B1000EA55FD4F90834183528363837483058339
:100B200016832783308705C011963996A530B10505
:100B300021F71F910F9108959091490180914A01E9
:100B4000981709F451C0E0914901F0E0E75DFE4FCC
:100B5000E081809149018F5F803209F480E08093C9
:100B6000490180911803882339F4EF3F61F481E053
:100B70008093180380E00895E13029F4E093E302C4
:100B8000109218031AC08091E302823019F4E093A6
:100B9000E50213C0833019F4E093E4020EC0843000
:100BA00018F1A82FB0E08091E50290E003968A1733
:100BB0009B07D4F0AE51BD4FEC932091E3022F5F21
:100BC0002093E302243080F08091E402882361F0D6
:100BD00030E08091E50290E004962817390721F46F
:100BE0001092E30281E0089580E00895DC01AD57A2
:100BF000BF4F2C91A358B040922F9F5F903609F4BD
:100C000090E0AE57BF4F8C91A258B040981739F082
:100C1000FD01E20FF11D62A3AD57BF4F9C93809180
:100C2000C10080628093C1000895EF92FF920F93FC
:100C30001F93CF93DF938C0189E291E06FEF0E94C5
:100C4000F60589E291E061E00E94F60589E291E013
:100C5000F80161810E94F60589E291E0F801608166
:100C60000E94F605F801E180F02EE80106C089E255
:100C700091E06A810E94F60521969E012F192E159A
:100C8000B0F3DF91CF911F910F91FF90EF900895F6
:100C9000CF92DF92EF92FF920F931F93DF93CF9348
:100CA000CDB7DEB7E4970FB6F894DEBF0FBECDBF69
:100CB00006EA12E096E1C92EDD24D3947E01089461
:100CC000E11CF11CF8016081662309F446C0F89428
:100CD0008091D3029091D402A091D502B091D60216
:100CE00078949C01AD01B7FF07C0509540953095B1
:100CF00021953F4F4F4F5F4FF80181819281A38132
:100D0000B481281739074A075B0738F1F8948091B6
:100D1000D7029091D802A091D902B091DA027894CA
:100D20009C01AD01B7FF07C05095409530952195C6
:100D30003F4F4F4F5F4FF80185819681A781B08566
:100D4000281739074A075B0740F0C982DA826B83AC
:100D5000C7010E941506F8011082075F1F4FF2E0DD
:100D6000033D1F0709F0AECFE4960FB6F894DEBF3F
:100D70000FBECDBFCF91DF911F910F91FF90EF90EC
:100D8000DF90CF9008951F920F920FB60F9211240B
:100D90002F933F934F935F936F937F938F939F9383
:100DA000AF93BF93EF93FF9383B190E09C0144E036
:100DB000369527954A95E1F735E0969587953A95CA
:100DC000E1F7822780FD1FC08091D7029091D80261
:100DD000A091D902B091DA020197A109B1098093DB
:100DE000D7029093D802A093D902B093DA028091EF
:100DF000DF029091E002A091E102B091E20201973E
:100E0000A109B1091EC08091D7029091D802A0918A
:100E1000D902B091DA020196A11DB11D8093D702CB
:100E20009093D802A093D902B093DA028091DF02A6
:100E30009091E002A091E102B091E2020196A11D21
:100E4000B11D8093DF029093E002A093E102B09382
:100E5000E20281E00E944806FF91EF91BF91AF91BD
:100E60009F918F917F916F915F914F913F912F91C2
:100E70000F900FBE0F901F9018951F920F920FB6F4
:100E80000F9211242F933F934F935F936F937F9310
:100E90008F939F93AF93BF93EF93FF9389B190E0AC
:100EA0009C0164E0369527956A95E1F796958795BC
:100EB00096958795822780FD1FC08091D3029091DF
:100EC000D402A091D502B091D6020197A109B1092F
:100ED0008093D3029093D402A093D502B093D6020C
:100EE0008091DB029091DC02A091DD02B091DE02E4
:100EF0000197A109B1091EC08091D3029091D4023B
:100F0000A091D502B091D6020196A11DB11D80938A
:100F1000D3029093D402A093D502B093D6028091CD
:100F2000DB029091DC02A091DD02B091DE0201961D
:100F3000A11DB11D8093DB029093DC02A093DD0222
:100F4000B093DE0280E00E944806FF91EF91BF91CE
:100F5000AF919F918F917F916F915F914F913F9151
:100F60002F910F900FBE0F901F901895DF92EF9268
:100F7000FF920F931F93DF93CF93CDB7DEB7C95482
:100F8000D0400FB6F894DEBF0FBECDBFBC01DC0170
:100F90008C91803109F416C2813190F4843009F4C7
:100FA000A6C0853030F4813009F1833009F090C259
:100FB00021C0853009F4A1C0893009F089C2F9C186
:100FC000843109F472C2853138F4813109F46DC27B
:100FD000823109F07DC2FFC1803209F46AC28132D8
:100FE00009F46DC2853109F073C224C282E08B8B93
:100FF0001C8ADAC1FB0122812093A10283818093A4
:10100000A00290E080FF1CC082FF05C02852209300
:101010001401285D40C083FF04C0209314012852AE
:101020003AC081E00E949D048091A1028093140146
:101030008093150180919D028F7E80939D022DC02B
:10104000AC014470507081FF20C0452B21F088E234
:10105000821B21951EC083FF0AC08091A10298E2E5
:10106000981B8195809314019093150116C080916F
:101070009D028F7E80939D0281E00E949D0480915D
:10108000A1028195809314011AC0452B89F0822F0B
:10109000819580931401209315010E94850060932F
:1010A000A2027093A3028093A4029093A50210C29F
:1010B00083FF08C08091A1028093140181958093E1
:1010C0001501EBCF0E9485006093A2027093A302EA
:1010D0008093A4029093A50210921401109215011E
:1010E00081E00E949D0480919D028F7EEFC1DB0113
:1010F00012968C9180930201EBC186E08B8B83E08A
:101100008C8B809101008E8B809102008F8BFB0174
:10111000D280DD8A1A8281E58B838DEA91E06D2D84
:10112000AE014E5F5F4F22E00E947D018DEA91E0AB
:101130000E940902DE01A95BBF4F6C93FE01E85BD0
:10114000FF4F7083FE01E75BFF4F80839E01265FA8
:101150003F4FFD0183E00190D9010D929D01815027
:10116000D1F78C85823009F01BC10E9485007B017C
:101170008C010E9485006E197F09800B910B6859C4
:101180007B4A82409040A8F382E089838DEA91E017
:101190006D2DAE014F5F5F4F21E00E947D018DEA12
:1011A00091E00E940902DE01A95BBF4F6C93FE0132
:1011B000E85BFF4F7083FE01E75BFF4F80839E017A
:1011C000235F3F4FFD0183E00190D9010D929D0106
:1011D0008150D1F79F85913009F0E2C0FE0137962A
:1011E00083E0DF011D928A95E9F71D2D11601F83B1
:1011F0009887DE01149683E001900D928150E1F70B
:1012000090916202292F2F5F203109F420E0809114
:101210006102281791F0892F90E0FC01EE0FFF1F6B
:10122000E80FF91FEF5CFD4FDE01149683E00D908F
:1012300001928150E1F72093620285EE8093BC0019
:101240008DEA91E00E9409020091BB0083E089834E
:101250008DEA91E06D2DAE014F5F5F4F21E00E945E
:101260007D018DEA91E00E940902DE01A95BBF4F7A
:101270006C93FE01E85BFF4F7083FE01E75BFF4F5D
:1012800080839E01205F3F4FFD0183E00190D901E3
:101290000D929D018150D1F79A89913009F080C05B
:1012A000FE01349683E0DF011D928A95E9F71C83E5
:1012B0009D83DE01179683E001900D928150E1F746
:1012C00090916202292F2F5F203109F420E0809154
:1012D0006102281791F0892F90E0FC01EE0FFF1FAB
:1012E000E80FF91FEF5CFD4FDE01179683E00D90CC
:1012F00001928150E1F72093620285EE8093BC0059
:101300008DEA91E00E9409024091BB001092BC005E
:1013100008C08091ED018F5F803409F480E08093F4
:10132000ED019091ED018091EE01981791F708C0C1
:1013300080912F028F5F803409F480E080932F0228
:1013400090912F0280913002981791F708C08091F8
:1013500093028F5F803109F480E080939302909133
:10136000930280919402981791F708C080916102CE
:101370008F5F803109F480E0809361029091610277
:1013800080916202981791F728E030E002C0220FA6
:10139000331F0A95E2F7842F90E0282B392B02C0E7
:1013A00020E030E03E8B2F8BCE0143960E94150645
:1013B0008FC090E0FB018281813009F491E090932D
:1013C0009E0286C0DB0112968C91129713966C9147
:1013D0000E945C057DC083E18B8B84E08C8BF8944C
:1013E0008091D3029091D402A091D502B091D602FF
:1013F0007894B7FF07C0B095A095909581959F4FC1
:10140000AF4FBF4F9D8B8E8BF8948091D7029091F8
:10141000D802A091D902B091DA027894B7FF07C040
:10142000B095A095909581959F4FAF4FBF4F9F8BE3
:10143000888FBACFFB019281A38124811581068117
:10144000E6EAF2E040E050E08081882319F5FA01F5
:10145000B3E0EE0FFF1FBA95E1F7E40FF51FEA5571
:10146000FD4F90839A2F80E030E0822B932BA0E0F9
:10147000B0E081839283A383B483912F80E0202FF7
:1014800030E0822B932BA0E0B0E085839683A78386
:10149000B08706C04F5F5F4F399645305105A1F6C2
:1014A000DB0117968C91813099F480E00E949D04B5
:1014B0000FC080919D02FB019281892B07C0DB0147
:1014C00012969C91909580919D02892380939D0214
:1014D000C75BDF4F0FB6F894DEBF0FBECDBFCF9115
:1014E000DF911F910F91FF90EF90DF90089581E0C1
:1014F00080939D0280919D0280FF07C08091A00291
:101500008150823010F40E94C3040E949C058823FD
:1015100089F384EE92E00E94B607ECCF84B1866036
:1015200084B910928500109284009FEB90938700FD
:101530008FEF80938600909389008093880090932A
:101540008B0080938A0082EF809380008AE18093F1
:10155000810081E080936F0017BC18BC80936E00FF
:1015600081EF84BD1092B3001092B400109270000D
:101570001092B6008093B00022E025BD2093B10008
:1015800083E883BD16BC1092B20083E083BD239A2A
:101590008AB188668AB988E080937E0083E480936C
:1015A0007C0010927B008FED80937A0087B187607A
:1015B00087B93B9880E094E09093170180931601DF
:1015C000909319018093180190931B0180931A0145
:1015D00090931D0180931C0190931F0180931E0125
:1015E0009093210180932001909323018093220105
:1015F000909325018093240157985F982093C00011
:1016000086E08093C2001092C50080E48093C400FD
:1016100088E98093C10081E18093B8001092B900FD
:101620001092BD001092BA0085EC8093BC00289AFD
:101630000E94560478940E94770AF89410926800E9
:1016400010926D0010926B0028981092BC001092BE
:10165000C1001092C0001092C20057985F9810927B
:101660007A0087B1807F87B914BC15BC1092B00096
:101670001092B100109281001092800084B1897F95
:1016800084B9FFE1E1E8099480E090E008951F93B8
:10169000DF93CF93CDB7DEB7E4970FB6F894DEBFF4
:1016A0000FBECDBF182F882331F0809126018823EB
:1016B00009F057C04BC080912601882309F451C01E
:1016C00045C080919F02882321F0112311F488E006
:1016D00016C00E9485002091A2023091A302409181
:1016E000A4025091A502621B730B840B950B605AE8
:1016F00075428642904058F0112349F087E0898373
:101700001A82CE0101960E94150610939F021123A2
:1017100081F080911903803218F45F9A579A02C0C1
:1017200057985F9890E001968F739070809319039B
:1017300018C080912601882331F4809128018823E4
:1017400011F457985F9A109227010BC080912601DF
:1017500091E089278093260180919E028823B9F227
:10176000B0CFE4960FB6F894DEBF0FBECDBFCF91D9
:10177000DF911F9108951F920F920FB60F921124BF
:101780000F931F932F933F934F935F936F937F9389
:101790008F939F93AF93BF93EF93FF9300911B039E
:1017A000002349F13091780020917900922F80E058
:1017B000232F30E0282B392B10911C03E12FF0E070
:1017C000E95FFE4FE081F0E0EE0FFF1FEA5EFE4FA3
:1017D00031832083163031F42C5B324008F481E0F1
:1017E0000E94470B912F9F5F977090931C0388B1C5
:1017F000887F982B98B981E0082700931B0380917C
:101800007A00806480937A00FF91EF91BF91AF914D
:101810009F918F917F916F915F914F913F912F9108
:101820001F910F910F900FBE0F901F90189510925F
:10183000490110924A011092AB011092AC01109232
:10184000ED011092EE0110922F02109230021092D0
:10185000610210926202109293021092940210920E
:101860009602109295021092990210929B02109289
:10187000E4021092E5020895EE0FFF1F0590F49127
:08188000E02D0994F894FFCF5C
:10188800000205747E7A330504000102030607008E
:00000001FF
