:100000000C946B000C9493000C9493000C94880A4D
:100010000C9493000C94020B0C9493000C9493009A
:100020000C9493000C9493000C9493000C94930004
:100030000C9493000C9495000C9493000C949300F2
:100040000C9436010C9493000C94B6010C94F601B8
:100050000C9493000C9474090C9493000C949300EA
:100060000C94C3030C949300AB0B6A0DCB0BD50B14
:100070006A0D6A0D6A0D6A0DDA0B6A0D6A0D6A0D5A
:100080006A0D6A0D6A0DE30B490CFE0B6A0D490CF3
:100090002D0C6A0D6A0D6A0D6A0D6A0D6A0D6A0DE6
:1000A0006A0D6A0D6A0D4D0C530C5A0C6A0D630CE7
:1000B000730C6A0D890C6A0D400C6A0D6A0D6A0D8D
:1000C0006A0D6A0D6A0D6A0D9B0C6A0D6A0D6A0D48
:1000D000100D510D5F1011241FBECFEFD4E0DEBF15
:1000E000CDBF11E0A0E0B1E0E6E3F1E202C005908F
:1000F0000D92AA31B107D9F712E0AAE1B1E001C02F
:100100001D92A93FB107E1F710E0C6EDD0E004C0B1
:100110002297FE010E949510C43DD107C9F70E94A5
:10012000FB0F0C9499100C9400001F920F920FB6C5
:100130000F9211248F939F93AF93BF9380911A01D5
:1001400090911B01A0911C01B0911D018050904421
:10015000AF4FBF4F80931A0190931B01A0931C01D6
:10016000B0931D01BF91AF919F918F910F900FBEE2
:100170000F901F901895EF92FF920F931F939091FD
:10018000840040918500F894E0901A01F0901B01E2
:1001900000911C0110911D01789480918400809140
:1001A0008500841760F3342F20E0892F90E0282BFE
:1001B000392B40E050E02E0D3F1D401F511FB9016B
:1001C000CA011F910F91FF90EF900895AF92BF92D7
:1001D000CF92DF92EF92FF920F931F937B018C01DE
:1001E00022E0EE0CFF1C001F111F2A95D1F7E60E2E
:1001F000F71E081F191F16950795F794E7940E949C
:10020000BB005B016C010E94BB006A197B098C0971
:100210009D096E157F0580079107A8F31F910F9127
:10022000FF90EF90DF90CF90BF90AF90089584B192
:10023000866084B910928500109284009FEB9093A1
:1002400087008FEF809386009093890080938800C9
:1002500090938B0080938A0082EF809380008AE1E4
:100260008093810081E080936F0008951F920F9228
:100270000FB60F9211248F939F938091F8028F5F96
:100280008093F802833009F049C01092F8029091EF
:100290001E018091F702891701F1891714F48F5F0D
:1002A00001C081508093F7029091F702992319F4CD
:1002B0001092B30010C097FF0AC01092B3008EEFE7
:1002C0009802C00111248F5F8093B40006C0990F7B
:1002D0009F5F9093B3001092B40090911F018091A2
:1002E000F6028917D9F0891714F48F5F01C0815085
:1002F0008093F6029091F602992311F417BC0DC079
:1003000019162CF417BC990F9F5F98BD07C08EEF8C
:100310009802C00111248F5F87BD18BC9F918F91F7
:100320000F900FBE0F901F90189517BC18BC81E05E
:1003300080936E0081EF84BD1092B3001092B400E0
:10034000109270001092B6008093B00082E085BDDC
:100350008093B10083E883BD16BC1092B20083E0A5
:1003600083BD239A8AB188668AB908951F920F9235
:100370000FB60F9211242F938F939F93EF93FF93B8
:100380002091C6009091F302E92FF0E0EB5EFE4F62
:100390008081281771F4892F8F5F8093F302843056
:1003A00051F4F89488E18093600088E080936000C5
:1003B000FFCF1092F302E09144019E2F9F5F903295
:1003C00009F490E080914301981731F0F0E0ED5D81
:1003D000FE4F208390934401FF91EF919F918F9165
:1003E0002F910F900FBE0F901F9018951F920F9294
:1003F0000FB60F9211248F939F93EF93FF939091D9
:10040000A5018091A601981789F0E091A501F0E07F
:10041000ED5DFE4F92A18091A5018F5F803609F4BA
:1004200080E08093A5019093C60005C08091C10033
:100430008F7D8093C100FF91EF919F918F910F90DD
:100440000FBE0F901F901895AF92BF92CF92DF9280
:10045000EF92FF920F931F93DF93CF9300D000D0C2
:1004600000D0CDB7DEB7DC01162FD22E30E0BC01B4
:100470006F5B7F4FE0E4EE2EF12CE80EF91E18C002
:10048000FA010081FB01C0809C2D9F5F903409F42C
:1004900090E0F7018081232F2F5F981759F04F5F6D
:1004A0005F4FFD01EC0DF11D0083FB019083322FA6
:1004B0003D1530F3AE014F5F5F4F83E0FA011192BB
:1004C0008A95E9F71E7F19833A839E012C5F3F4F7F
:1004D00083E0FA010190AF01F90101929F0181507F
:1004E000C1F7AB54BF4F9C91A55BB040492F4F5F04
:1004F000403109F440E0AC54BF4F8C91A45BB04054
:100500004817D1F0892F90E0BC01660F771F680F64
:10051000791F6A0F7B1F6C577F4F9E012C5F3F4FE7
:1005200083E0F90101909F01FB010192BF0181501D
:10053000C1F7AB54BF4F4C9385EE8093BC00269619
:100540000FB6F894DEBF0FBECDBFCF91DF911F91E4
:100550000F91FF90EF90DF90CF90BF90AF900895F4
:100560000F931F93DF93CF9300D000D000D0CDB76F
:10057000DEB7DC018E010F5F1F4F83E0F80111929F
:100580008A95E9F7616069834A839E012C5F3F4F3A
:10059000A80183E0FA010190AF01F90101929F01E6
:1005A0008150C1F7AB54BF4F9C91A55BB040492F20
:1005B0004F5F403109F440E0AC54BF4F8C91A45BD5
:1005C000B0404817D1F0892F90E0BC01660F771F2B
:1005D000680F791F6A0F7B1F6C577F4F9E012C5F3E
:1005E0003F4F83E0F90101909F01FB010192BF01A0
:1005F0008150C1F7AB54BF4F4C9385EE8093BC0044
:1006000026960FB6F894DEBF0FBECDBFCF91DF9117
:100610001F910F910895DF93CF93CDB7DEB72C973D
:100620000FB6F894DEBF0FBECDBFDC01AC014A515E
:100630005F4F9C0129513F4FFA019081F901808160
:100640009817D1F3FA01808190E0AC01440F551F57
:10065000480F591F4A0F5B1F9E01265F3F4F4A54A8
:100660005F4F83E0FA010190AF01F90101929F0110
:100670008150C1F79E01295F3F4FAE01465F5F4F3A
:1006800083E0FA010190AF01F90101929F018150CD
:10069000C1F79E012F5F3F4FAE01495F5F4F83E07F
:1006A000FA010190AF01F90101929F018150C1F758
:1006B000AA51BF4F8C91A65EB0408F5F803109F484
:1006C00080E0AA51BF4F8C93DE011496FE01319653
:1006D00083E001900D928150E1F76C817D818E81E4
:1006E00090E02C960FB6F894DEBF0FBECDBFCF9131
:1006F000DF9108959C01FC01E05CFF4FDC01AF5BE2
:10070000BF4F06C080818F5F803409F480E0808312
:1007100090818C919817B1F707C080818F5F8034EA
:1007200009F480E0808306C0F901EE57FF4FD9013C
:10073000AD57BF4F90818C91981779F707C0808192
:100740008F5F803109F480E0808306C0F901EA51AF
:10075000FF4FD901A951BF4F90818C91981779F71C
:1007600007C080818F5F803109F480E0808306C0FC
:10077000F901EC54FF4FD901AB54BF4F90818C91DC
:10078000981779F708951F920F920FB60F921124C0
:100790002F933F934F935F936F937F938F939F9389
:1007A000AF93BF93EF93FF93DF93CF93CDB7DEB7B4
:1007B0002997DEBFCDBF2091B900287F283209F4E8
:1007C00059C0293278F4203101F1213120F4283048
:1007D00009F0F1C01AC0283109F44CC0203209F0E8
:1007E000EAC048C0283409F4B8C0293438F42033AA
:1007F00009F440C0203409F0DEC089C0203509F476
:100800006DC0283509F0D7C08FC090915B028091F0
:100810005C02981709F4CFC080915B0290E0FC0164
:10082000EE0FFF1FE80FF91FDE011496E55DFD4F87
:1008300083E001900D928150E1F7DE011196FE01F7
:10084000349683E001900D928150E1F7A4E9B2E083
:10085000FE01319683E001900D928150E1F7809185
:100860005B028F5F803109F480E080935B028091AE
:10087000940237C190919602809195029817B9F42D
:1008800038C180918D02281709F48DC0892F90E01E
:10089000FC01EE0FFF1FE80FF91FE35AFD4FDE01C9
:1008A000179683E00D9001928150E1F77AC0E091B4
:1008B000E701F0E0E955FE4F80818093BB0085ECB5
:1008C0008093BC008091E7018F5F803409F480E061
:1008D0008093E7019F5F909396021DC12091BB001A
:1008E000E0912A029E2F9F5F903409F490E080915E
:1008F0002902981709F4F9C0F0E0E751FE4F208370
:1009000090932A02809196028F5F809396022091A5
:10091000960230E02F5F3F4F8091950290E02817BC
:1009200039070CF09DC0DFC02091BB00E0912A0286
:100930009E2F9F5F903409F490E0809129029817D0
:1009400009F4D3C0F0E0E751FE4F208390932A02D0
:10095000809196028F5F80939602DE011796E4E9FC
:10096000F2E083E001900D928150E1F790918E02C8
:10097000292F2F5F203109F420E080918D02281764
:1009800091F0892F90E0FC01EE0FFF1FE80FF91F97
:10099000E35AFD4FDE01179683E00D9001928150DE
:1009A000E1F720938E0290915B0280915C02981790
:1009B00009F084C09AC0203979F1213970F42037C8
:1009C000F1F0213720F4203609F08FC018C020380C
:1009D00019F1283809F089C045C0283A09F470C0D7
:1009E000293A30F42839F1F1203A09F07EC03AC0B2
:1009F000283B09F465C0203C09F077C059C081E06C
:100A000080939402809193028093950210929602B3
:100A1000882309F068C024C02091BB00E0912A021D
:100A20009E2F9F5F903409F490E0809129029817DF
:100A300061F0F0E0E751FE4F208390932A0280910D
:100A400096028F5F8093960204C0809196028093F5
:100A500095029091960280919502981709F043C0F3
:100A600085E844C0DE011796E4E9F2E083E00190F6
:100A70000D928150E1F790918E02292F2F5F203146
:100A800009F420E080918D02281791F0892F90E0E1
:100A9000FC01EE0FFF1FE80FF91FE35AFD4FDE01C7
:100AA000179683E00D9001928150E1F720938E021A
:100AB00090915B0280915C029817A9F085EE16C0B8
:100AC00080918F0290919002892B11F48FEF09C0D1
:100AD000E0918F02F09190028091910290919202A8
:100AE00009958093BB0085EC01C085ED8093BC0027
:100AF00012C0DE011796E4E9F2E083E001900D9266
:100B00008150E1F790918E02292F2F5F203109F05B
:100B1000B8CE20E0B6CE2996DEBFCDBFCF91DF9113
:100B2000FF91EF91BF91AF919F918F917F916F91C5
:100B30005F914F913F912F910F900FBE0F901F909B
:100B40001895EDE6F0E0808184608083EBE6F0E0CC
:100B500080818062808385E08BBB809368000895EC
:100B600008951092680010926D0010926B00089525
:100B70000F931F93DF93CF9300D0CDB7DEB71982C9
:100B800081E58A836091A90207EA11E0C801AE01FC
:100B90004F5F5F4F22E00E942402C8010E940B03B6
:100BA00088E99BEAA2E0B0E08093080190930901F4
:100BB000A0930A01B0930B0181E08093A6020F90ED
:100BC0000F90CF91DF911F910F910895F894882392
:100BD00049F02091D1023091D2024091D30250913C
:100BE000D40208C02091C9023091CA024091CB02C0
:100BF0005091CC027894B901CA010895F8948823E1
:100C000049F02091D5023091D6024091D7025091FF
:100C1000D80208C02091CD023091CE024091CF027F
:100C20005091D0027894B901CA010895F8948823AC
:100C300089F01092D1021092D2021092D302109237
:100C4000D4021092D5021092D6021092D7021092BE
:100C5000D80210C01092CD021092CE021092CF0294
:100C60001092D0021092C9021092CA021092CB02C6
:100C70001092CC0278940895282F80FF0EC0CB01EB
:100C8000880F991F880F991F909581959F4F8F54BA
:100C90009C44909389008093880021FF0EC0CB0173
:100CA000880F991F880F991F909581959F4F8F549A
:100CB0009C4490938B0080938A0022FF09C010927D
:100CC00003015F9A579A81E0809321018093A802E3
:100CD0000895E0EBF2E020E030E090819817C9F051
:100CE000992389F4F894F901EE0FFF1FEE0FFF1F0F
:100CF000E20FF31FE055FD4F8083728361835483BD
:100D00004383789408952F5F3F4F35962530310502
:100D100021F70895982FE0EBF2E020E030E08081A9
:100D2000891769F4F894F901EE0FFF1FEE0FFF1F0A
:100D3000E20FF31FE055FD4F1082789408952F5F66
:100D40003F4F35962530310551F708959091430175
:100D500080914401981709F451C0E0914301F0E0FB
:100D6000ED5DFE4FE081809143018F5F803209F499
:100D700080E0809343018091E602882339F4EF3FBD
:100D800061F481E08093E60280E00895E13029F487
:100D9000E093D9021092E6021AC08091D902823003
:100DA00019F4E093DB0213C0833019F4E093DA0204
:100DB0000EC0843018F1A82FB0E08091DB0290E0E3
:100DC00003968A179B07D4F0A852BD4FEC9320914D
:100DD000D9022F5F2093D902243080F08091DA026B
:100DE000882361F030E08091DB0290E004962817C0
:100DF000390721F41092D90281E0089580E0089526
:100E0000DC01AD57BF4F2C91A358B040922F9F5F8C
:100E1000903609F490E0AE57BF4F8C91A258B04085
:100E2000981739F0FD01E20FF11D62A3AD57BF4FD6
:100E30009C938091C10080628093C1000895EF92DD
:100E4000FF920F931F93CF93DF938C0183E291E086
:100E50006FEF0E94000783E291E06FEE0E940007AF
:100E600083E291E0F80161810E94000783E291E052
:100E7000F80160810E940007F801E180F02EE8018E
:100E800006C083E291E06A810E94000721969E01DC
:100E90002F192E15B0F3DF91CF911F910F91FF9075
:100EA000EF900895DF93CF93CDB7DEB72C970FB6B1
:100EB000F894DEBF0FBECDBF93E3998392E09A838F
:100EC0008B836C83CE0101960E941F072C960FB670
:100ED000F894DEBF0FBECDBFCF91DF9108950F9381
:100EE0001F93182F062F282F332727FD309537FF04
:100EF00005C088279927821B930B01C0C901202FA9
:100F0000332727FD309537FF05C066277727621BFB
:100F1000730B01C0B9010E94520710931E01009388
:100F20001F011F910F9108958091AA028823B9F49F
:100F30000E94BB006093AC027093AD028093AE023E
:100F40009093AF0280E060E00E946F0781E00E9412
:100F50001606809197028F7E809397020895809164
:100F6000970285FD7BC08091AA0280FF20C08091FE
:100F7000AA0282FF05C06091AB02862F88524BC047
:100F80008091AA0283FF05C06091AB02862F685250
:100F900042C081E00E9416066091AB02862F0E943B
:100FA0006F07809197028F7E8093970236C0809161
:100FB000AA0281FF1FC08091AA0282FF05C0609132
:100FC000AB0288E2861B26C08091AA0283FF05C07F
:100FD0008091AB0268E2681B14C0809197028F7EFB
:100FE0008093970281E00E9416066091AB026195A2
:100FF000862F11C08091AA0282FF05C06091AB02CA
:10100000862F819508C08091AA0283FF11C060914C
:10101000AB02862F61950E946F070E94BB00609310
:10102000AC027093AD028093AE029093AF0208952C
:101030000E94BB006093AC027093AD028093AE023D
:101040009093AF0280E060E00E946F0781E00E9411
:101050001606809197028F7E8093970208958823C9
:1010600029F0809197028F7B809397020E9417014D
:101070000E9495010E9494070895AF92BF92CF926B
:10108000DF92EF92FF920F931F9381E065E971E089
:101090000E943C0682E060E070E00E943C065F9A9D
:1010A000579A81E08093210160E472E48FE090E040
:1010B0000E94E60080EAE82E85E2F82E86E2082FFC
:1010C000112DE0920401F0920501009306011093A6
:1010D0000701579A5F981092210181E068EC7EEF3A
:1010E0000E943C0682E062EB72E00E943C0680E0D7
:1010F0000E9416068FE76FE70E946F0760E472E4B4
:101100008FE090E00E94E600E0920401F092050179
:10111000009306011093070180E060E00E946F07D2
:10112000F894A090C902B090CA02C090CB02D090AF
:10113000CC0278946501BB24AA24F894E090CD02F7
:10114000F090CE020091CF021091D002789480E00E
:101150000E94160600E010E0EA28FB280C291D2951
:10116000B701C8011F910F91FF90EF90DF90CF90D2
:10117000BF90AF900895882329F0809197028064F2
:101180008093970280E060E00E946F07579A5F9813
:101190001092210110927A0087B1807F87B914BC28
:1011A00015BC1092B0001092B10008958091AA026F
:1011B0009091AB02813011F4792F02C0792F719593
:1011C0008091AA029091AB02813019F4692F61508D
:1011D00002C061E0691BF8948091D5029091D6021B
:1011E000A091D702B091D80278949C0197FF05C0D6
:1011F000AA27BB27A21BB30B01C0DC01F8942091E6
:10120000D1023091D2024091D3025091D40278940D
:10121000C90137FF04C022273327281B390B8091CF
:10122000970284FD3EC0FD01E21BF30BF7FF03C0F4
:10123000F095E195FF4F8091140190E0E817F907D0
:1012400080F140E050E0CD01A0E0B0E082179307CC
:10125000A407B5071CF4862F672F01C0872F0E94B3
:101260006F0780919702806116C0CD01821B930B9E
:101270009C0197FF03C0309521953F4F8091140149
:1012800090E02817390788F0872F672F0E946F0793
:10129000809197028F7E8093970281E00E941606CC
:1012A00008958091970284FDE0CF0895DF93CF9356
:1012B000CDB7DEB72C970FB6F894DEBF0FBECDBF0B
:1012C00089E1898382E08A8381E08B838C83CE01EC
:1012D00001960E941F072C960FB6F894DEBF0FBE32
:1012E000CDBFCF91DF9108951F920F920FB60F924D
:1012F00011240F931F932F933F934F935F936F93FB
:101300007F938F939F93AF93BF93EF93FF9310912E
:10131000F402112339F12091780040917900009175
:10132000F5020023B1F480910001882391F0942FFD
:1013300080E030E0822B932B20910101309102015B
:10134000821B930B8F5F914021F4109200010E9449
:101350005609902F9F5F97709093F50288B1887F10
:10136000982B98B981E018271093F402809100011E
:10137000882329F080917A00806480937A00FF911D
:10138000EF91BF91AF919F918F917F916F915F91FD
:101390004F913F912F911F910F910F900FBE0F9082
:1013A0001F901895DF93CF93CDB7DEB72C970FB66C
:1013B000F894DEBF0FBECDBF8091970280FD15C0AF
:1013C0008091970281608093970289E1898382E00E
:1013D0008A838B8381E08C83CE0101960E941F0754
:1013E00080916B008E7F80936B002C960FB6F894E3
:1013F000DEBF0FBECDBFCF91DF910895CF92DF92B8
:10140000EF92FF920F931F93DF93CF93CDB7DEB789
:101410002C970FB6F894DEBF0FBECDBF80E49BE4DF
:10142000ACE4B0E08093100190931101A0931201FD
:10143000B093130100EB12E096E1C92EDD24D394A2
:101440007E010894E11CF11CD801EC91EE2309F413
:1014500049C011966D917C91129761157105A1F0AB
:10146000F8948091C9029091CA02A091CB02B091E8
:10147000CC0278949C0197FF04C088279927821B8F
:10148000930B8617970700F5D80113964D915C9141
:10149000149741155105A1F0F8948091CD029091D7
:1014A000CE02A091CF02B091D00278949C0197FF18
:1014B00004C088279927821B930B8417950720F473
:1014C000672B81F4452B71F4F894C982DA82EB839F
:1014D000F8011082C7010E941F071092AA020E9401
:1014E000940778940B5F1F4FF2E0093C1F0709F047
:1014F000ABCF2C960FB6F894DEBF0FBECDBFCF9109
:10150000DF911F910F91FF90EF90DF90CF900895A2
:101510001F920F920FB60F9211242F933F934F9368
:101520005F936F937F938F939F93AF93BF93EF934B
:10153000FF9383B190E09C0144E0369527954A954E
:10154000E1F735E0969587953A95E1F7822780FD9A
:101550001FC08091CD029091CE02A091CF02B09198
:10156000D0020197A109B1098093CD029093CE02D8
:10157000A093CF02B093D0028091D5029091D60271
:10158000A091D702B091D8020197A109B1091EC05C
:101590008091CD029091CE02A091CF02B091D00265
:1015A0000196A11DB11D8093CD029093CE02A09310
:1015B000CF02B093D0028091D5029091D602A09133
:1015C000D702B091D8020196A11DB11D8093D5021A
:1015D0009093D602A093D702B093D80281E00E94E4
:1015E000FE09FF91EF91BF91AF919F918F917F91F4
:1015F0006F915F914F913F912F910F900FBE0F9080
:101600001F9018951F920F920FB60F9211242F93CF
:101610003F934F935F936F937F938F939F93AF937A
:10162000BF93EF93FF9389B190E09C0164E03695FE
:1016300027956A95E1F796958795969587958227E0
:1016400080FD1FC08091C9029091CA02A091CB0277
:10165000B091CC020197A109B1098093C90290937E
:10166000CA02A093CB02B093CC028091D102909198
:10167000D202A091D302B091D4020197A109B1097D
:101680001EC08091C9029091CA02A091CB02B09174
:10169000CC020196A11DB11D8093C9029093CA028C
:1016A000A093CB02B093CC028091D1029091D20250
:1016B000A091D302B091D4020196A11DB11D8093D7
:1016C000D1029093D202A093D302B093D40280E0CF
:1016D0000E94FE09FF91EF91BF91AF919F918F9171
:1016E0007F916F915F914F913F912F910F900FBE1E
:1016F0000F901F9018952F923F924F925F926F928A
:101700007F928F929F92AF92BF92CF92DF92EF9291
:10171000FF920F931F93DF93CF93CDB7DEB76C97F4
:101720000FB6F894DEBF0FBECDBF8C01809197023B
:1017300086FFA7C1F8018081843209F4A2C18532F5
:1017400009F49FC183E28E8781E08F8780919702A1
:101750008078888B7DC087EE92E00E941F0780EA28
:1017600095E2A6E2B0E08093040190930501A09376
:101770000601B093070180910301882309F4AAC1EF
:101780008091A902882309F0A5C180EE8093A90267
:101790000E94B8059FC1F80182818093AB028381CA
:1017A0008093AA020E94940795C1F80182818093D8
:1017B000140190C190E0F8018281813009F491E038
:1017C0009093980287C1F8018581438124818130FB
:1017D00051F4942F80E030E0822B932B66277727FB
:1017E000681B790B06C0942F80E0622F70E0682B95
:1017F000792BF80182810E943C066CC183E18E87BF
:1018000084E08F87F8948091C9029091CA02A091D8
:10181000CB02B091CC0278949C0197FF04C088273A
:101820009927821B930B988B898BF8948091CD021A
:101830009091CE02A091CF02B091D00278949C01F9
:1018400097FF04C088279927821B930B9A8B8B8B59
:10185000CE010E960E941F073DC1F801738160E022
:10186000848190E0682B792B558140E0868190E05F
:10187000482B592B82810E946906F801878106C096
:10188000F80182810E948A06F8018381813009F083
:1018900021C180E00E9416061DC180919702F801C7
:1018A0009281892B4DC090919702F8018281809599
:1018B000892346C081E00E94BB0883E28E8781E0D5
:1018C0008F87188AC5CF81E00E942F0880EA95E2B1
:1018D000A6E2B0E08093040190930501A093060175
:1018E000B0930701F7C086E28E8781E08F878091F1
:1018F000970290E036E0969587953A95E1F78170EA
:10190000888BCE010E960E941F07809197028F77D9
:1019100017C088E28E8785E08F8783B180958170BC
:10192000888B0E943D089C0144275527398B2A8BC0
:101930007B8B6C8B8DCF10920301809197028F7DF2
:1019400080939702C7C0F2E0DF0E84E0898387EAC4
:1019500091E06D2DA40121E00E94240287EA91E02C
:101960000E940B036A8F7B8F8C8FD101F50183E07E
:1019700001900D928150E1F78E81813009F04BC0CA
:1019800087EA91E06D2D41E00E94B00287EA91E084
:101990000E940B031091BB00E5E0E98387EA91E028
:1019A0006D2DA40121E00E94240287EA91E00E94AB
:1019B0000B036A8F7B8F8C8FD201F50183E001903E
:1019C0000D928150E1F7C984F1E0CF1621F587EA45
:1019D00091E06D2D41E00E94B00287EA91E00E9403
:1019E0000B030091BB00730102C0EE0CFF1C1A95A3
:1019F000E2F71092BC0087EA91E00E947A0310E0BF
:101A0000E02AF12A89ECE816F10428F084E38E87B5
:101A1000CF86D88A1DCFE8EEDE1609F094CF5AC0E3
:101A200080EA8A878AEA8B8785EA8C87F801828137
:101A30008D878E01065F1F4F92E0C92ED12CCC0EF0
:101A4000DD1E8EE0E82EF12CEC0EFD1E1B821A82AC
:101A5000F80181918F018B8387EA91E060EEA60106
:101A600022E00E94240287EA91E00E940B030E15F7
:101A70001F0561F71092BC0087EA91E00E947A038B
:101A800029C0F801808190E0FC013197E633F1052F
:101A900008F5EC5CFF4FEE0FFF1F0590F491E02D71
:101AA0000994B0EEDB2E4E010894811C911CA4E039
:101AB0002A2E312C2C0E3D1EFAE1AF2EB12CAC0E8D
:101AC000BD1EE7E04E2E512C4C0E5D1E78E0672EB9
:101AD000712C3BCF6C960FB6F894DEBF0FBECDBF16
:101AE000CF91DF911F910F91FF90EF90DF90CF90FA
:101AF000BF90AF909F908F907F906F905F904F902E
:101B00003F902F900895FF920F931F93DF93CF93F1
:101B1000CDB7DEB766970FB6F894DEBF0FBECDBF68
:101B200080E3888783E08987F090A90282E0898337
:101B300087EA91E06F2DAE014F5F5F4F21E00E9479
:101B4000240287EA91E00E940B036C8B7D8B8E8BC5
:101B5000DE011296FE01749683E001900D92815091
:101B6000E1F78C81813019F000E010E046C087EA8F
:101B700091E06F2D41E00E94B00287EA91E00E945F
:101B80000B038091BB0008E010E002C0000F111FA2
:101B90008A95E2F783E0898387EA91E06F2DAE01B1
:101BA0004F5F5F4F21E00E94240287EA91E00E948C
:101BB0000B036C8B7D8B8E8BDE011596FE0174966C
:101BC00083E001900D928150E1F78F818130A9F47B
:101BD00087EA91E06F2D41E00E94B00287EA91E030
:101BE0000E940B038091BB0090E0082B192B1092F0
:101BF000BC0087EA91E00E947A038091A9028A875B
:101C00001B870C87CE0108960E941F07083011051C
:101C100011F4FF2406C0FF240E32110510F4FF2436
:101C2000F3948091A9028E5F8093A9028091A9020A
:101C3000893E18F40E94B80502C01092A9028F2DA7
:101C400066960FB6F894DEBF0FBECDBFCF91DF9181
:101C50001F910F91FF9008952F923F924F925F92A4
:101C60006F927F928F929F92AF92BF92CF92DF92AC
:101C7000EF92FF920F931F93DF93CF93CDB7DEB711
:101C800068970FB6F894DEBF0FBECDBF10929702D3
:101C90008AEB8093890089E48093880088EA8093A6
:101CA0008B0089EE80938A00579A5F9810922101E9
:101CB0007E010894E11CF11C50E4252E5BE4352ED6
:101CC0005CE4452E512C40E7642E48E3742E49E332
:101CD000842E912C8091AA02813021F08091AA0259
:101CE000823011F40E94D6080E94A606882321F0B3
:101CF0008AED92E00E947B0B8091970287FDEACFEC
:101D00008091970286FDE6CF73C10E94D2090E949E
:101D1000BB0060939E0270939F028093A0029093F9
:101D2000A10220919A0230919B0240919C02509115
:101D30009D025B016C01A21AB30AC40AD50AA092E3
:101D4000A202B092A302C092A402D092A5028091F6
:101D5000040190910501A0910601B0910701A81618
:101D6000B906CA06DB0690F080E060E00E946F07CB
:101D700081E00E94BB08809197028F7E809397023A
:101D80008091970280688093970214C0809104012B
:101D900090910501A0910601B09107018A199B0954
:101DA000AC09BD098093040190930501A09306013D
:101DB000B09307018091A602882309F477C080912F
:101DC0000301882309F472C08091080190910901F0
:101DD000A0910A01B0910B012091A2023091A302BF
:101DE0004091A4025091A502281739074A075B07C2
:101DF00008F448C088E99BEAA2E0B0E080930801BB
:101E000090930901A0930A01B0930B011092A602CE
:101E10000E94830D182F8823A1F08091970285FDE1
:101E200027C08091970280628093970280E060E0F3
:101E30000E946F0795E099831A82C7010E941F07CD
:101E400017C08091970285FF11C08091A70282334D
:101E500068F0809197028F7D80939702A6E0A98316
:101E60001A82C7010E941F070E949407809197025F
:101E70008091A7028F5F8093A7021123B9F010927F
:101E8000A70214C08091080190910901A0910A0154
:101E9000B0910B01821B930BA40BB50B809308012F
:101EA00090930901A0930A01B0930B018091A802BD
:101EB000882381F180910C0190910D01A0910E0178
:101EC000B0910F012091A2023091A3024091A4028F
:101ED0005091A502281739074A075B0778F010923E
:101EE000A802579A5F981092210160920C0170929B
:101EF0000D0180920E0190920F010CC0821B930B7A
:101F0000A40BB50B80930C0190930D01A0930E01CF
:101F1000B0930F018091AA02882309F458C08091E0
:101F2000970285FD54C08091100190911101A091FC
:101F30001201B09113012091A2023091A3024091AD
:101F4000A4025091A502281739074A075B0758F1E8
:101F5000B2E3B9831A82C7010E941F0700EB12E0A7
:101F6000F8018081882381F0F6E1FD87AA24A394FB
:101F7000AE868F87D8011C92CE010D960E941F0756
:101F80001092AA020E9494070B5F1F4FB2E0093C17
:101F90001B0731F72092100130921101409212017B
:101FA0005092130114C08091100190911101A091E1
:101FB0001201B0911301821B930BA40BB50B8093FC
:101FC000100190931101A0931201B093130180911D
:101FD0009E0290919F02A091A002B091A1028093D5
:101FE0009A0290939B02A0939C02B0939D0272CEA2
:101FF00018998DCE8ACE0E9417010E94950188E023
:1020000080937E0083E480937C0010927B008FEDB0
:1020100080937A0087B1876087B93B9857985F981B
:1020200082E08093C00086E08093C2001092C500D9
:1020300080E48093C40088E98093C10081E18093AB
:10204000B8001092B9001092BD001092BA0085EC51
:102050008093BC0085B1816185B90E94A105789407
:102060000E942C0EF8941092680010926D00EBE61E
:10207000F0E0108280818E7F80831092BC001092ED
:10208000C1001092C0001092C20057985F98109241
:102090007A0087B1807F87B914BC15BC1092B0005C
:1020A0001092B100109281001092800084B1897F5B
:1020B00084B9FFE1E1E8099480E090E0089510928E
:1020C0004301109244011092A5011092A6011092B2
:1020D000E7011092E8011092290210922A02109250
:1020E0005B0210925C0210928D0210928E0210928E
:1020F000900210928F0210929302109295020E9409
:10210000BB0060939A0270939B0280939C02909311
:102110009D021092DA021092DB0282E08093E702C5
:102120001092E8020895EE0FFF1F0590F491E02D44
:062130000994F894FFCFB2
:1021360001000201A025260098AB0200C0E1E400E0
:0A214600404B4C0005747E7A330014
:00000001FF
