:100000000C9435000C945D000C945D000C9474030A
:100010000C945D000C9430030C945D000C945D0016
:100020000C945D000C945D000C945D000C945D00DC
:100030000C945D000C945F000C945D000C945D00CA
:100040000C9485000C945D000C94E4000C94240145
:100050000C945D000C94BC0C0C945D000C945D0041
:100060000C9452010C945D003C0E11241FBECFEF86
:10007000D4E0DEBFCDBF11E0A0E0B1E0EAE7FDE1F2
:1000800002C005900D92A031B107D9F712E0A0E1AE
:10009000B1E001C01D92AD3FB107E1F710E0CAE643
:1000A000D0E004C02297FE010E94B70EC836D107E7
:1000B000C9F70E94770D0C94BB0E0C9400001F92A0
:1000C0000F920FB60F9211248F939F93AF93BF930C
:1000D0008091100190911101A0911201B091130132
:1000E00080509044AF4FBF4F809310019093110107
:1000F000A0931201B0931301BF91AF919F918F9183
:100100000F900FBE0F901F9018951F920F920FB671
:100110000F9211248F939F938091FC028F5F8093A5
:10012000FC02833009F049C01092FC029091140146
:100130008091FB02891701F1891714F48F5F01C0C8
:1001400081508093FB029091FB02992319F4109245
:10015000B30010C097FF0AC01092B3008EEF980250
:10016000C00111248F5F8093B40006C0990F9F5F78
:100170009093B3001092B400909115018091FA020F
:100180008917D9F0891714F48F5F01C081508093CB
:10019000FA029091FA02992311F417BC0DC01916B6
:1001A0002CF417BC990F9F5F98BD07C08EEF980283
:1001B000C00111248F5F87BD18BC9F918F910F9054
:1001C0000FBE0F901F9018951F920F920FB60F92AF
:1001D00011242F938F939F93EF93FF932091C60049
:1001E0009091F702E92FF0E0EC5FFE4F8081281735
:1001F00071F4892F8F5F8093F702843051F4F89463
:1002000088E18093600088E080936000FFCF1092C7
:10021000F702E0914A019E2F9F5F903209F490E02F
:1002200080914901981731F0F0E0E75DFE4F20839F
:1002300090934A01FF91EF919F918F912F910F9091
:100240000FBE0F901F9018951F920F920FB60F922E
:1002500011248F939F93EF93FF939091AB01809123
:10026000AC01981789F0E091AB01F0E0E75DFE4F3B
:1002700092A18091AB018F5F803609F480E080937A
:10028000AB019093C60005C08091C1008F7D809323
:10029000C100FF91EF919F918F910F900FBE0F9032
:1002A0001F9018951F920F920FB60F9211242F9343
:1002B0003F934F935F936F937F938F939F93AF93EE
:1002C000BF93EF93FF93DF93CF93CDB7DEB729971B
:1002D000DEBFCDBF2091B900287F283209F459C074
:1002E000293278F4203101F1213120F4283009F04D
:1002F000F1C01AC0283109F44CC0203209F0EAC01C
:1003000048C0283409F4B8C0293438F4203309F43B
:1003100040C0203409F0DEC089C0203509F46DC02A
:10032000283509F0D7C08FC0909161028091620298
:10033000981709F4CFC08091610290E0FC01EE0FA4
:10034000FF1FE80FF91FDE011496EF5CFD4F83E0FD
:1003500001900D928150E1F7DE011196FE01349675
:1003600083E001900D928150E1F7AAE9B2E0FE012D
:10037000319683E001900D928150E1F78091610206
:100380008F5F803109F480E08093610280919A024E
:1003900037C190919C0280919B029817B9F438C1A3
:1003A00080919302281709F48DC0892F90E0FC01F9
:1003B000EE0FFF1FE80FF91FED59FD4FDE011796F5
:1003C00083E00D9001928150E1F77AC0E091ED0158
:1003D000F0E0E355FE4F80818093BB0085EC809375
:1003E000BC008091ED018F5F803409F480E0809340
:1003F000ED019F5F90939C021DC12091BB00E09195
:1004000030029E2F9F5F903409F490E080912F027C
:10041000981709F4F9C0F0E0E151FE4F2083909362
:10042000300280919C028F5F80939C0220919C02FD
:1004300030E02F5F3F4F80919B0290E028173907F3
:100440000CF09DC0DFC02091BB00E09130029E2FD8
:100450009F5F903409F490E080912F02981709F47F
:10046000D3C0F0E0E151FE4F2083909330028091A1
:100470009C028F5F80939C02DE011796EAE9F2E00E
:1004800083E001900D928150E1F790919402292F21
:100490002F5F203109F420E080919302281791F01A
:1004A000892F90E0FC01EE0FFF1FE80FF91FED59B7
:1004B000FD4FDE01179683E00D9001928150E1F728
:1004C000209394029091610280916202981709F042
:1004D00084C09AC0203979F1213970F42037F1F0C5
:1004E000213720F4203609F08FC018C0203819F1C8
:1004F000283809F089C045C0283A09F470C0293A63
:1005000030F42839F1F1203A09F07EC03AC0283B96
:1005100009F465C0203C09F077C059C081E08093A0
:100520009A028091990280939B0210929C028823E8
:1005300009F068C024C02091BB00E09130029E2FDA
:100540009F5F903409F490E080912F02981761F03A
:10055000F0E0E151FE4F20839093300280919C02A5
:100560008F5F80939C0204C080919C0280939B02C9
:1005700090919C0280919B02981709F043C085E8F6
:1005800044C0DE011796EAE9F2E083E001900D92A3
:100590008150E1F790919402292F2F5F203109F4C7
:1005A00020E080919302281791F0892F90E0FC01C0
:1005B000EE0FFF1FE80FF91FED59FD4FDE011796F3
:1005C00083E00D9001928150E1F720939402909185
:1005D0006102809162029817A9F085EE16C08091A1
:1005E000950290919602892B11F48FEF09C0E0914A
:1005F0009502F09196028091970290919802099548
:100600008093BB0085EC01C085ED8093BC0012C0D7
:10061000DE011796EAE9F2E083E001900D92815045
:10062000E1F790919402292F2F5F203109F0B8CE85
:1006300020E0B6CE2996DEBFCDBFCF91DF91FF91EE
:10064000EF91BF91AF919F918F917F916F915F914A
:100650004F913F912F910F900FBE0F901F901895C3
:100660001F920F920FB60F9211242F933F938F93E7
:100670009F93AF93BF9389B190E09C01B4E036950E
:100680002795BA95E1F79695879596958795822750
:1006900080FD0CC080919D0290919E02A0919F02CE
:1006A000B091A0020197A109B1090BC080919D02F0
:1006B00090919E02A0919F02B091A0020196A11D6F
:1006C000B11D80939D0290939E02A0939F02B093D0
:1006D000A002BF91AF919F918F913F912F910F9069
:1006E0000FBE0F901F9018951F920F920FB60F928A
:1006F00011242F933F938F939F93AF93BF9383B115
:1007000090E09C01A4E036952795AA95E1F735E0A5
:10071000969587953A95E1F7822780FD0CC08091E8
:10072000A1029091A202A091A302B091A40201970C
:10073000A109B1090BC08091A1029091A202A091E0
:10074000A302B091A4020196A11DB11D8093A10244
:100750009093A202A093A302B093A402BF91AF9181
:100760009F918F913F912F910F900FBE0F901F90EF
:100770001895F89420919D0230919E0240919F021D
:100780005091A0027894B901CA010895F89420917B
:10079000A1023091A2024091A3025091A402789448
:1007A000B901CA010895EDE6F0E08081846080839C
:1007B000EBE6F0E080818062808385E08BBB8093F4
:1007C0006800089508951092680010926D001092CC
:1007D0006B000895EF92FF920F931F930091A70271
:1007E0008091A802013021F4182FF82FF15004C095
:1007F000182F1195F1E0F81BE090B202EE20B9F04D
:10080000F8942091A1023091A2024091A30250914C
:10081000A40278948091AE029091AF02A091B002B0
:10082000B091B102281B390B4A0B5B0B08C0209119
:10083000AE023091AF024091B0025091B102B901C5
:10084000F090AD02FF20B9F0F89420919D02309114
:100850009E0240919F025091A00278948091A9023B
:100860009091AA02A091AB02B091AC02281B390B67
:100870004A0B5B0B08C02091A9023091AA0240915B
:10088000AB025091AC02A901E091A502CB01821B01
:10089000930BE4FD23C09C0197FF03C03095219585
:1008A0003F4F8091030190E0281739070CF464C092
:1008B000641775071CF4013059F405C04617570733
:1008C0003CF4023029F4F09314011093150104C094
:1008D00010931401F0931501E06112C09C0197FF81
:1008E00003C0309521953F4F8091030190E0281778
:1008F00039070CF441C01093140110931501EF7ED9
:10090000E093A502EE2099F0F8948091A1029091D5
:10091000A202A091A302B091A40278948093AE02A7
:100920009093AF02A093B002B093B10208C01092AE
:10093000AE021092AF021092B0021092B102FF20EC
:1009400099F0F89480919D0290919E02A0919F024F
:10095000B091A00278948093A9029093AA02A093E8
:10096000AB02B093AC0208C01092A9021092AA0286
:100970001092AB021092AC021F910F91FF90EF907A
:100980000895282F80FF0AC083E1689FC0011124C9
:1009900083559745909389008093880021FF0AC072
:1009A00083E1689FC00111248355974590938B0084
:1009B00080938A000895DC01E091AC019E2F9F5F37
:1009C000903609F490E08091AB01981739F0F0E08F
:1009D000E75DFE4F81E082A39093AC018091C1005E
:1009E00080628093C1002C91E091AC019E2F9F5FAB
:1009F000903609F490E08091AB01981731F0F0E067
:100A0000E75DFE4F22A39093AC018091C10080620C
:100A10008093C10011962C911197E091AC019E2F0B
:100A20009F5F903609F490E08091AB01981731F008
:100A3000F0E0E75DFE4F22A39093AC018091C100EE
:100A400080628093C10011965C9111974A2F9D019D
:100A5000D9011AC012962C911297E091AC019E2FE9
:100A60009F5F903609F490E08091AB01981731F0C8
:100A7000F0E0E75DFE4F22A39093AC018091C100AE
:100A800080628093C10011968A2F841B851710F312
:100A900008959091490180914A019817D1F3E0910E
:100AA0004901F0E0E75DFE4FE081809149018F5FF1
:100AB000803209F480E0809349012091C102213005
:100AC00019F4E093C20213C0223019F4E093C30278
:100AD0000EC0233060F0A22FB0E08091C30290E0FE
:100AE00002968A179B071CF0AF53BD4FEC932F5F04
:100AF0002093C102233080F08091C202882361F0EC
:100B000030E08091C30290E003962817390721F462
:100B10001092C10281E0089580E00895CF92DF92A3
:100B2000EF92FF920F931F93DF93CF93CDB7DEB772
:100B3000C056D0400FB6F894DEBF0FBECDBFFC014B
:100B40008081803109F471C5813190F4843009F4D9
:100B50006FC2853030F48130F1F0833009F0A8C6DF
:100B60001EC0853009F468C2893009F0A1C655C598
:100B7000843109F406C6853138F4813109F45AC547
:100B8000823109F095C6A2C5883109F485C689313C
:100B900009F08EC686C682E08DA71EA639C52281C1
:100BA0002093A80283818093A70290E080FFB7C0C2
:100BB00082FF05C0285220931401285D05C083FFE1
:100BC00006C02093140128522093150193C08091F0
:100BD000AD02882309F5F89480919D0290919E02C0
:100BE000A0919F02B091A00278942091A902309127
:100BF000AA024091AB025091AC02821B930BA40B52
:100C0000B50B8093A9029093AA02A093AB02B09374
:100C1000AC0281E08093AD028091B202882309F595
:100C2000F8948091A1029091A202A091A302B091A8
:100C3000A40278942091AE023091AF024091B002AC
:100C40005091B102821B930BA40BB50B8093AE02A3
:100C50009093AF02A093B002B093B10281E0809371
:100C6000B2028091AD02882399F0F89480919D02A0
:100C700090919E02A0919F02B091A00278948093DF
:100C8000A9029093AA02A093AB02B093AC0208C051
:100C90001092A9021092AA021092AB021092AC021A
:100CA0008091B202882399F0F8948091A1029091EA
:100CB000A202A091A302B091A40278948093AE0204
:100CC0009093AF02A093B002B093B10208C010920B
:100CD000AE021092AF021092B0021092B102809157
:100CE000A80280931401809315018091A5028F7E44
:100CF0008093A50220918400E0918500F8944091B2
:100D000010015091110160911201709113017894BA
:100D100080918400809185008E1760F3FEC0AC0145
:100D20004470507081FFBFC0452B41F088E2821BA8
:100D300021958093140120931501A0C083FF0AC060
:100D40008091A80298E2981B81958093140190935A
:100D5000150194C08091A5028F7E8093A502809199
:100D6000AD02882309F5F89480919D0290919E022E
:100D7000A0919F02B091A00278942091A902309195
:100D8000AA024091AB025091AC02821B930BA40BC0
:100D9000B50B8093A9029093AA02A093AB02B093E3
:100DA000AC0281E08093AD028091B202882309F504
:100DB000F8948091A1029091A202A091A302B09117
:100DC000A40278942091AE023091AF024091B0021B
:100DD0005091B102821B930BA40BB50B8093AE0212
:100DE0009093AF02A093B002B093B10281E08093E0
:100DF000B2028091AD02882399F0F89480919D020F
:100E000090919E02A0919F02B091A002789480934D
:100E1000A9029093AA02A093AB02B093AC0208C0BF
:100E20001092A9021092AA021092AB021092AC0288
:100E30008091B202882399F0F8948091A102909158
:100E4000A202A091A302B091A40278948093AE0272
:100E50009093AF02A093B002B093B10208C0109279
:100E6000AE021092AF021092B0021092B1028091C5
:100E7000A80281958093140180931501209184002C
:100E8000E0918500F894409110015091110160911A
:100E900012017091130178948091840080918500F3
:100EA0008E1760F33AC0452BD9F0822F819580933D
:100EB00014012093150120918400E0918500F8949D
:100EC0004091100150911101609112017091130134
:100ED000789480918400809185008E1760F31DC006
:100EE00083FF2FC08091A802809314018195809385
:100EF000150120918400E0918500F8944091100143
:100F000050911101609112017091130178948091B8
:100F10008400809185008E1760F39E2F80E030E082
:100F2000822B932BA0E0B0E0840F951FA61FB71F64
:100F30008093B3029093B402A093B502B093B6022B
:100F4000B7C420918400E0918500F894409110018D
:100F50005091110160911201709113017894809168
:100F60008400809185008E1760F39E2F80E030E032
:100F7000822B932BA0E0B0E0840F951FA61FB71F14
:100F80008093B3029093B402A093B502B093B602DB
:100F900010921401109215018091AD02882301F185
:100FA000F89480919D0290919E02A0919F02B09131
:100FB000A00278942091A9023091AA024091AB023C
:100FC0005091AC02821B930BA40BB50B8093A9022A
:100FD0009093AA02A093AB02B093AC021092AD0220
:100FE0008091B202882301F1F8948091A10290913E
:100FF000A202A091A302B091A40278942091AE0223
:101000003091AF024091B0025091B102821B930B1C
:10101000A40BB50B8093AE029093AF02A093B002E5
:10102000B093B1021092B2028091A5028F7E3EC4AD
:101030008281809303013CC486E08DA783E08EA764
:101040008091010088AB8091020089ABD280DFA63D
:10105000198281E58A83BEEFCB2ECD20E091EE018F
:101060009E2F9F5F903409F490E08091ED019817D6
:1010700011F490E01BC0F0E0E355FE4F1082909316
:10108000EE012A81E091EE019E2F9F5F903409F4DA
:1010900090E08091ED01981711F491E007C0F0E025
:1010A000E355FE4F20839093EE0192E0FE013C96C3
:1010B00083E0DF011D928A95E9F7CC869D87DE01EA
:1010C0001F9683E001900D928150E1F790916202AA
:1010D000292F2F5F203109F420E080916102281729
:1010E00091F0892F90E0FC01EE0FFF1FE80FF91F30
:1010F000EF5CFD4FDE011F9683E00D900192815061
:10110000E1F72093620285EE8093BC0090919302F8
:10111000809194029817D1F38091930290E0FC01A2
:10112000EE0FFF1FE80FF91FDE015296ED59FD4F3C
:1011300083E001900D928150E1F7DE011396FE01EC
:10114000729683E001900D928150E1F7DE011F96C7
:10115000FE01339683E001900D928150E1F780917A
:1011600093028F5F803109F480E080939302DE0167
:101170005596FE013F9683E001900D928150E1F774
:10118000DE015896FE01759683E001900D92815024
:10119000E1F78A8D823009F037C2209184004091B6
:1011A0008500F894E0901001F09011010091120177
:1011B00010911301789480918400809185008417A8
:1011C00060F3942F80E030E0822B932BA0E0B0E01E
:1011D00022273327A901281B390B4A0B5B0B2E1939
:1011E0003F09400B510B90918400E0918500F894E9
:1011F000E0901001F0901101009112011091130183
:10120000789480918400809185008E1760F37E2F02
:1012100060E0892F90E0862B972BA0E0B0E08E0D48
:101220009F1DA01FB11F820F931FA41FB51F8859B8
:101230009B4AA240B040B8F2E091EE019E2F9F5F22
:10124000903409F490E08091ED01981711F490E04A
:1012500008C0F0E0E355FE4F82E080839093EE01FA
:1012600091E0FE013F9683E0DF011D928A95E9F748
:10127000988BCF86DE011C9683E001900D92815001
:10128000E1F790916202292F2F5F203109F420E0CD
:1012900080916102281791F0892F90E0FC01EE0FF8
:1012A000FF1FE80FF91FEF5CFD4FDE011C9683E086
:1012B0000D9001928150E1F72093620285EE8093B8
:1012C000BC0090919302809194029817D1F3809181
:1012D000930290E0FC01EE0FFF1FE80FF91FDE0103
:1012E0005B96ED59FD4F83E001900D928150E1F73F
:1012F000DE011696FE017B9683E001900D928150EF
:10130000E1F7DE011C96FE01369683E001900D9216
:101310008150E1F7809193028F5F803109F480E082
:1013200080939302DE015E96FE013C9683E001907D
:101330000D928150E1F7DE019196FE017E9683E0E9
:1013400001900D928150E1F79BA1913009F05CC1B1
:10135000FE013C9683E0DF011D928A95E9F73D2D61
:1013600031603C879D87DE011F9683E001900D92DE
:101370008150E1F790916202292F2F5F203109F40B
:1013800020E080916102281791F0892F90E0FC0104
:10139000EE0FFF1FE80FF91FEF5CFD4FDE011F96F8
:1013A00083E00D9001928150E1F72093620285EE77
:1013B0008093BC0090919302809194029817D1F38E
:1013C00080919302809193028F5F803109F480E0D5
:1013D000809393025091BB00E091EE019E2F9F5F9E
:1013E000903409F490E08091ED01981711F490E0A9
:1013F00008C0F0E0E355FE4F83E080839093EE0158
:1014000091E0FE013F9683E0DF011D928A95E9F7A6
:10141000988BCF86DE011C9683E001900D9281505F
:10142000E1F790916202292F2F5F203109F420E02B
:1014300080916102281791F0892F90E0FC01EE0F56
:10144000FF1FE80FF91FEF5CFD4FDE011C9683E0E4
:101450000D9001928150E1F72093620285EE809316
:10146000BC0090919302809194029817D1F38091DF
:10147000930290E0FC01EE0FFF1FE80FF91FDE0161
:101480009496ED59FD4F83E001900D928150E1F764
:10149000DE011996FE01B49683E001900D92815011
:1014A000E1F7DE011C96FE01399683E001900D9272
:1014B0008150E1F7809193028F5F803109F480E0E1
:1014C00080939302DE019796FE013C9683E00190A3
:1014D0000D928150E1F7DE019A96FE01B79683E006
:1014E00001900D928150E1F79CA5913009F08CC0DC
:1014F000FE013C9683E0DF011D928A95E9F73C8767
:101500009D87DE011F9683E001900D928150E1F7E7
:1015100090916202292F2F5F203109F420E0809101
:101520006102281791F0892F90E0FC01EE0FFF1F58
:10153000E80FF91FEF5CFD4FDE011F9683E00D9071
:1015400001928150E1F72093620285EE8093BC0006
:1015500090919302809194029817D1F38091930215
:10156000809193028F5F803109F480E08093930231
:101570004091BB001092BC0008C08091ED018F5FCC
:10158000803409F480E08093ED019091ED01809129
:10159000EE01981791F708C080912F028F5F803479
:1015A00009F480E080932F0290912F028091300205
:1015B000981791F708C0809193028F5F803109F4EA
:1015C00080E0809393029091930280919402981707
:1015D00091F708C0809161028F5F803109F480E04B
:1015E000809361029091610280916202981791F755
:1015F00028E030E002C0220F331F5A95E2F7842F13
:1016000090E0282B392B02C020E030E038AB29AB2A
:10161000CE018D960E94DB044BC190E08281813027
:1016200009F491E09093020143C1828163810E9499
:10163000C1043EC18091BB02882309F5F8948091D2
:101640009D0290919E02A0919F02B091A002789479
:101650002091B7023091B8024091B9025091BA027C
:10166000821B930BA40BB50B8093B7029093B80227
:10167000A093B902B093BA0281E08093BB0280913B
:10168000C002882309F014C1F8948091A1029091BE
:10169000A202A091A302B091A40278942091BC026E
:1016A0003091BD024091BE025091BF02821B930B4C
:1016B000A40BB50B8093BC029093BD02A093BE0215
:1016C000B093BF0281E08093C002F2C083E18DA796
:1016D00084E08EA7809100008FA78091010088ABE5
:1016E0008091020089AB809103008AAB8091BB029C
:1016F0008823B9F0F89420919D0230919E02409188
:101700009F025091A00278948091B7029091B80204
:10171000A091B902B091BA02281B390B4A0B5B0B9E
:1017200008C02091B7023091B8024091B90250919F
:10173000BA023FA728AB8091C0028823B9F0F89481
:101740002091A1023091A2024091A3025091A402E3
:1017500078948091BC029091BD02A091BE02B0919C
:10176000BF02281B390B4A0B5B0B08C02091BC023F
:101770003091BD024091BE025091BF0239AB2AABFD
:1017800047CF8091BB02882301F1F89480919D029C
:1017900090919E02A0919F02B091A0027894209116
:1017A000B7023091B8024091B9025091BA02821B3F
:1017B000930BA40BB50B8093B7029093B802A09340
:1017C000B902B093BA021092BB028091C002882382
:1017D00001F1F8948091A1029091A202A091A3023C
:1017E000B091A40278942091BC023091BD02409146
:1017F000BE025091BF02821B930BA40BB50B8093CA
:10180000BC029093BD02A093BE02B093BF0210929F
:10181000C0028281813009F04BC08091BB028823D5
:1018200099F0F89480919D0290919E02A0919F0260
:10183000B091A00278948093B7029093B802A093DD
:10184000B902B093BA0208C01092B7021092B8025F
:101850001092B9021092BA028091C002882399F0C6
:10186000F8948091A1029091A202A091A302B0915C
:10187000A40278948093BC029093BD02A093BE0210
:10188000B093BF0215C01092BC021092BD0210921C
:10189000BE021092BF020CC08091A5029281892BDA
:1018A00005C0928190958091A50289238093A5021D
:1018B000C05ADF4F0FB6F894DEBF0FBECDBFCF9139
:1018C000DF911F910F91FF90EF90DF90CF900895DF
:1018D000282F882331F080912601882309F04BC0FE
:1018E0003FC080912601882309F445C039C080910A
:1018F000A602882311F0222331F180918400909177
:101900008500F894409110015091110160911201ED
:1019100070911301789480918400809185008917DB
:1019200060F3222381F08091F602803218F45F9AEE
:10193000579A02C057985F9890E001968F73907005
:101940008093F602089580912601882331F48091D6
:101950002801882311F457985F9A1092270108955F
:101960008091260191E089278093260180910201D0
:10197000882309F0BCCF08951F920F920FB60F92E3
:1019800011240F931F932F933F934F935F936F9364
:101990007F938F939F93AF93BF93EF93FF930091A8
:1019A000F802002349F13091780020917900922FBC
:1019B00080E0232F30E0282B392B1091F902E12F02
:1019C000F0E0E85FFE4FE081F0E0EE0FFF1FEA5E1F
:1019D000FE4F31832083163031F42C5B324008F403
:1019E00081E00E94680C912F9F5F97709093F9029D
:1019F00088B1887F982B98B981E008270093F80276
:101A000080917A00806480937A00FF91EF91BF917A
:101A1000AF919F918F917F916F915F914F913F9186
:101A20002F911F910F910F900FBE0F901F9018953F
:101A30008091BB02882301F1F89480919D029091DE
:101A40009E02A0919F02B091A00278942091B702CB
:101A50003091B8024091B9025091BA02821B930BA7
:101A6000A40BB50B8093B7029093B802A093B90270
:101A7000B093BA021092BB028091C002882301F198
:101A8000F8948091A1029091A202A091A302B0913A
:101A9000A40278942091BC023091BD024091BE0214
:101AA0005091BF02821B930BA40BB50B8093BC0219
:101AB0009093BD02A093BE02B093BF021092C002E9
:101AC00081E08093A5028091A50280FF07C08091EC
:101AD000A7028150823010F40E94EA030E94490557
:101AE000882389F382EC92E00E948E05ECCF84B1CA
:101AF000866084B910928500109284009FEB9093C9
:101B000087008FEF809386009093890080938800F0
:101B100090938B0080938A0082EF809380008AE10B
:101B20008093810081E080936F0017BC18BC809384
:101B30006E0081EF84BD1092B3001092B400109239
:101B400070001092B6008093B00022E025BD209373
:101B5000B10083E883BD16BC1092B20083E083BD60
:101B6000239A8AB188668AB988E080937E0083E4EC
:101B700080937C0010927B008FED80937A0087B178
:101B8000876087B93B9880E094E090931701809339
:101B90001601909319018093180190931B01809373
:101BA0001A0190931D0180931C0190931F01809353
:101BB0001E01909321018093200190932301809333
:101BC0002201909325018093240157985F982093D8
:101BD000C00086E08093C2001092C50080E480932C
:101BE000C40088E98093C10081E18093B80010921D
:101BF000B9001092BD001092BA0085EC8093BC0031
:101C0000289AEDE6F0E0808184608083EBE6F0E0E6
:101C100080818062808385E08BBB809368007894AC
:101C20000E94180DF8941092680010926D001092A6
:101C30006B0028981092BC001092C1001092C00056
:101C40001092C20057985F9810927A0087B1807FF7
:101C500087B914BC15BC1092B0001092B10010925C
:101C600081001092800084B1897F84B9FFE1E1E8AE
:101C7000099480E090E008951092490110924A0181
:101C80001092AB011092AC011092ED011092EE0196
:101C900010922F0210923002109261021092620292
:101CA0001092930210929402109296021092950252
:101CB0001092990210929B02F89480919D0290914B
:101CC0009E02A0919F02B091A00278948093A902F5
:101CD0009093AA02A093AB02B093AC0281E08093F0
:101CE000AD02F8948091A1029091A202A091A3026A
:101CF000B091A40278948093AE029093AF02A09327
:101D0000B002B093B10281E08093B202F894809166
:101D10009D0290919E02A0919F02B091A0027894A2
:101D20008093B7029093B802A093B902B093BA021D
:101D300081E08093BB02F8948091A1029091A2026D
:101D4000A091A302B091A40278948093BC029093D6
:101D5000BD02A093BE02B093BF0281E08093C00297
:101D60001092C2021092C3020895EE0FFF1F059059
:0A1D7000F491E02D0994F894FFCFE0
:101D7A0000020105747E7A33050400010203060796
:00000001FF
